{
  "_format": "hh-sol-artifact-1",
  "contractName": "MinimalForwarder",
  "sourceName": "contracts/contracts/metatx/MinimalForwarder.sol",
  "abi": [
    {
      "inputs": [],
      "stateMutability": "nonpayable",
      "type": "constructor"
    },
    {
      "inputs": [],
      "name": "ECDSAInvalidSignature",
      "type": "error"
    },
    {
      "inputs": [
        {
          "internalType": "uint256",
          "name": "length",
          "type": "uint256"
        }
      ],
      "name": "ECDSAInvalidSignatureLength",
      "type": "error"
    },
    {
      "inputs": [
        {
          "internalType": "bytes32",
          "name": "s",
          "type": "bytes32"
        }
      ],
      "name": "ECDSAInvalidSignatureS",
      "type": "error"
    },
    {
      "inputs": [],
      "name": "InvalidShortString",
      "type": "error"
    },
    {
      "inputs": [
        {
          "internalType": "address",
          "name": "signer",
          "type": "address"
        },
        {
          "internalType": "uint256",
          "name": "current",
          "type": "uint256"
        }
      ],
      "name": "MinimalForwarderInvalidNonce",
      "type": "error"
    },
    {
      "inputs": [
        {
          "internalType": "address",
          "name": "signer",
          "type": "address"
        },
        {
          "internalType": "address",
          "name": "from",
          "type": "address"
        }
      ],
      "name": "MinimalForwarderInvalidSigner",
      "type": "error"
    },
    {
      "inputs": [
        {
          "internalType": "string",
          "name": "str",
          "type": "string"
        }
      ],
      "name": "StringTooLong",
      "type": "error"
    },
    {
      "anonymous": false,
      "inputs": [],
      "name": "EIP712DomainChanged",
      "type": "event"
    },
    {
      "inputs": [],
      "name": "eip712Domain",
      "outputs": [
        {
          "internalType": "bytes1",
          "name": "fields",
          "type": "bytes1"
        },
        {
          "internalType": "string",
          "name": "name",
          "type": "string"
        },
        {
          "internalType": "string",
          "name": "version",
          "type": "string"
        },
        {
          "internalType": "uint256",
          "name": "chainId",
          "type": "uint256"
        },
        {
          "internalType": "address",
          "name": "verifyingContract",
          "type": "address"
        },
        {
          "internalType": "bytes32",
          "name": "salt",
          "type": "bytes32"
        },
        {
          "internalType": "uint256[]",
          "name": "extensions",
          "type": "uint256[]"
        }
      ],
      "stateMutability": "view",
      "type": "function"
    },
    {
      "inputs": [
        {
          "components": [
            {
              "internalType": "address",
              "name": "from",
              "type": "address"
            },
            {
              "internalType": "address",
              "name": "to",
              "type": "address"
            },
            {
              "internalType": "uint256",
              "name": "value",
              "type": "uint256"
            },
            {
              "internalType": "uint256",
              "name": "gas",
              "type": "uint256"
            },
            {
              "internalType": "uint256",
              "name": "nonce",
              "type": "uint256"
            },
            {
              "internalType": "bytes",
              "name": "data",
              "type": "bytes"
            }
          ],
          "internalType": "struct MinimalForwarder.ForwardRequest",
          "name": "req",
          "type": "tuple"
        },
        {
          "internalType": "bytes",
          "name": "signature",
          "type": "bytes"
        }
      ],
      "name": "execute",
      "outputs": [
        {
          "internalType": "bool",
          "name": "",
          "type": "bool"
        },
        {
          "internalType": "bytes",
          "name": "",
          "type": "bytes"
        }
      ],
      "stateMutability": "payable",
      "type": "function"
    },
    {
      "inputs": [
        {
          "internalType": "address",
          "name": "from",
          "type": "address"
        }
      ],
      "name": "getNonce",
      "outputs": [
        {
          "internalType": "uint256",
          "name": "",
          "type": "uint256"
        }
      ],
      "stateMutability": "view",
      "type": "function"
    },
    {
      "inputs": [
        {
          "components": [
            {
              "internalType": "address",
              "name": "from",
              "type": "address"
            },
            {
              "internalType": "address",
              "name": "to",
              "type": "address"
            },
            {
              "internalType": "uint256",
              "name": "value",
              "type": "uint256"
            },
            {
              "internalType": "uint256",
              "name": "gas",
              "type": "uint256"
            },
            {
              "internalType": "uint256",
              "name": "nonce",
              "type": "uint256"
            },
            {
              "internalType": "bytes",
              "name": "data",
              "type": "bytes"
            }
          ],
          "internalType": "struct MinimalForwarder.ForwardRequest",
          "name": "req",
          "type": "tuple"
        },
        {
          "internalType": "bytes",
          "name": "signature",
          "type": "bytes"
        }
      ],
      "name": "verify",
      "outputs": [
        {
          "internalType": "bool",
          "name": "",
          "type": "bool"
        }
      ],
      "stateMutability": "view",
      "type": "function"
    }
  ],
  "bytecode": "0x6101606040523480156200001257600080fd5b506040518060400160405280601081526020017f4d696e696d616c466f72776172646572000000000000000000000000000000008152506040518060400160405280600581526020017f302e302e31000000000000000000000000000000000000000000000000000000815250620000956000836200013560201b90919060201c565b6101208181525050620000b36001826200013560201b90919060201c565b6101408181525050818051906020012060e08181525050808051906020012061010081815250504660a08181525050620000f26200018d60201b60201c565b608081815250503073ffffffffffffffffffffffffffffffffffffffff1660c08173ffffffffffffffffffffffffffffffffffffffff16815250505050620007e5565b60006020835110156200015b576200015383620001ea60201b60201c565b905062000187565b826200016d836200025760201b60201c565b60000190816200017e9190620004db565b5060ff60001b90505b92915050565b60007f8b73c3c69bb8fe3d512ecc4cf759cc79239f7b179b0ffacaa9a75d522b39400f60e051610100514630604051602001620001cf95949392919062000633565b60405160208183030381529060405280519060200120905090565b600080829050601f815111156200023a57826040517f305a27a90000000000000000000000000000000000000000000000000000000081526004016200023191906200071f565b60405180910390fd5b805181620002489062000775565b60001c1760001b915050919050565b6000819050919050565b600081519050919050565b7f4e487b7100000000000000000000000000000000000000000000000000000000600052604160045260246000fd5b7f4e487b7100000000000000000000000000000000000000000000000000000000600052602260045260246000fd5b60006002820490506001821680620002e357607f821691505b602082108103620002f957620002f86200029b565b5b50919050565b60008190508160005260206000209050919050565b60006020601f8301049050919050565b600082821b905092915050565b600060088302620003637fffffffffffffffffffffffffffffffffffffffffffffffffffffffffffffffff8262000324565b6200036f868362000324565b95508019841693508086168417925050509392505050565b6000819050919050565b6000819050919050565b6000620003bc620003b6620003b08462000387565b62000391565b62000387565b9050919050565b6000819050919050565b620003d8836200039b565b620003f0620003e782620003c3565b84845462000331565b825550505050565b600090565b62000407620003f8565b62000414818484620003cd565b505050565b5b818110156200043c5762000430600082620003fd565b6001810190506200041a565b5050565b601f8211156200048b576200045581620002ff565b620004608462000314565b8101602085101562000470578190505b620004886200047f8562000314565b83018262000419565b50505b505050565b600082821c905092915050565b6000620004b06000198460080262000490565b1980831691505092915050565b6000620004cb83836200049d565b9150826002028217905092915050565b620004e68262000261565b67ffffffffffffffff8111156200050257620005016200026c565b5b6200050e8254620002ca565b6200051b82828562000440565b600060209050601f8311600181146200055357600084156200053e578287015190505b6200054a8582620004bd565b865550620005ba565b601f1984166200056386620002ff565b60005b828110156200058d5784890151825560018201915060208501945060208101905062000566565b86831015620005ad5784890151620005a9601f8916826200049d565b8355505b6001600288020188555050505b505050505050565b6000819050919050565b620005d781620005c2565b82525050565b620005e88162000387565b82525050565b600073ffffffffffffffffffffffffffffffffffffffff82169050919050565b60006200061b82620005ee565b9050919050565b6200062d816200060e565b82525050565b600060a0820190506200064a6000830188620005cc565b620006596020830187620005cc565b620006686040830186620005cc565b620006776060830185620005dd565b62000686608083018462000622565b9695505050505050565b600082825260208201905092915050565b60005b83811015620006c1578082015181840152602081019050620006a4565b60008484015250505050565b6000601f19601f8301169050919050565b6000620006eb8262000261565b620006f7818562000690565b935062000709818560208601620006a1565b6200071481620006cd565b840191505092915050565b600060208201905081810360008301526200073b8184620006de565b905092915050565b600081519050919050565b6000819050602082019050919050565b60006200076c8251620005c2565b80915050919050565b6000620007828262000743565b826200078e846200074e565b90506200079b816200075e565b92506020821015620007de57620007d97fffffffffffffffffffffffffffffffffffffffffffffffffffffffffffffffff8360200360080262000324565b831692505b5050919050565b60805160a05160c05160e05161010051610120516101405161166d6200084060003960006106b60152600061067b01526000610b5001526000610b2f015260006107e20152600061083801526000610861015261166d6000f3fe60806040526004361061003f5760003560e01c80632d0335ab1461004457806347153f821461008157806384b0196e146100b2578063bf5d3bdb146100e3575b600080fd5b34801561005057600080fd5b5061006b60048036038101906100669190610d4c565b610120565b6040516100789190610d92565b60405180910390f35b61009b60048036038101906100969190610e36565b610169565b6040516100a9929190610f5d565b60405180910390f35b3480156100be57600080fd5b506100c76103d9565b6040516100da9796959493929190611103565b60405180910390f35b3480156100ef57600080fd5b5061010a60048036038101906101059190610e36565b610483565b6040516101179190611187565b60405180910390f35b6000600260008373ffffffffffffffffffffffffffffffffffffffff1673ffffffffffffffffffffffffffffffffffffffff168152602001908152602001600020549050919050565b60006060600061017a8686866104ba565b905060008061018988846105cb565b91509150816101e357828860000160208101906101a69190610d4c565b6040517fdeb8e0aa0000000000000000000000000000000000000000000000000000000081526004016101da9291906111a2565b60405180910390fd5b806102785782600260008a60000160208101906102009190610d4c565b73ffffffffffffffffffffffffffffffffffffffff1673ffffffffffffffffffffffffffffffffffffffff168152602001908152602001600020546040517f0a35541900000000000000000000000000000000000000000000000000000000815260040161026f9291906111cb565b60405180910390fd5b600188608001356102899190611223565b600260008a60000160208101906102a09190610d4c565b73ffffffffffffffffffffffffffffffffffffffff1673ffffffffffffffffffffffffffffffffffffffff168152602001908152602001600020819055506000808960200160208101906102f49190610d4c565b73ffffffffffffffffffffffffffffffffffffffff168a606001358b604001358c8060a001906103249190611266565b8e60000160208101906103379190610d4c565b60405160200161034993929190611350565b60405160208183030381529060405260405161036591906113ab565b600060405180830381858888f193505050503d80600081146103a3576040519150601f19603f3d011682016040523d82523d6000602084013e6103a8565b606091505b5091509150603f8a606001356103be91906113f1565b5a116103c657fe5b8181965096505050505050935093915050565b6000606080600080600060606103ed610672565b6103f56106ad565b46306000801b600067ffffffffffffffff81111561041657610415611422565b5b6040519080825280602002602001820160405280156104445781602001602082028036833780820191505090505b507f0f00000000000000000000000000000000000000000000000000000000000000959493929190965096509650965096509650965090919293949596565b6000806104918585856104ba565b90506000806104a087846105cb565b915091508180156104ae5750805b93505050509392505050565b60006105c283838080601f016020809104026020016040519081016040528093929190818152602001838380828437600081840152601f19601f820116905080830192505050505050506105b47fdd8f4b70b0f4393e889bd39128a30628a78b61816a9eb8199759e7a349657e4887600001602081019061053b9190610d4c565b88602001602081019061054e9190610d4c565b89604001358a606001358b608001358c8060a0019061056d9190611266565b60405161057b929190611451565b6040518091039020604051602001610599979695949392919061146a565b604051602081830303815290604052805190602001206106e8565b61070290919063ffffffff16565b90509392505050565b6000808360000160208101906105e19190610d4c565b73ffffffffffffffffffffffffffffffffffffffff168373ffffffffffffffffffffffffffffffffffffffff161484608001356002600087600001602081019061062b9190610d4c565b73ffffffffffffffffffffffffffffffffffffffff1673ffffffffffffffffffffffffffffffffffffffff1681526020019081526020016000205414915091509250929050565b60606106a860007f000000000000000000000000000000000000000000000000000000000000000061072e90919063ffffffff16565b905090565b60606106e360017f000000000000000000000000000000000000000000000000000000000000000061072e90919063ffffffff16565b905090565b60006106fb6106f56107de565b83610895565b9050919050565b60008060008061071286866108d6565b9250925092506107228282610932565b82935050505092915050565b606060ff60001b831461074b5761074483610a96565b90506107d8565b81805461075790611508565b80601f016020809104026020016040519081016040528092919081815260200182805461078390611508565b80156107d05780601f106107a5576101008083540402835291602001916107d0565b820191906000526020600020905b8154815290600101906020018083116107b357829003601f168201915b505050505090505b92915050565b60007f000000000000000000000000000000000000000000000000000000000000000073ffffffffffffffffffffffffffffffffffffffff163073ffffffffffffffffffffffffffffffffffffffff1614801561085a57507f000000000000000000000000000000000000000000000000000000000000000046145b15610887577f00000000000000000000000000000000000000000000000000000000000000009050610892565b61088f610b0a565b90505b90565b60006040517f190100000000000000000000000000000000000000000000000000000000000081528360028201528260228201526042812091505092915050565b6000806000604184510361091b5760008060006020870151925060408701519150606087015160001a905061090d88828585610ba0565b95509550955050505061092b565b60006002855160001b9250925092505b9250925092565b6000600381111561094657610945611539565b5b82600381111561095957610958611539565b5b0315610a92576001600381111561097357610972611539565b5b82600381111561098657610985611539565b5b036109bd576040517ff645eedf00000000000000000000000000000000000000000000000000000000815260040160405180910390fd5b600260038111156109d1576109d0611539565b5b8260038111156109e4576109e3611539565b5b03610a29578060001c6040517ffce698f7000000000000000000000000000000000000000000000000000000008152600401610a209190610d92565b60405180910390fd5b600380811115610a3c57610a3b611539565b5b826003811115610a4f57610a4e611539565b5b03610a9157806040517fd78bce0c000000000000000000000000000000000000000000000000000000008152600401610a889190611568565b60405180910390fd5b5b5050565b60606000610aa383610c94565b90506000602067ffffffffffffffff811115610ac257610ac1611422565b5b6040519080825280601f01601f191660200182016040528015610af45781602001600182028036833780820191505090505b5090508181528360208201528092505050919050565b60007f8b73c3c69bb8fe3d512ecc4cf759cc79239f7b179b0ffacaa9a75d522b39400f7f00000000000000000000000000000000000000000000000000000000000000007f00000000000000000000000000000000000000000000000000000000000000004630604051602001610b85959493929190611583565b60405160208183030381529060405280519060200120905090565b60008060007f7fffffffffffffffffffffffffffffff5d576e7357a4501ddfe92f46681b20a08460001c1115610be0576000600385925092509250610c8a565b600060018888888860405160008152602001604052604051610c0594939291906115f2565b6020604051602081039080840390855afa158015610c27573d6000803e3d6000fd5b505050602060405103519050600073ffffffffffffffffffffffffffffffffffffffff168173ffffffffffffffffffffffffffffffffffffffff1603610c7b57600060016000801b93509350935050610c8a565b8060008060001b935093509350505b9450945094915050565b60008060ff8360001c169050601f811115610cdb576040517fb3512b0c00000000000000000000000000000000000000000000000000000000815260040160405180910390fd5b80915050919050565b600080fd5b600080fd5b600073ffffffffffffffffffffffffffffffffffffffff82169050919050565b6000610d1982610cee565b9050919050565b610d2981610d0e565b8114610d3457600080fd5b50565b600081359050610d4681610d20565b92915050565b600060208284031215610d6257610d61610ce4565b5b6000610d7084828501610d37565b91505092915050565b6000819050919050565b610d8c81610d79565b82525050565b6000602082019050610da76000830184610d83565b92915050565b600080fd5b600060c08284031215610dc857610dc7610dad565b5b81905092915050565b600080fd5b600080fd5b600080fd5b60008083601f840112610df657610df5610dd1565b5b8235905067ffffffffffffffff811115610e1357610e12610dd6565b5b602083019150836001820283011115610e2f57610e2e610ddb565b5b9250929050565b600080600060408486031215610e4f57610e4e610ce4565b5b600084013567ffffffffffffffff811115610e6d57610e6c610ce9565b5b610e7986828701610db2565b935050602084013567ffffffffffffffff811115610e9a57610e99610ce9565b5b610ea686828701610de0565b92509250509250925092565b60008115159050919050565b610ec781610eb2565b82525050565b600081519050919050565b600082825260208201905092915050565b60005b83811015610f07578082015181840152602081019050610eec565b60008484015250505050565b6000601f19601f8301169050919050565b6000610f2f82610ecd565b610f398185610ed8565b9350610f49818560208601610ee9565b610f5281610f13565b840191505092915050565b6000604082019050610f726000830185610ebe565b8181036020830152610f848184610f24565b90509392505050565b60007fff0000000000000000000000000000000000000000000000000000000000000082169050919050565b610fc281610f8d565b82525050565b600081519050919050565b600082825260208201905092915050565b6000610fef82610fc8565b610ff98185610fd3565b9350611009818560208601610ee9565b61101281610f13565b840191505092915050565b61102681610d0e565b82525050565b6000819050919050565b61103f8161102c565b82525050565b600081519050919050565b600082825260208201905092915050565b6000819050602082019050919050565b61107a81610d79565b82525050565b600061108c8383611071565b60208301905092915050565b6000602082019050919050565b60006110b082611045565b6110ba8185611050565b93506110c583611061565b8060005b838110156110f65781516110dd8882611080565b97506110e883611098565b9250506001810190506110c9565b5085935050505092915050565b600060e082019050611118600083018a610fb9565b818103602083015261112a8189610fe4565b9050818103604083015261113e8188610fe4565b905061114d6060830187610d83565b61115a608083018661101d565b61116760a0830185611036565b81810360c083015261117981846110a5565b905098975050505050505050565b600060208201905061119c6000830184610ebe565b92915050565b60006040820190506111b7600083018561101d565b6111c4602083018461101d565b9392505050565b60006040820190506111e0600083018561101d565b6111ed6020830184610d83565b9392505050565b7f4e487b7100000000000000000000000000000000000000000000000000000000600052601160045260246000fd5b600061122e82610d79565b915061123983610d79565b9250828201905080821115611251576112506111f4565b5b92915050565b600080fd5b600080fd5b600080fd5b6000808335600160200384360303811261128357611282611257565b5b80840192508235915067ffffffffffffffff8211156112a5576112a461125c565b5b6020830192506001820236038313156112c1576112c0611261565b5b509250929050565b600081905092915050565b82818337600083830152505050565b60006112ef83856112c9565b93506112fc8385846112d4565b82840190509392505050565b60008160601b9050919050565b600061132082611308565b9050919050565b600061133282611315565b9050919050565b61134a61134582610d0e565b611327565b82525050565b600061135d8285876112e3565b91506113698284611339565b601482019150819050949350505050565b600061138582610ecd565b61138f81856112c9565b935061139f818560208601610ee9565b80840191505092915050565b60006113b7828461137a565b915081905092915050565b7f4e487b7100000000000000000000000000000000000000000000000000000000600052601260045260246000fd5b60006113fc82610d79565b915061140783610d79565b925082611417576114166113c2565b5b828204905092915050565b7f4e487b7100000000000000000000000000000000000000000000000000000000600052604160045260246000fd5b600061145e8284866112e3565b91508190509392505050565b600060e08201905061147f600083018a611036565b61148c602083018961101d565b611499604083018861101d565b6114a66060830187610d83565b6114b36080830186610d83565b6114c060a0830185610d83565b6114cd60c0830184611036565b98975050505050505050565b7f4e487b7100000000000000000000000000000000000000000000000000000000600052602260045260246000fd5b6000600282049050600182168061152057607f821691505b602082108103611533576115326114d9565b5b50919050565b7f4e487b7100000000000000000000000000000000000000000000000000000000600052602160045260246000fd5b600060208201905061157d6000830184611036565b92915050565b600060a0820190506115986000830188611036565b6115a56020830187611036565b6115b26040830186611036565b6115bf6060830185610d83565b6115cc608083018461101d565b9695505050505050565b600060ff82169050919050565b6115ec816115d6565b82525050565b60006080820190506116076000830187611036565b61161460208301866115e3565b6116216040830185611036565b61162e6060830184611036565b9594505050505056fea2646970667358221220769ea4df64bd7a7fa38f359fb943ba12af118df945d84509c1407274476b309c64736f6c63430008140033",
  "linkReferences": {},
  "deployedLinkReferences": {}
}