{
  "_format": "hh-sol-artifact-1",
  "contractName": "TimelockController",
  "sourceName": "contracts/contracts/governance/TimelockController.sol",
  "abi": [
    {
      "inputs": [
        {
          "internalType": "uint256",
          "name": "minDelay",
          "type": "uint256"
        },
        {
          "internalType": "address[]",
          "name": "proposers",
          "type": "address[]"
        },
        {
          "internalType": "address[]",
          "name": "executors",
          "type": "address[]"
        },
        {
          "internalType": "address",
          "name": "admin",
          "type": "address"
        }
      ],
      "stateMutability": "nonpayable",
      "type": "constructor"
    },
    {
      "inputs": [],
      "name": "AccessControlBadConfirmation",
      "type": "error"
    },
    {
      "inputs": [
        {
          "internalType": "address",
          "name": "account",
          "type": "address"
        },
        {
          "internalType": "bytes32",
          "name": "neededRole",
          "type": "bytes32"
        }
      ],
      "name": "AccessControlUnauthorizedAccount",
      "type": "error"
    },
    {
      "inputs": [],
      "name": "FailedInnerCall",
      "type": "error"
    },
    {
      "inputs": [
        {
          "internalType": "uint256",
          "name": "delay",
          "type": "uint256"
        },
        {
          "internalType": "uint256",
          "name": "minDelay",
          "type": "uint256"
        }
      ],
      "name": "TimelockInsufficientDelay",
      "type": "error"
    },
    {
      "inputs": [
        {
          "internalType": "uint256",
          "name": "targets",
          "type": "uint256"
        },
        {
          "internalType": "uint256",
          "name": "payloads",
          "type": "uint256"
        },
        {
          "internalType": "uint256",
          "name": "values",
          "type": "uint256"
        }
      ],
      "name": "TimelockInvalidOperationLength",
      "type": "error"
    },
    {
      "inputs": [
        {
          "internalType": "address",
          "name": "caller",
          "type": "address"
        }
      ],
      "name": "TimelockUnauthorizedCaller",
      "type": "error"
    },
    {
      "inputs": [
        {
          "internalType": "bytes32",
          "name": "predecessorId",
          "type": "bytes32"
        }
      ],
      "name": "TimelockUnexecutedPredecessor",
      "type": "error"
    },
    {
      "inputs": [
        {
          "internalType": "bytes32",
          "name": "operationId",
          "type": "bytes32"
        },
        {
          "internalType": "enum TimelockController.OperationState",
          "name": "expected",
          "type": "uint8"
        }
      ],
      "name": "TimelockUnexpectedOperationState",
      "type": "error"
    },
    {
      "anonymous": false,
      "inputs": [
        {
          "indexed": true,
          "internalType": "bytes32",
          "name": "id",
          "type": "bytes32"
        },
        {
          "indexed": true,
          "internalType": "uint256",
          "name": "index",
          "type": "uint256"
        },
        {
          "indexed": false,
          "internalType": "address",
          "name": "target",
          "type": "address"
        },
        {
          "indexed": false,
          "internalType": "uint256",
          "name": "value",
          "type": "uint256"
        },
        {
          "indexed": false,
          "internalType": "bytes",
          "name": "data",
          "type": "bytes"
        }
      ],
      "name": "CallExecuted",
      "type": "event"
    },
    {
      "anonymous": false,
      "inputs": [
        {
          "indexed": true,
          "internalType": "bytes32",
          "name": "id",
          "type": "bytes32"
        },
        {
          "indexed": false,
          "internalType": "bytes32",
          "name": "salt",
          "type": "bytes32"
        }
      ],
      "name": "CallSalt",
      "type": "event"
    },
    {
      "anonymous": false,
      "inputs": [
        {
          "indexed": true,
          "internalType": "bytes32",
          "name": "id",
          "type": "bytes32"
        },
        {
          "indexed": true,
          "internalType": "uint256",
          "name": "index",
          "type": "uint256"
        },
        {
          "indexed": false,
          "internalType": "address",
          "name": "target",
          "type": "address"
        },
        {
          "indexed": false,
          "internalType": "uint256",
          "name": "value",
          "type": "uint256"
        },
        {
          "indexed": false,
          "internalType": "bytes",
          "name": "data",
          "type": "bytes"
        },
        {
          "indexed": false,
          "internalType": "bytes32",
          "name": "predecessor",
          "type": "bytes32"
        },
        {
          "indexed": false,
          "internalType": "uint256",
          "name": "delay",
          "type": "uint256"
        }
      ],
      "name": "CallScheduled",
      "type": "event"
    },
    {
      "anonymous": false,
      "inputs": [
        {
          "indexed": true,
          "internalType": "bytes32",
          "name": "id",
          "type": "bytes32"
        }
      ],
      "name": "Cancelled",
      "type": "event"
    },
    {
      "anonymous": false,
      "inputs": [
        {
          "indexed": false,
          "internalType": "uint256",
          "name": "oldDuration",
          "type": "uint256"
        },
        {
          "indexed": false,
          "internalType": "uint256",
          "name": "newDuration",
          "type": "uint256"
        }
      ],
      "name": "MinDelayChange",
      "type": "event"
    },
    {
      "anonymous": false,
      "inputs": [
        {
          "indexed": true,
          "internalType": "bytes32",
          "name": "role",
          "type": "bytes32"
        },
        {
          "indexed": true,
          "internalType": "bytes32",
          "name": "previousAdminRole",
          "type": "bytes32"
        },
        {
          "indexed": true,
          "internalType": "bytes32",
          "name": "newAdminRole",
          "type": "bytes32"
        }
      ],
      "name": "RoleAdminChanged",
      "type": "event"
    },
    {
      "anonymous": false,
      "inputs": [
        {
          "indexed": true,
          "internalType": "bytes32",
          "name": "role",
          "type": "bytes32"
        },
        {
          "indexed": true,
          "internalType": "address",
          "name": "account",
          "type": "address"
        },
        {
          "indexed": true,
          "internalType": "address",
          "name": "sender",
          "type": "address"
        }
      ],
      "name": "RoleGranted",
      "type": "event"
    },
    {
      "anonymous": false,
      "inputs": [
        {
          "indexed": true,
          "internalType": "bytes32",
          "name": "role",
          "type": "bytes32"
        },
        {
          "indexed": true,
          "internalType": "address",
          "name": "account",
          "type": "address"
        },
        {
          "indexed": true,
          "internalType": "address",
          "name": "sender",
          "type": "address"
        }
      ],
      "name": "RoleRevoked",
      "type": "event"
    },
    {
      "inputs": [],
      "name": "CANCELLER_ROLE",
      "outputs": [
        {
          "internalType": "bytes32",
          "name": "",
          "type": "bytes32"
        }
      ],
      "stateMutability": "view",
      "type": "function"
    },
    {
      "inputs": [],
      "name": "DEFAULT_ADMIN_ROLE",
      "outputs": [
        {
          "internalType": "bytes32",
          "name": "",
          "type": "bytes32"
        }
      ],
      "stateMutability": "view",
      "type": "function"
    },
    {
      "inputs": [],
      "name": "EXECUTOR_ROLE",
      "outputs": [
        {
          "internalType": "bytes32",
          "name": "",
          "type": "bytes32"
        }
      ],
      "stateMutability": "view",
      "type": "function"
    },
    {
      "inputs": [],
      "name": "PROPOSER_ROLE",
      "outputs": [
        {
          "internalType": "bytes32",
          "name": "",
          "type": "bytes32"
        }
      ],
      "stateMutability": "view",
      "type": "function"
    },
    {
      "inputs": [
        {
          "internalType": "bytes32",
          "name": "id",
          "type": "bytes32"
        }
      ],
      "name": "cancel",
      "outputs": [],
      "stateMutability": "nonpayable",
      "type": "function"
    },
    {
      "inputs": [
        {
          "internalType": "address",
          "name": "target",
          "type": "address"
        },
        {
          "internalType": "uint256",
          "name": "value",
          "type": "uint256"
        },
        {
          "internalType": "bytes",
          "name": "payload",
          "type": "bytes"
        },
        {
          "internalType": "bytes32",
          "name": "predecessor",
          "type": "bytes32"
        },
        {
          "internalType": "bytes32",
          "name": "salt",
          "type": "bytes32"
        }
      ],
      "name": "execute",
      "outputs": [],
      "stateMutability": "payable",
      "type": "function"
    },
    {
      "inputs": [
        {
          "internalType": "address[]",
          "name": "targets",
          "type": "address[]"
        },
        {
          "internalType": "uint256[]",
          "name": "values",
          "type": "uint256[]"
        },
        {
          "internalType": "bytes[]",
          "name": "payloads",
          "type": "bytes[]"
        },
        {
          "internalType": "bytes32",
          "name": "predecessor",
          "type": "bytes32"
        },
        {
          "internalType": "bytes32",
          "name": "salt",
          "type": "bytes32"
        }
      ],
      "name": "executeBatch",
      "outputs": [],
      "stateMutability": "payable",
      "type": "function"
    },
    {
      "inputs": [],
      "name": "getMinDelay",
      "outputs": [
        {
          "internalType": "uint256",
          "name": "",
          "type": "uint256"
        }
      ],
      "stateMutability": "view",
      "type": "function"
    },
    {
      "inputs": [
        {
          "internalType": "bytes32",
          "name": "role",
          "type": "bytes32"
        }
      ],
      "name": "getRoleAdmin",
      "outputs": [
        {
          "internalType": "bytes32",
          "name": "",
          "type": "bytes32"
        }
      ],
      "stateMutability": "view",
      "type": "function"
    },
    {
      "inputs": [
        {
          "internalType": "bytes32",
          "name": "id",
          "type": "bytes32"
        }
      ],
      "name": "getTimestamp",
      "outputs": [
        {
          "internalType": "uint256",
          "name": "",
          "type": "uint256"
        }
      ],
      "stateMutability": "view",
      "type": "function"
    },
    {
      "inputs": [
        {
          "internalType": "bytes32",
          "name": "role",
          "type": "bytes32"
        },
        {
          "internalType": "address",
          "name": "account",
          "type": "address"
        }
      ],
      "name": "grantRole",
      "outputs": [],
      "stateMutability": "nonpayable",
      "type": "function"
    },
    {
      "inputs": [
        {
          "internalType": "bytes32",
          "name": "role",
          "type": "bytes32"
        },
        {
          "internalType": "address",
          "name": "account",
          "type": "address"
        }
      ],
      "name": "hasRole",
      "outputs": [
        {
          "internalType": "bool",
          "name": "",
          "type": "bool"
        }
      ],
      "stateMutability": "view",
      "type": "function"
    },
    {
      "inputs": [
        {
          "internalType": "address",
          "name": "target",
          "type": "address"
        },
        {
          "internalType": "uint256",
          "name": "value",
          "type": "uint256"
        },
        {
          "internalType": "bytes",
          "name": "data",
          "type": "bytes"
        },
        {
          "internalType": "bytes32",
          "name": "predecessor",
          "type": "bytes32"
        },
        {
          "internalType": "bytes32",
          "name": "salt",
          "type": "bytes32"
        }
      ],
      "name": "hashOperation",
      "outputs": [
        {
          "internalType": "bytes32",
          "name": "",
          "type": "bytes32"
        }
      ],
      "stateMutability": "pure",
      "type": "function"
    },
    {
      "inputs": [
        {
          "internalType": "address[]",
          "name": "targets",
          "type": "address[]"
        },
        {
          "internalType": "uint256[]",
          "name": "values",
          "type": "uint256[]"
        },
        {
          "internalType": "bytes[]",
          "name": "payloads",
          "type": "bytes[]"
        },
        {
          "internalType": "bytes32",
          "name": "predecessor",
          "type": "bytes32"
        },
        {
          "internalType": "bytes32",
          "name": "salt",
          "type": "bytes32"
        }
      ],
      "name": "hashOperationBatch",
      "outputs": [
        {
          "internalType": "bytes32",
          "name": "",
          "type": "bytes32"
        }
      ],
      "stateMutability": "pure",
      "type": "function"
    },
    {
      "inputs": [
        {
          "internalType": "bytes32",
          "name": "id",
          "type": "bytes32"
        }
      ],
      "name": "isOperation",
      "outputs": [
        {
          "internalType": "bool",
          "name": "",
          "type": "bool"
        }
      ],
      "stateMutability": "view",
      "type": "function"
    },
    {
      "inputs": [
        {
          "internalType": "bytes32",
          "name": "id",
          "type": "bytes32"
        }
      ],
      "name": "isOperationDone",
      "outputs": [
        {
          "internalType": "bool",
          "name": "",
          "type": "bool"
        }
      ],
      "stateMutability": "view",
      "type": "function"
    },
    {
      "inputs": [
        {
          "internalType": "bytes32",
          "name": "id",
          "type": "bytes32"
        }
      ],
      "name": "isOperationPending",
      "outputs": [
        {
          "internalType": "bool",
          "name": "",
          "type": "bool"
        }
      ],
      "stateMutability": "view",
      "type": "function"
    },
    {
      "inputs": [
        {
          "internalType": "bytes32",
          "name": "id",
          "type": "bytes32"
        }
      ],
      "name": "isOperationReady",
      "outputs": [
        {
          "internalType": "bool",
          "name": "",
          "type": "bool"
        }
      ],
      "stateMutability": "view",
      "type": "function"
    },
    {
      "inputs": [
        {
          "internalType": "address",
          "name": "",
          "type": "address"
        },
        {
          "internalType": "address",
          "name": "",
          "type": "address"
        },
        {
          "internalType": "uint256[]",
          "name": "",
          "type": "uint256[]"
        },
        {
          "internalType": "uint256[]",
          "name": "",
          "type": "uint256[]"
        },
        {
          "internalType": "bytes",
          "name": "",
          "type": "bytes"
        }
      ],
      "name": "onERC1155BatchReceived",
      "outputs": [
        {
          "internalType": "bytes4",
          "name": "",
          "type": "bytes4"
        }
      ],
      "stateMutability": "nonpayable",
      "type": "function"
    },
    {
      "inputs": [
        {
          "internalType": "address",
          "name": "",
          "type": "address"
        },
        {
          "internalType": "address",
          "name": "",
          "type": "address"
        },
        {
          "internalType": "uint256",
          "name": "",
          "type": "uint256"
        },
        {
          "internalType": "uint256",
          "name": "",
          "type": "uint256"
        },
        {
          "internalType": "bytes",
          "name": "",
          "type": "bytes"
        }
      ],
      "name": "onERC1155Received",
      "outputs": [
        {
          "internalType": "bytes4",
          "name": "",
          "type": "bytes4"
        }
      ],
      "stateMutability": "nonpayable",
      "type": "function"
    },
    {
      "inputs": [
        {
          "internalType": "address",
          "name": "",
          "type": "address"
        },
        {
          "internalType": "address",
          "name": "",
          "type": "address"
        },
        {
          "internalType": "uint256",
          "name": "",
          "type": "uint256"
        },
        {
          "internalType": "bytes",
          "name": "",
          "type": "bytes"
        }
      ],
      "name": "onERC721Received",
      "outputs": [
        {
          "internalType": "bytes4",
          "name": "",
          "type": "bytes4"
        }
      ],
      "stateMutability": "nonpayable",
      "type": "function"
    },
    {
      "inputs": [
        {
          "internalType": "bytes32",
          "name": "role",
          "type": "bytes32"
        },
        {
          "internalType": "address",
          "name": "callerConfirmation",
          "type": "address"
        }
      ],
      "name": "renounceRole",
      "outputs": [],
      "stateMutability": "nonpayable",
      "type": "function"
    },
    {
      "inputs": [
        {
          "internalType": "bytes32",
          "name": "role",
          "type": "bytes32"
        },
        {
          "internalType": "address",
          "name": "account",
          "type": "address"
        }
      ],
      "name": "revokeRole",
      "outputs": [],
      "stateMutability": "nonpayable",
      "type": "function"
    },
    {
      "inputs": [
        {
          "internalType": "address",
          "name": "target",
          "type": "address"
        },
        {
          "internalType": "uint256",
          "name": "value",
          "type": "uint256"
        },
        {
          "internalType": "bytes",
          "name": "data",
          "type": "bytes"
        },
        {
          "internalType": "bytes32",
          "name": "predecessor",
          "type": "bytes32"
        },
        {
          "internalType": "bytes32",
          "name": "salt",
          "type": "bytes32"
        },
        {
          "internalType": "uint256",
          "name": "delay",
          "type": "uint256"
        }
      ],
      "name": "schedule",
      "outputs": [],
      "stateMutability": "nonpayable",
      "type": "function"
    },
    {
      "inputs": [
        {
          "internalType": "address[]",
          "name": "targets",
          "type": "address[]"
        },
        {
          "internalType": "uint256[]",
          "name": "values",
          "type": "uint256[]"
        },
        {
          "internalType": "bytes[]",
          "name": "payloads",
          "type": "bytes[]"
        },
        {
          "internalType": "bytes32",
          "name": "predecessor",
          "type": "bytes32"
        },
        {
          "internalType": "bytes32",
          "name": "salt",
          "type": "bytes32"
        },
        {
          "internalType": "uint256",
          "name": "delay",
          "type": "uint256"
        }
      ],
      "name": "scheduleBatch",
      "outputs": [],
      "stateMutability": "nonpayable",
      "type": "function"
    },
    {
      "inputs": [
        {
          "internalType": "bytes4",
          "name": "interfaceId",
          "type": "bytes4"
        }
      ],
      "name": "supportsInterface",
      "outputs": [
        {
          "internalType": "bool",
          "name": "",
          "type": "bool"
        }
      ],
      "stateMutability": "view",
      "type": "function"
    },
    {
      "inputs": [
        {
          "internalType": "uint256",
          "name": "newDelay",
          "type": "uint256"
        }
      ],
      "name": "updateDelay",
      "outputs": [],
      "stateMutability": "nonpayable",
      "type": "function"
    },
    {
      "stateMutability": "payable",
      "type": "receive"
    }
  ],
  "bytecode": "0x60806040523480156200001157600080fd5b506040516200318a3803806200318a8339818101604052810190620000379190620005a1565b6200004c6000801b306200021560201b60201c565b600073ffffffffffffffffffffffffffffffffffffffff168173ffffffffffffffffffffffffffffffffffffffff16146200009757620000966000801b826200021560201b60201c565b5b60005b83518110156200015657620000f37fb09aa5aeb3702cfd50b6b62bc4532604938f21248a27a1d5ca736082b6819cc1858381518110620000df57620000de62000651565b5b60200260200101516200021560201b60201c565b620001427ffd643c72710c63c0180259aba6b2d05451e3591a24e58b62239378085726f7838583815181106200012e576200012d62000651565b5b60200260200101516200021560201b60201c565b806200014e90620006af565b90506200009a565b5060005b8251811015620001c757620001b37fd8aa0f3194971a2a116679f7c2090f6939c8d4e01a2a8d7e41d55e5351469e638483815181106200019f576200019e62000651565b5b60200260200101516200021560201b60201c565b80620001bf90620006af565b90506200015a565b50836002819055507f11c24f4ead16507c69ac467fbd5e4eed5fb5c699626d2cc6d66421df253886d5600085604051620002039291906200075a565b60405180910390a15050505062000787565b6200022782826200030660201b60201c565b6200030257600160008084815260200190815260200160002060000160008373ffffffffffffffffffffffffffffffffffffffff1673ffffffffffffffffffffffffffffffffffffffff16815260200190815260200160002060006101000a81548160ff021916908315150217905550620002a76200037060201b60201c565b73ffffffffffffffffffffffffffffffffffffffff168173ffffffffffffffffffffffffffffffffffffffff16837f2f8788117e7eff1d82e926ec794901d17c78024a50270940304540a733656f0d60405160405180910390a45b5050565b600080600084815260200190815260200160002060000160008373ffffffffffffffffffffffffffffffffffffffff1673ffffffffffffffffffffffffffffffffffffffff16815260200190815260200160002060009054906101000a900460ff16905092915050565b600033905090565b6000604051905090565b600080fd5b600080fd5b6000819050919050565b620003a1816200038c565b8114620003ad57600080fd5b50565b600081519050620003c18162000396565b92915050565b600080fd5b6000601f19601f8301169050919050565b7f4e487b7100000000000000000000000000000000000000000000000000000000600052604160045260246000fd5b6200041782620003cc565b810181811067ffffffffffffffff82111715620004395762000438620003dd565b5b80604052505050565b60006200044e62000378565b90506200045c82826200040c565b919050565b600067ffffffffffffffff8211156200047f576200047e620003dd565b5b602082029050602081019050919050565b600080fd5b600073ffffffffffffffffffffffffffffffffffffffff82169050919050565b6000620004c28262000495565b9050919050565b620004d481620004b5565b8114620004e057600080fd5b50565b600081519050620004f481620004c9565b92915050565b6000620005116200050b8462000461565b62000442565b9050808382526020820190506020840283018581111562000537576200053662000490565b5b835b818110156200056457806200054f8882620004e3565b84526020840193505060208101905062000539565b5050509392505050565b600082601f830112620005865762000585620003c7565b5b815162000598848260208601620004fa565b91505092915050565b60008060008060808587031215620005be57620005bd62000382565b5b6000620005ce87828801620003b0565b945050602085015167ffffffffffffffff811115620005f257620005f162000387565b5b62000600878288016200056e565b935050604085015167ffffffffffffffff81111562000624576200062362000387565b5b62000632878288016200056e565b92505060606200064587828801620004e3565b91505092959194509250565b7f4e487b7100000000000000000000000000000000000000000000000000000000600052603260045260246000fd5b7f4e487b7100000000000000000000000000000000000000000000000000000000600052601160045260246000fd5b6000620006bc826200038c565b91507fffffffffffffffffffffffffffffffffffffffffffffffffffffffffffffffff8203620006f157620006f062000680565b5b600182019050919050565b6000819050919050565b6000819050919050565b6000620007316200072b6200072584620006fc565b62000706565b6200038c565b9050919050565b620007438162000710565b82525050565b62000754816200038c565b82525050565b600060408201905062000771600083018562000738565b62000780602083018462000749565b9392505050565b6129f380620007976000396000f3fe6080604052600436106101a05760003560e01c80638065657f116100ec578063bc197c811161008a578063d547741f11610064578063d547741f14610646578063e38335e51461066f578063f23a6e611461068b578063f27a0c92146106c8576101a7565b8063bc197c81146105a3578063c4d252f5146105e0578063d45c443514610609576101a7565b806391d14854116100c657806391d14854146104d3578063a217fddf14610510578063b08e51c01461053b578063b1c5f42714610566576101a7565b80638065657f146104425780638f2a0bb01461047f5780638f61f4f5146104a8576101a7565b8063248a9ca31161015957806331d507501161013357806331d507501461037657806336568abe146103b3578063584b153e146103dc57806364d6235314610419576101a7565b8063248a9ca3146102d35780632ab0f529146103105780632f2ff15d1461034d576101a7565b806301d5062a146101ac57806301ffc9a7146101d557806307bd026514610212578063134008d31461023d57806313bc9f2014610259578063150b7a0214610296576101a7565b366101a757005b600080fd5b3480156101b857600080fd5b506101d360048036038101906101ce919061188c565b6106f3565b005b3480156101e157600080fd5b506101fc60048036038101906101f79190611993565b6107cb565b60405161020991906119db565b60405180910390f35b34801561021e57600080fd5b506102276107dd565b6040516102349190611a05565b60405180910390f35b61025760048036038101906102529190611a20565b610801565b005b34801561026557600080fd5b50610280600480360381019061027b9190611aba565b6108be565b60405161028d91906119db565b60405180910390f35b3480156102a257600080fd5b506102bd60048036038101906102b89190611c28565b6108e4565b6040516102ca9190611cba565b60405180910390f35b3480156102df57600080fd5b506102fa60048036038101906102f59190611aba565b6108f8565b6040516103079190611a05565b60405180910390f35b34801561031c57600080fd5b5061033760048036038101906103329190611aba565b610917565b60405161034491906119db565b60405180910390f35b34801561035957600080fd5b50610374600480360381019061036f9190611cd5565b61092c565b005b34801561038257600080fd5b5061039d60048036038101906103989190611aba565b61094d565b6040516103aa91906119db565b60405180910390f35b3480156103bf57600080fd5b506103da60048036038101906103d59190611cd5565b610961565b005b3480156103e857600080fd5b5061040360048036038101906103fe9190611aba565b6109db565b60405161041091906119db565b60405180910390f35b34801561042557600080fd5b50610440600480360381019061043b9190611d15565b6109f0565b005b34801561044e57600080fd5b5061046960048036038101906104649190611a20565b610aa5565b6040516104769190611a05565b60405180910390f35b34801561048b57600080fd5b506104a660048036038101906104a19190611e44565b610ae4565b005b3480156104b457600080fd5b506104bd610cac565b6040516104ca9190611a05565b60405180910390f35b3480156104df57600080fd5b506104fa60048036038101906104f59190611cd5565b610cd0565b60405161050791906119db565b60405180910390f35b34801561051c57600080fd5b50610525610d3a565b6040516105329190611a05565b60405180910390f35b34801561054757600080fd5b50610550610d41565b60405161055d9190611a05565b60405180910390f35b34801561057257600080fd5b5061058d60048036038101906105889190611f33565b610d65565b60405161059a9190611a05565b60405180910390f35b3480156105af57600080fd5b506105ca60048036038101906105c591906120d2565b610daa565b6040516105d79190611cba565b60405180910390f35b3480156105ec57600080fd5b5061060760048036038101906106029190611aba565b610dbf565b005b34801561061557600080fd5b50610630600480360381019061062b9190611aba565b610e7e565b60405161063d91906121b0565b60405180910390f35b34801561065257600080fd5b5061066d60048036038101906106689190611cd5565b610e9b565b005b61068960048036038101906106849190611f33565b610ebc565b005b34801561069757600080fd5b506106b260048036038101906106ad91906121cb565b611080565b6040516106bf9190611cba565b60405180910390f35b3480156106d457600080fd5b506106dd611095565b6040516106ea91906121b0565b60405180910390f35b7fb09aa5aeb3702cfd50b6b62bc4532604938f21248a27a1d5ca736082b6819cc161071d8161109f565b600061072d898989898989610aa5565b905061073981846110b3565b6000817f4cf4410cc57040e44862ef0f45f3dd5a5e02db8eb8add648d4b0e236f1d07dca8b8b8b8b8b8a604051610775969594939291906122af565b60405180910390a36000801b84146107c057807f20fda5fd27a1ea7bf5b9567f143ac5470bb059374a27e8f67cb44f946f6d0387856040516107b79190611a05565b60405180910390a25b505050505050505050565b60006107d68261117c565b9050919050565b7fd8aa0f3194971a2a116679f7c2090f6939c8d4e01a2a8d7e41d55e5351469e6381565b7fd8aa0f3194971a2a116679f7c2090f6939c8d4e01a2a8d7e41d55e5351469e6361082d816000610cd0565b610843576108428161083d6111f6565b6111fe565b5b6000610853888888888888610aa5565b905061085f818561124f565b61086b888888886112fb565b6000817fc2617efa69bab66782fa219543714338489c4e9e178271560a91b82c3f612b588a8a8a8a6040516108a3949392919061230b565b60405180910390a36108b481611380565b5050505050505050565b6000806108ca83610e7e565b90506001811180156108dc5750428111155b915050919050565b600063150b7a0260e01b9050949350505050565b6000806000838152602001908152602001600020600101549050919050565b6000600161092483610e7e565b149050919050565b610935826108f8565b61093e8161109f565b61094883836113e8565b505050565b60008061095983610e7e565b119050919050565b6109696111f6565b73ffffffffffffffffffffffffffffffffffffffff168173ffffffffffffffffffffffffffffffffffffffff16146109cd576040517f6697b23200000000000000000000000000000000000000000000000000000000815260040160405180910390fd5b6109d782826114c8565b5050565b600060016109e883610e7e565b119050919050565b3073ffffffffffffffffffffffffffffffffffffffff163373ffffffffffffffffffffffffffffffffffffffff1614610a6057336040517fe2850c59000000000000000000000000000000000000000000000000000000008152600401610a57919061234b565b60405180910390fd5b7f11c24f4ead16507c69ac467fbd5e4eed5fb5c699626d2cc6d66421df253886d560025482604051610a93929190612366565b60405180910390a18060028190555050565b6000868686868686604051602001610ac29695949392919061238f565b6040516020818303038152906040528051906020012090509695505050505050565b7fb09aa5aeb3702cfd50b6b62bc4532604938f21248a27a1d5ca736082b6819cc1610b0e8161109f565b878790508a8a9050141580610b295750858590508a8a905014155b15610b78578989905086869050898990506040517fffb03211000000000000000000000000000000000000000000000000000000008152600401610b6f939291906123eb565b60405180910390fd5b6000610b8a8b8b8b8b8b8b8b8b610d65565b9050610b9681846110b3565b60005b8b8b9050811015610c5b5780827f4cf4410cc57040e44862ef0f45f3dd5a5e02db8eb8add648d4b0e236f1d07dca8e8e85818110610bda57610bd9612422565b5b9050602002016020810190610bef9190612451565b8d8d86818110610c0257610c01612422565b5b905060200201358c8c87818110610c1c57610c1b612422565b5b9050602002810190610c2e919061248d565b8c8b604051610c42969594939291906122af565b60405180910390a380610c549061251f565b9050610b99565b506000801b8414610c9f57807f20fda5fd27a1ea7bf5b9567f143ac5470bb059374a27e8f67cb44f946f6d038785604051610c969190611a05565b60405180910390a25b5050505050505050505050565b7fb09aa5aeb3702cfd50b6b62bc4532604938f21248a27a1d5ca736082b6819cc181565b600080600084815260200190815260200160002060000160008373ffffffffffffffffffffffffffffffffffffffff1673ffffffffffffffffffffffffffffffffffffffff16815260200190815260200160002060009054906101000a900460ff16905092915050565b6000801b81565b7ffd643c72710c63c0180259aba6b2d05451e3591a24e58b62239378085726f78381565b60008888888888888888604051602001610d86989796959493929190612809565b60405160208183030381529060405280519060200120905098975050505050505050565b600063bc197c8160e01b905095945050505050565b7ffd643c72710c63c0180259aba6b2d05451e3591a24e58b62239378085726f783610de98161109f565b610df2826109db565b610e36578160016040517f8141f35e000000000000000000000000000000000000000000000000000000008152600401610e2d9291906128ee565b60405180910390fd5b6001600083815260200190815260200160002060009055817fbaa1eb22f2a492ba1a5fea61b8df4d27c6c8b5f3971e63bb58fa14ff72eedb7060405160405180910390a25050565b600060016000838152602001908152602001600020549050919050565b610ea4826108f8565b610ead8161109f565b610eb783836114c8565b505050565b7fd8aa0f3194971a2a116679f7c2090f6939c8d4e01a2a8d7e41d55e5351469e63610ee8816000610cd0565b610efe57610efd81610ef86111f6565b6111fe565b5b8686905089899050141580610f195750848490508989905014155b15610f68578888905085859050888890506040517fffb03211000000000000000000000000000000000000000000000000000000008152600401610f5f939291906123eb565b60405180910390fd5b6000610f7a8a8a8a8a8a8a8a8a610d65565b9050610f86818561124f565b60005b8a8a905081101561106a5760008b8b83818110610fa957610fa8612422565b5b9050602002016020810190610fbe9190612451565b905060008a8a84818110610fd557610fd4612422565b5b9050602002013590503660008a8a86818110610ff457610ff3612422565b5b9050602002810190611006919061248d565b91509150611016848484846112fb565b84867fc2617efa69bab66782fa219543714338489c4e9e178271560a91b82c3f612b588686868660405161104d949392919061230b565b60405180910390a350505050806110639061251f565b9050610f89565b5061107481611380565b50505050505050505050565b600063f23a6e6160e01b905095945050505050565b6000600254905090565b6110b0816110ab6111f6565b6111fe565b50565b6110bc8261094d565b15611101578160006040517f8141f35e0000000000000000000000000000000000000000000000000000000081526004016110f89291906128ee565b60405180910390fd5b600061110b611095565b9050808210156111545781816040517f5433660900000000000000000000000000000000000000000000000000000000815260040161114b929190612366565b60405180910390fd5b81426111609190612917565b6001600085815260200190815260200160002081905550505050565b60007f4e2312e0000000000000000000000000000000000000000000000000000000007bffffffffffffffffffffffffffffffffffffffffffffffffffffffff1916827bffffffffffffffffffffffffffffffffffffffffffffffffffffffff191614806111ef57506111ee826115a9565b5b9050919050565b600033905090565b6112088282610cd0565b61124b5780826040517fe2517d3f00000000000000000000000000000000000000000000000000000000815260040161124292919061294b565b60405180910390fd5b5050565b611258826108be565b61129c578160026040517f8141f35e0000000000000000000000000000000000000000000000000000000081526004016112939291906128ee565b60405180910390fd5b6000801b81141580156112b557506112b381610917565b155b156112f757806040517f90a9a6180000000000000000000000000000000000000000000000000000000081526004016112ee9190611a05565b60405180910390fd5b5050565b6000808573ffffffffffffffffffffffffffffffffffffffff168585856040516113269291906129a4565b60006040518083038185875af1925050503d8060008114611363576040519150601f19603f3d011682016040523d82523d6000602084013e611368565b606091505b50915091506113778282611623565b50505050505050565b611389816108be565b6113cd578060026040517f8141f35e0000000000000000000000000000000000000000000000000000000081526004016113c49291906128ee565b60405180910390fd5b60018060008381526020019081526020016000208190555050565b6113f28282610cd0565b6114c457600160008084815260200190815260200160002060000160008373ffffffffffffffffffffffffffffffffffffffff1673ffffffffffffffffffffffffffffffffffffffff16815260200190815260200160002060006101000a81548160ff0219169083151502179055506114696111f6565b73ffffffffffffffffffffffffffffffffffffffff168173ffffffffffffffffffffffffffffffffffffffff16837f2f8788117e7eff1d82e926ec794901d17c78024a50270940304540a733656f0d60405160405180910390a45b5050565b6114d28282610cd0565b156115a557600080600084815260200190815260200160002060000160008373ffffffffffffffffffffffffffffffffffffffff1673ffffffffffffffffffffffffffffffffffffffff16815260200190815260200160002060006101000a81548160ff02191690831515021790555061154a6111f6565b73ffffffffffffffffffffffffffffffffffffffff168173ffffffffffffffffffffffffffffffffffffffff16837ff6391f5c32d9c69d2a47ea670b442974b53935d1edc7fd64eb21e047a839171b60405160405180910390a45b5050565b60007f7965db0b000000000000000000000000000000000000000000000000000000007bffffffffffffffffffffffffffffffffffffffffffffffffffffffff1916827bffffffffffffffffffffffffffffffffffffffffffffffffffffffff1916148061161c575061161b8261163a565b5b9050919050565b606061163283836116a46116d6565b905092915050565b60007f01ffc9a7000000000000000000000000000000000000000000000000000000007bffffffffffffffffffffffffffffffffffffffffffffffffffffffff1916827bffffffffffffffffffffffffffffffffffffffffffffffffffffffff1916149050919050565b6040517f1425ea4200000000000000000000000000000000000000000000000000000000815260040160405180910390fd5b606083156116e6578290506116f1565b6116f083836116f8565b5b9392505050565b60008251111561170b5781518083602001fd5b6117178163ffffffff16565b6040517f1425ea4200000000000000000000000000000000000000000000000000000000815260040160405180910390fd5b6000604051905090565b600080fd5b600080fd5b600073ffffffffffffffffffffffffffffffffffffffff82169050919050565b60006117888261175d565b9050919050565b6117988161177d565b81146117a357600080fd5b50565b6000813590506117b58161178f565b92915050565b6000819050919050565b6117ce816117bb565b81146117d957600080fd5b50565b6000813590506117eb816117c5565b92915050565b600080fd5b600080fd5b600080fd5b60008083601f840112611816576118156117f1565b5b8235905067ffffffffffffffff811115611833576118326117f6565b5b60208301915083600182028301111561184f5761184e6117fb565b5b9250929050565b6000819050919050565b61186981611856565b811461187457600080fd5b50565b60008135905061188681611860565b92915050565b600080600080600080600060c0888a0312156118ab576118aa611753565b5b60006118b98a828b016117a6565b97505060206118ca8a828b016117dc565b965050604088013567ffffffffffffffff8111156118eb576118ea611758565b5b6118f78a828b01611800565b9550955050606061190a8a828b01611877565b935050608061191b8a828b01611877565b92505060a061192c8a828b016117dc565b91505092959891949750929550565b60007fffffffff0000000000000000000000000000000000000000000000000000000082169050919050565b6119708161193b565b811461197b57600080fd5b50565b60008135905061198d81611967565b92915050565b6000602082840312156119a9576119a8611753565b5b60006119b78482850161197e565b91505092915050565b60008115159050919050565b6119d5816119c0565b82525050565b60006020820190506119f060008301846119cc565b92915050565b6119ff81611856565b82525050565b6000602082019050611a1a60008301846119f6565b92915050565b60008060008060008060a08789031215611a3d57611a3c611753565b5b6000611a4b89828a016117a6565b9650506020611a5c89828a016117dc565b955050604087013567ffffffffffffffff811115611a7d57611a7c611758565b5b611a8989828a01611800565b94509450506060611a9c89828a01611877565b9250506080611aad89828a01611877565b9150509295509295509295565b600060208284031215611ad057611acf611753565b5b6000611ade84828501611877565b91505092915050565b600080fd5b6000601f19601f8301169050919050565b7f4e487b7100000000000000000000000000000000000000000000000000000000600052604160045260246000fd5b611b3582611aec565b810181811067ffffffffffffffff82111715611b5457611b53611afd565b5b80604052505050565b6000611b67611749565b9050611b738282611b2c565b919050565b600067ffffffffffffffff821115611b9357611b92611afd565b5b611b9c82611aec565b9050602081019050919050565b82818337600083830152505050565b6000611bcb611bc684611b78565b611b5d565b905082815260208101848484011115611be757611be6611ae7565b5b611bf2848285611ba9565b509392505050565b600082601f830112611c0f57611c0e6117f1565b5b8135611c1f848260208601611bb8565b91505092915050565b60008060008060808587031215611c4257611c41611753565b5b6000611c50878288016117a6565b9450506020611c61878288016117a6565b9350506040611c72878288016117dc565b925050606085013567ffffffffffffffff811115611c9357611c92611758565b5b611c9f87828801611bfa565b91505092959194509250565b611cb48161193b565b82525050565b6000602082019050611ccf6000830184611cab565b92915050565b60008060408385031215611cec57611ceb611753565b5b6000611cfa85828601611877565b9250506020611d0b858286016117a6565b9150509250929050565b600060208284031215611d2b57611d2a611753565b5b6000611d39848285016117dc565b91505092915050565b60008083601f840112611d5857611d576117f1565b5b8235905067ffffffffffffffff811115611d7557611d746117f6565b5b602083019150836020820283011115611d9157611d906117fb565b5b9250929050565b60008083601f840112611dae57611dad6117f1565b5b8235905067ffffffffffffffff811115611dcb57611dca6117f6565b5b602083019150836020820283011115611de757611de66117fb565b5b9250929050565b60008083601f840112611e0457611e036117f1565b5b8235905067ffffffffffffffff811115611e2157611e206117f6565b5b602083019150836020820283011115611e3d57611e3c6117fb565b5b9250929050565b600080600080600080600080600060c08a8c031215611e6657611e65611753565b5b60008a013567ffffffffffffffff811115611e8457611e83611758565b5b611e908c828d01611d42565b995099505060208a013567ffffffffffffffff811115611eb357611eb2611758565b5b611ebf8c828d01611d98565b975097505060408a013567ffffffffffffffff811115611ee257611ee1611758565b5b611eee8c828d01611dee565b95509550506060611f018c828d01611877565b9350506080611f128c828d01611877565b92505060a0611f238c828d016117dc565b9150509295985092959850929598565b60008060008060008060008060a0898b031215611f5357611f52611753565b5b600089013567ffffffffffffffff811115611f7157611f70611758565b5b611f7d8b828c01611d42565b9850985050602089013567ffffffffffffffff811115611fa057611f9f611758565b5b611fac8b828c01611d98565b9650965050604089013567ffffffffffffffff811115611fcf57611fce611758565b5b611fdb8b828c01611dee565b94509450506060611fee8b828c01611877565b9250506080611fff8b828c01611877565b9150509295985092959890939650565b600067ffffffffffffffff82111561202a57612029611afd565b5b602082029050602081019050919050565b600061204e6120498461200f565b611b5d565b90508083825260208201905060208402830185811115612071576120706117fb565b5b835b8181101561209a578061208688826117dc565b845260208401935050602081019050612073565b5050509392505050565b600082601f8301126120b9576120b86117f1565b5b81356120c984826020860161203b565b91505092915050565b600080600080600060a086880312156120ee576120ed611753565b5b60006120fc888289016117a6565b955050602061210d888289016117a6565b945050604086013567ffffffffffffffff81111561212e5761212d611758565b5b61213a888289016120a4565b935050606086013567ffffffffffffffff81111561215b5761215a611758565b5b612167888289016120a4565b925050608086013567ffffffffffffffff81111561218857612187611758565b5b61219488828901611bfa565b9150509295509295909350565b6121aa816117bb565b82525050565b60006020820190506121c560008301846121a1565b92915050565b600080600080600060a086880312156121e7576121e6611753565b5b60006121f5888289016117a6565b9550506020612206888289016117a6565b9450506040612217888289016117dc565b9350506060612228888289016117dc565b925050608086013567ffffffffffffffff81111561224957612248611758565b5b61225588828901611bfa565b9150509295509295909350565b61226b8161177d565b82525050565b600082825260208201905092915050565b600061228e8385612271565b935061229b838584611ba9565b6122a483611aec565b840190509392505050565b600060a0820190506122c46000830189612262565b6122d160208301886121a1565b81810360408301526122e4818688612282565b90506122f360608301856119f6565b61230060808301846121a1565b979650505050505050565b60006060820190506123206000830187612262565b61232d60208301866121a1565b8181036040830152612340818486612282565b905095945050505050565b60006020820190506123606000830184612262565b92915050565b600060408201905061237b60008301856121a1565b61238860208301846121a1565b9392505050565b600060a0820190506123a46000830189612262565b6123b160208301886121a1565b81810360408301526123c4818688612282565b90506123d360608301856119f6565b6123e060808301846119f6565b979650505050505050565b600060608201905061240060008301866121a1565b61240d60208301856121a1565b61241a60408301846121a1565b949350505050565b7f4e487b7100000000000000000000000000000000000000000000000000000000600052603260045260246000fd5b60006020828403121561246757612466611753565b5b6000612475848285016117a6565b91505092915050565b600080fd5b600080fd5b600080fd5b600080833560016020038436030381126124aa576124a961247e565b5b80840192508235915067ffffffffffffffff8211156124cc576124cb612483565b5b6020830192506001820236038313156124e8576124e7612488565b5b509250929050565b7f4e487b7100000000000000000000000000000000000000000000000000000000600052601160045260246000fd5b600061252a826117bb565b91507fffffffffffffffffffffffffffffffffffffffffffffffffffffffffffffffff820361255c5761255b6124f0565b5b600182019050919050565b600082825260208201905092915050565b6000819050919050565b61258b8161177d565b82525050565b600061259d8383612582565b60208301905092915050565b60006125b860208401846117a6565b905092915050565b6000602082019050919050565b60006125d98385612567565b93506125e482612578565b8060005b8581101561261d576125fa82846125a9565b6126048882612591565b975061260f836125c0565b9250506001810190506125e8565b5085925050509392505050565b600082825260208201905092915050565b600080fd5b82818337505050565b6000612655838561262a565b93507f07ffffffffffffffffffffffffffffffffffffffffffffffffffffffffffffff8311156126885761268761263b565b5b602083029250612699838584612640565b82840190509392505050565b600082825260208201905092915050565b6000819050919050565b600082825260208201905092915050565b60006126dd83856126c0565b93506126ea838584611ba9565b6126f383611aec565b840190509392505050565b600061270b8484846126d1565b90509392505050565b600080fd5b600080fd5b600080fd5b600080833560016020038436030381126127405761273f61271e565b5b83810192508235915060208301925067ffffffffffffffff82111561276857612767612714565b5b60018202360383131561277e5761277d612719565b5b509250929050565b6000602082019050919050565b600061279f83856126a5565b9350836020840285016127b1846126b6565b8060005b878110156127f75784840389526127cc8284612723565b6127d78682846126fe565b95506127e284612786565b935060208b019a5050506001810190506127b5565b50829750879450505050509392505050565b600060a0820190508181036000830152612824818a8c6125cd565b9050818103602083015261283981888a612649565b9050818103604083015261284e818688612793565b905061285d60608301856119f6565b61286a60808301846119f6565b9998505050505050505050565b7f4e487b7100000000000000000000000000000000000000000000000000000000600052602160045260246000fd5b600481106128b7576128b6612877565b5b50565b60008190506128c8826128a6565b919050565b60006128d8826128ba565b9050919050565b6128e8816128cd565b82525050565b600060408201905061290360008301856119f6565b61291060208301846128df565b9392505050565b6000612922826117bb565b915061292d836117bb565b9250828201905080821115612945576129446124f0565b5b92915050565b60006040820190506129606000830185612262565b61296d60208301846119f6565b9392505050565b600081905092915050565b600061298b8385612974565b9350612998838584611ba9565b82840190509392505050565b60006129b182848661297f565b9150819050939250505056fea26469706673582212207818e4bfb615d621ee56c33f2ec4ba7ce932f953a7532aeed5bb22918fb6e4d064736f6c63430008140033",
  "linkReferences": {},
  "deployedLinkReferences": {}
}