{
  "_format": "hh-sol-artifact-1",
  "contractName": "VestingWallet",
  "sourceName": "contracts/contracts/finance/VestingWallet.sol",
  "abi": [
    {
      "inputs": [
        {
          "internalType": "address",
          "name": "beneficiaryAddress",
          "type": "address"
        },
        {
          "internalType": "uint64",
          "name": "startTimestamp",
          "type": "uint64"
        },
        {
          "internalType": "uint64",
          "name": "durationSeconds",
          "type": "uint64"
        }
      ],
      "stateMutability": "payable",
      "type": "constructor"
    },
    {
      "inputs": [
        {
          "internalType": "address",
          "name": "target",
          "type": "address"
        }
      ],
      "name": "AddressEmptyCode",
      "type": "error"
    },
    {
      "inputs": [
        {
          "internalType": "address",
          "name": "account",
          "type": "address"
        }
      ],
      "name": "AddressInsufficientBalance",
      "type": "error"
    },
    {
      "inputs": [],
      "name": "FailedInnerCall",
      "type": "error"
    },
    {
      "inputs": [
        {
          "internalType": "address",
          "name": "token",
          "type": "address"
        }
      ],
      "name": "SafeERC20FailedOperation",
      "type": "error"
    },
    {
      "inputs": [
        {
          "internalType": "address",
          "name": "beneficiary",
          "type": "address"
        }
      ],
      "name": "VestingWalletInvalidBeneficiary",
      "type": "error"
    },
    {
      "anonymous": false,
      "inputs": [
        {
          "indexed": true,
          "internalType": "address",
          "name": "token",
          "type": "address"
        },
        {
          "indexed": false,
          "internalType": "uint256",
          "name": "amount",
          "type": "uint256"
        }
      ],
      "name": "ERC20Released",
      "type": "event"
    },
    {
      "anonymous": false,
      "inputs": [
        {
          "indexed": false,
          "internalType": "uint256",
          "name": "amount",
          "type": "uint256"
        }
      ],
      "name": "EtherReleased",
      "type": "event"
    },
    {
      "inputs": [],
      "name": "beneficiary",
      "outputs": [
        {
          "internalType": "address",
          "name": "",
          "type": "address"
        }
      ],
      "stateMutability": "view",
      "type": "function"
    },
    {
      "inputs": [],
      "name": "duration",
      "outputs": [
        {
          "internalType": "uint256",
          "name": "",
          "type": "uint256"
        }
      ],
      "stateMutability": "view",
      "type": "function"
    },
    {
      "inputs": [],
      "name": "end",
      "outputs": [
        {
          "internalType": "uint256",
          "name": "",
          "type": "uint256"
        }
      ],
      "stateMutability": "view",
      "type": "function"
    },
    {
      "inputs": [
        {
          "internalType": "address",
          "name": "token",
          "type": "address"
        }
      ],
      "name": "releasable",
      "outputs": [
        {
          "internalType": "uint256",
          "name": "",
          "type": "uint256"
        }
      ],
      "stateMutability": "view",
      "type": "function"
    },
    {
      "inputs": [],
      "name": "releasable",
      "outputs": [
        {
          "internalType": "uint256",
          "name": "",
          "type": "uint256"
        }
      ],
      "stateMutability": "view",
      "type": "function"
    },
    {
      "inputs": [
        {
          "internalType": "address",
          "name": "token",
          "type": "address"
        }
      ],
      "name": "release",
      "outputs": [],
      "stateMutability": "nonpayable",
      "type": "function"
    },
    {
      "inputs": [],
      "name": "release",
      "outputs": [],
      "stateMutability": "nonpayable",
      "type": "function"
    },
    {
      "inputs": [],
      "name": "released",
      "outputs": [
        {
          "internalType": "uint256",
          "name": "",
          "type": "uint256"
        }
      ],
      "stateMutability": "view",
      "type": "function"
    },
    {
      "inputs": [
        {
          "internalType": "address",
          "name": "token",
          "type": "address"
        }
      ],
      "name": "released",
      "outputs": [
        {
          "internalType": "uint256",
          "name": "",
          "type": "uint256"
        }
      ],
      "stateMutability": "view",
      "type": "function"
    },
    {
      "inputs": [],
      "name": "start",
      "outputs": [
        {
          "internalType": "uint256",
          "name": "",
          "type": "uint256"
        }
      ],
      "stateMutability": "view",
      "type": "function"
    },
    {
      "inputs": [
        {
          "internalType": "uint64",
          "name": "timestamp",
          "type": "uint64"
        }
      ],
      "name": "vestedAmount",
      "outputs": [
        {
          "internalType": "uint256",
          "name": "",
          "type": "uint256"
        }
      ],
      "stateMutability": "view",
      "type": "function"
    },
    {
      "inputs": [
        {
          "internalType": "address",
          "name": "token",
          "type": "address"
        },
        {
          "internalType": "uint64",
          "name": "timestamp",
          "type": "uint64"
        }
      ],
      "name": "vestedAmount",
      "outputs": [
        {
          "internalType": "uint256",
          "name": "",
          "type": "uint256"
        }
      ],
      "stateMutability": "view",
      "type": "function"
    },
    {
      "stateMutability": "payable",
      "type": "receive"
    }
  ],
  "bytecode": "0x60e0604052604051620011de380380620011de8339818101604052810190620000299190620001c2565b600073ffffffffffffffffffffffffffffffffffffffff168373ffffffffffffffffffffffffffffffffffffffff16036200009e5760006040517f1cad2e730000000000000000000000000000000000000000000000000000000081526004016200009591906200022f565b60405180910390fd5b8273ffffffffffffffffffffffffffffffffffffffff1660808173ffffffffffffffffffffffffffffffffffffffff16815250508167ffffffffffffffff1660a08167ffffffffffffffff16815250508067ffffffffffffffff1660c08167ffffffffffffffff16815250505050506200024c565b600080fd5b600073ffffffffffffffffffffffffffffffffffffffff82169050919050565b6000620001458262000118565b9050919050565b620001578162000138565b81146200016357600080fd5b50565b60008151905062000177816200014c565b92915050565b600067ffffffffffffffff82169050919050565b6200019c816200017d565b8114620001a857600080fd5b50565b600081519050620001bc8162000191565b92915050565b600080600060608486031215620001de57620001dd62000113565b5b6000620001ee8682870162000166565b93505060206200020186828701620001ab565b92505060406200021486828701620001ab565b9150509250925092565b620002298162000138565b82525050565b60006020820190506200024660008301846200021e565b92915050565b60805160a05160c051610f626200027c6000396000610316015260006105be0152600061040f0152610f626000f3fe6080604052600436106100ab5760003560e01c8063961325211161006457806396132521146101c75780639852595c146101f2578063a3f8eace1461022f578063be9a65551461026c578063efbe1c1c14610297578063fbccedae146102c2576100b2565b80630a17b06b146100b75780630fb5a6b4146100f4578063191655871461011f57806338af3eed14610148578063810ec23b1461017357806386d1a69f146101b0576100b2565b366100b257005b600080fd5b3480156100c357600080fd5b506100de60048036038101906100d99190610af3565b6102ed565b6040516100eb9190610b39565b60405180910390f35b34801561010057600080fd5b50610109610312565b6040516101169190610b39565b60405180910390f35b34801561012b57600080fd5b5061014660048036038101906101419190610bb2565b610344565b005b34801561015457600080fd5b5061015d61040b565b60405161016a9190610bee565b60405180910390f35b34801561017f57600080fd5b5061019a60048036038101906101959190610c09565b610433565b6040516101a79190610b39565b60405180910390f35b3480156101bc57600080fd5b506101c56104d3565b005b3480156101d357600080fd5b506101dc610542565b6040516101e99190610b39565b60405180910390f35b3480156101fe57600080fd5b5061021960048036038101906102149190610bb2565b61054b565b6040516102269190610b39565b60405180910390f35b34801561023b57600080fd5b5061025660048036038101906102519190610bb2565b610594565b6040516102639190610b39565b60405180910390f35b34801561027857600080fd5b506102816105ba565b60405161028e9190610b39565b60405180910390f35b3480156102a357600080fd5b506102ac6105ec565b6040516102b99190610b39565b60405180910390f35b3480156102ce57600080fd5b506102d761060d565b6040516102e49190610b39565b60405180910390f35b600061030b6102fa610542565b476103059190610c78565b8361062f565b9050919050565b60007f000000000000000000000000000000000000000000000000000000000000000067ffffffffffffffff16905090565b600061034f82610594565b905080600160008473ffffffffffffffffffffffffffffffffffffffff1673ffffffffffffffffffffffffffffffffffffffff16815260200190815260200160002060008282546103a09190610c78565b925050819055508173ffffffffffffffffffffffffffffffffffffffff167fc0e523490dd523c33b1878c9eb14ff46991e3f5b2cd33710918618f2a39cba1b826040516103ed9190610b39565b60405180910390a26104078261040161040b565b836106b7565b5050565b60007f0000000000000000000000000000000000000000000000000000000000000000905090565b60006104cb6104418461054b565b8473ffffffffffffffffffffffffffffffffffffffff166370a08231306040518263ffffffff1660e01b815260040161047a9190610bee565b602060405180830381865afa158015610497573d6000803e3d6000fd5b505050506040513d601f19601f820116820180604052508101906104bb9190610cd8565b6104c59190610c78565b8361062f565b905092915050565b60006104dd61060d565b9050806000808282546104f09190610c78565b925050819055507fda9d4e5f101b8b9b1c5b76d0c5a9f7923571acfc02376aa076b75a8c080c956b816040516105269190610b39565b60405180910390a161053f61053961040b565b82610736565b50565b60008054905090565b6000600160008373ffffffffffffffffffffffffffffffffffffffff1673ffffffffffffffffffffffffffffffffffffffff168152602001908152602001600020549050919050565b600061059f8261054b565b6105a98342610433565b6105b39190610d05565b9050919050565b60007f000000000000000000000000000000000000000000000000000000000000000067ffffffffffffffff16905090565b60006105f6610312565b6105fe6105ba565b6106089190610c78565b905090565b6000610617610542565b610620426102ed565b61062a9190610d05565b905090565b60006106396105ba565b8267ffffffffffffffff16101561065357600090506106b1565b61065b6105ec565b8267ffffffffffffffff161115610674578290506106b1565b61067c610312565b6106846105ba565b8367ffffffffffffffff166106999190610d05565b846106a49190610d39565b6106ae9190610daa565b90505b92915050565b610731838473ffffffffffffffffffffffffffffffffffffffff1663a9059cbb85856040516024016106ea929190610ddb565b604051602081830303815290604052915060e01b6020820180517bffffffffffffffffffffffffffffffffffffffffffffffffffffffff8381831617835250505050610823565b505050565b8047101561077b57306040517fcd7860590000000000000000000000000000000000000000000000000000000081526004016107729190610bee565b60405180910390fd5b60008273ffffffffffffffffffffffffffffffffffffffff16826040516107a190610e35565b60006040518083038185875af1925050503d80600081146107de576040519150601f19603f3d011682016040523d82523d6000602084013e6107e3565b606091505b505090508061081e576040517f1425ea4200000000000000000000000000000000000000000000000000000000815260040160405180910390fd5b505050565b600061084e828473ffffffffffffffffffffffffffffffffffffffff166108ba90919063ffffffff16565b905060008151141580156108735750808060200190518101906108719190610e82565b155b156108b557826040517f5274afe70000000000000000000000000000000000000000000000000000000081526004016108ac9190610bee565b60405180910390fd5b505050565b60606108cb838360006108d3610905565b905092915050565b6040517f1425ea4200000000000000000000000000000000000000000000000000000000815260040160405180910390fd5b60608247101561094c57306040517fcd7860590000000000000000000000000000000000000000000000000000000081526004016109439190610bee565b60405180910390fd5b6000808673ffffffffffffffffffffffffffffffffffffffff1685876040516109759190610f15565b60006040518083038185875af1925050503d80600081146109b2576040519150601f19603f3d011682016040523d82523d6000602084013e6109b7565b606091505b50915091506109c8878383876109d4565b92505050949350505050565b60608315610a4a576000835103610a425760008573ffffffffffffffffffffffffffffffffffffffff163b03610a4157846040517f9996b315000000000000000000000000000000000000000000000000000000008152600401610a389190610bee565b60405180910390fd5b5b829050610a55565b610a548383610a5d565b5b949350505050565b600082511115610a705781518083602001fd5b610a7c8163ffffffff16565b6040517f1425ea4200000000000000000000000000000000000000000000000000000000815260040160405180910390fd5b600080fd5b600067ffffffffffffffff82169050919050565b610ad081610ab3565b8114610adb57600080fd5b50565b600081359050610aed81610ac7565b92915050565b600060208284031215610b0957610b08610aae565b5b6000610b1784828501610ade565b91505092915050565b6000819050919050565b610b3381610b20565b82525050565b6000602082019050610b4e6000830184610b2a565b92915050565b600073ffffffffffffffffffffffffffffffffffffffff82169050919050565b6000610b7f82610b54565b9050919050565b610b8f81610b74565b8114610b9a57600080fd5b50565b600081359050610bac81610b86565b92915050565b600060208284031215610bc857610bc7610aae565b5b6000610bd684828501610b9d565b91505092915050565b610be881610b74565b82525050565b6000602082019050610c036000830184610bdf565b92915050565b60008060408385031215610c2057610c1f610aae565b5b6000610c2e85828601610b9d565b9250506020610c3f85828601610ade565b9150509250929050565b7f4e487b7100000000000000000000000000000000000000000000000000000000600052601160045260246000fd5b6000610c8382610b20565b9150610c8e83610b20565b9250828201905080821115610ca657610ca5610c49565b5b92915050565b610cb581610b20565b8114610cc057600080fd5b50565b600081519050610cd281610cac565b92915050565b600060208284031215610cee57610ced610aae565b5b6000610cfc84828501610cc3565b91505092915050565b6000610d1082610b20565b9150610d1b83610b20565b9250828203905081811115610d3357610d32610c49565b5b92915050565b6000610d4482610b20565b9150610d4f83610b20565b9250828202610d5d81610b20565b91508282048414831517610d7457610d73610c49565b5b5092915050565b7f4e487b7100000000000000000000000000000000000000000000000000000000600052601260045260246000fd5b6000610db582610b20565b9150610dc083610b20565b925082610dd057610dcf610d7b565b5b828204905092915050565b6000604082019050610df06000830185610bdf565b610dfd6020830184610b2a565b9392505050565b600081905092915050565b50565b6000610e1f600083610e04565b9150610e2a82610e0f565b600082019050919050565b6000610e4082610e12565b9150819050919050565b60008115159050919050565b610e5f81610e4a565b8114610e6a57600080fd5b50565b600081519050610e7c81610e56565b92915050565b600060208284031215610e9857610e97610aae565b5b6000610ea684828501610e6d565b91505092915050565b600081519050919050565b60005b83811015610ed8578082015181840152602081019050610ebd565b60008484015250505050565b6000610eef82610eaf565b610ef98185610e04565b9350610f09818560208601610eba565b80840191505092915050565b6000610f218284610ee4565b91508190509291505056fea2646970667358221220dfe05a518eb1506b3486c7020a19725815d8d4e54171550d58d9976b079c99b364736f6c63430008140033",
  "linkReferences": {},
  "deployedLinkReferences": {}
}