{
  "_format": "hh-sol-artifact-1",
  "contractName": "Pyse_v1",
  "sourceName": "contracts/Pyse_v1.sol",
  "abi": [
    {
      "inputs": [
        {
          "internalType": "address",
          "name": "poolManagerAddress",
          "type": "address"
        },
        {
          "internalType": "uint256",
          "name": "totalPoolValue",
          "type": "uint256"
        },
        {
          "internalType": "uint256",
          "name": "rateOfReturn",
          "type": "uint256"
        },
        {
          "internalType": "uint256",
          "name": "startDate",
          "type": "uint256"
        },
        {
          "internalType": "uint256",
          "name": "endDate",
          "type": "uint256"
        },
        {
          "internalType": "uint256",
          "name": "minimum",
          "type": "uint256"
        }
      ],
      "stateMutability": "nonpayable",
      "type": "constructor"
    },
    {
      "inputs": [],
      "name": "AccessControlBadConfirmation",
      "type": "error"
    },
    {
      "inputs": [
        {
          "internalType": "address",
          "name": "account",
          "type": "address"
        },
        {
          "internalType": "bytes32",
          "name": "neededRole",
          "type": "bytes32"
        }
      ],
      "name": "AccessControlUnauthorizedAccount",
      "type": "error"
    },
    {
      "inputs": [
        {
          "internalType": "address",
          "name": "sender",
          "type": "address"
        },
        {
          "internalType": "uint256",
          "name": "tokenId",
          "type": "uint256"
        },
        {
          "internalType": "address",
          "name": "owner",
          "type": "address"
        }
      ],
      "name": "ERC721IncorrectOwner",
      "type": "error"
    },
    {
      "inputs": [
        {
          "internalType": "address",
          "name": "operator",
          "type": "address"
        },
        {
          "internalType": "uint256",
          "name": "tokenId",
          "type": "uint256"
        }
      ],
      "name": "ERC721InsufficientApproval",
      "type": "error"
    },
    {
      "inputs": [
        {
          "internalType": "address",
          "name": "approver",
          "type": "address"
        }
      ],
      "name": "ERC721InvalidApprover",
      "type": "error"
    },
    {
      "inputs": [
        {
          "internalType": "address",
          "name": "operator",
          "type": "address"
        }
      ],
      "name": "ERC721InvalidOperator",
      "type": "error"
    },
    {
      "inputs": [
        {
          "internalType": "address",
          "name": "owner",
          "type": "address"
        }
      ],
      "name": "ERC721InvalidOwner",
      "type": "error"
    },
    {
      "inputs": [
        {
          "internalType": "address",
          "name": "receiver",
          "type": "address"
        }
      ],
      "name": "ERC721InvalidReceiver",
      "type": "error"
    },
    {
      "inputs": [
        {
          "internalType": "address",
          "name": "sender",
          "type": "address"
        }
      ],
      "name": "ERC721InvalidSender",
      "type": "error"
    },
    {
      "inputs": [
        {
          "internalType": "uint256",
          "name": "tokenId",
          "type": "uint256"
        }
      ],
      "name": "ERC721NonexistentToken",
      "type": "error"
    },
    {
      "inputs": [],
      "name": "EnforcedPause",
      "type": "error"
    },
    {
      "inputs": [],
      "name": "ExpectedPause",
      "type": "error"
    },
    {
      "anonymous": false,
      "inputs": [
        {
          "indexed": true,
          "internalType": "address",
          "name": "owner",
          "type": "address"
        },
        {
          "indexed": true,
          "internalType": "address",
          "name": "approved",
          "type": "address"
        },
        {
          "indexed": true,
          "internalType": "uint256",
          "name": "tokenId",
          "type": "uint256"
        }
      ],
      "name": "Approval",
      "type": "event"
    },
    {
      "anonymous": false,
      "inputs": [
        {
          "indexed": true,
          "internalType": "address",
          "name": "owner",
          "type": "address"
        },
        {
          "indexed": true,
          "internalType": "address",
          "name": "operator",
          "type": "address"
        },
        {
          "indexed": false,
          "internalType": "bool",
          "name": "approved",
          "type": "bool"
        }
      ],
      "name": "ApprovalForAll",
      "type": "event"
    },
    {
      "anonymous": false,
      "inputs": [
        {
          "indexed": false,
          "internalType": "uint256",
          "name": "_fromTokenId",
          "type": "uint256"
        },
        {
          "indexed": false,
          "internalType": "uint256",
          "name": "_toTokenId",
          "type": "uint256"
        }
      ],
      "name": "BatchMetadataUpdate",
      "type": "event"
    },
    {
      "anonymous": false,
      "inputs": [
        {
          "indexed": false,
          "internalType": "uint256",
          "name": "_tokenId",
          "type": "uint256"
        }
      ],
      "name": "MetadataUpdate",
      "type": "event"
    },
    {
      "anonymous": false,
      "inputs": [
        {
          "indexed": false,
          "internalType": "address",
          "name": "account",
          "type": "address"
        }
      ],
      "name": "Paused",
      "type": "event"
    },
    {
      "anonymous": false,
      "inputs": [
        {
          "indexed": true,
          "internalType": "bytes32",
          "name": "role",
          "type": "bytes32"
        },
        {
          "indexed": true,
          "internalType": "bytes32",
          "name": "previousAdminRole",
          "type": "bytes32"
        },
        {
          "indexed": true,
          "internalType": "bytes32",
          "name": "newAdminRole",
          "type": "bytes32"
        }
      ],
      "name": "RoleAdminChanged",
      "type": "event"
    },
    {
      "anonymous": false,
      "inputs": [
        {
          "indexed": true,
          "internalType": "bytes32",
          "name": "role",
          "type": "bytes32"
        },
        {
          "indexed": true,
          "internalType": "address",
          "name": "account",
          "type": "address"
        },
        {
          "indexed": true,
          "internalType": "address",
          "name": "sender",
          "type": "address"
        }
      ],
      "name": "RoleGranted",
      "type": "event"
    },
    {
      "anonymous": false,
      "inputs": [
        {
          "indexed": true,
          "internalType": "bytes32",
          "name": "role",
          "type": "bytes32"
        },
        {
          "indexed": true,
          "internalType": "address",
          "name": "account",
          "type": "address"
        },
        {
          "indexed": true,
          "internalType": "address",
          "name": "sender",
          "type": "address"
        }
      ],
      "name": "RoleRevoked",
      "type": "event"
    },
    {
      "anonymous": false,
      "inputs": [
        {
          "indexed": true,
          "internalType": "address",
          "name": "from",
          "type": "address"
        },
        {
          "indexed": true,
          "internalType": "address",
          "name": "to",
          "type": "address"
        },
        {
          "indexed": true,
          "internalType": "uint256",
          "name": "tokenId",
          "type": "uint256"
        }
      ],
      "name": "Transfer",
      "type": "event"
    },
    {
      "anonymous": false,
      "inputs": [
        {
          "indexed": false,
          "internalType": "address",
          "name": "account",
          "type": "address"
        }
      ],
      "name": "Unpaused",
      "type": "event"
    },
    {
      "inputs": [],
      "name": "ADMIN_ROLE",
      "outputs": [
        {
          "internalType": "bytes32",
          "name": "",
          "type": "bytes32"
        }
      ],
      "stateMutability": "view",
      "type": "function"
    },
    {
      "inputs": [],
      "name": "DEFAULT_ADMIN_ROLE",
      "outputs": [
        {
          "internalType": "bytes32",
          "name": "",
          "type": "bytes32"
        }
      ],
      "stateMutability": "view",
      "type": "function"
    },
    {
      "inputs": [],
      "name": "POOL_MANAGER",
      "outputs": [
        {
          "internalType": "bytes32",
          "name": "",
          "type": "bytes32"
        }
      ],
      "stateMutability": "view",
      "type": "function"
    },
    {
      "inputs": [
        {
          "internalType": "address",
          "name": "to",
          "type": "address"
        },
        {
          "internalType": "uint256",
          "name": "tokenId",
          "type": "uint256"
        }
      ],
      "name": "approve",
      "outputs": [],
      "stateMutability": "nonpayable",
      "type": "function"
    },
    {
      "inputs": [
        {
          "internalType": "address",
          "name": "owner",
          "type": "address"
        }
      ],
      "name": "balanceOf",
      "outputs": [
        {
          "internalType": "uint256",
          "name": "",
          "type": "uint256"
        }
      ],
      "stateMutability": "view",
      "type": "function"
    },
    {
      "inputs": [
        {
          "internalType": "uint256",
          "name": "tokenId",
          "type": "uint256"
        }
      ],
      "name": "burn",
      "outputs": [],
      "stateMutability": "nonpayable",
      "type": "function"
    },
    {
      "inputs": [
        {
          "internalType": "address",
          "name": "newOwner",
          "type": "address"
        }
      ],
      "name": "claimPoolManager",
      "outputs": [],
      "stateMutability": "nonpayable",
      "type": "function"
    },
    {
      "inputs": [
        {
          "internalType": "uint256",
          "name": "tokenId",
          "type": "uint256"
        }
      ],
      "name": "getApproved",
      "outputs": [
        {
          "internalType": "address",
          "name": "",
          "type": "address"
        }
      ],
      "stateMutability": "view",
      "type": "function"
    },
    {
      "inputs": [
        {
          "internalType": "bytes32",
          "name": "role",
          "type": "bytes32"
        }
      ],
      "name": "getRoleAdmin",
      "outputs": [
        {
          "internalType": "bytes32",
          "name": "",
          "type": "bytes32"
        }
      ],
      "stateMutability": "view",
      "type": "function"
    },
    {
      "inputs": [
        {
          "internalType": "bytes32",
          "name": "role",
          "type": "bytes32"
        },
        {
          "internalType": "address",
          "name": "account",
          "type": "address"
        }
      ],
      "name": "grantRole",
      "outputs": [],
      "stateMutability": "nonpayable",
      "type": "function"
    },
    {
      "inputs": [
        {
          "internalType": "bytes32",
          "name": "role",
          "type": "bytes32"
        },
        {
          "internalType": "address",
          "name": "account",
          "type": "address"
        }
      ],
      "name": "hasRole",
      "outputs": [
        {
          "internalType": "bool",
          "name": "",
          "type": "bool"
        }
      ],
      "stateMutability": "view",
      "type": "function"
    },
    {
      "inputs": [
        {
          "internalType": "address",
          "name": "owner",
          "type": "address"
        },
        {
          "internalType": "address",
          "name": "operator",
          "type": "address"
        }
      ],
      "name": "isApprovedForAll",
      "outputs": [
        {
          "internalType": "bool",
          "name": "",
          "type": "bool"
        }
      ],
      "stateMutability": "view",
      "type": "function"
    },
    {
      "inputs": [],
      "name": "name",
      "outputs": [
        {
          "internalType": "string",
          "name": "",
          "type": "string"
        }
      ],
      "stateMutability": "view",
      "type": "function"
    },
    {
      "inputs": [
        {
          "internalType": "uint256",
          "name": "tokenId",
          "type": "uint256"
        }
      ],
      "name": "ownerOf",
      "outputs": [
        {
          "internalType": "address",
          "name": "",
          "type": "address"
        }
      ],
      "stateMutability": "view",
      "type": "function"
    },
    {
      "inputs": [],
      "name": "pause",
      "outputs": [],
      "stateMutability": "nonpayable",
      "type": "function"
    },
    {
      "inputs": [],
      "name": "paused",
      "outputs": [
        {
          "internalType": "bool",
          "name": "",
          "type": "bool"
        }
      ],
      "stateMutability": "view",
      "type": "function"
    },
    {
      "inputs": [
        {
          "internalType": "bytes32",
          "name": "role",
          "type": "bytes32"
        },
        {
          "internalType": "address",
          "name": "callerConfirmation",
          "type": "address"
        }
      ],
      "name": "renounceRole",
      "outputs": [],
      "stateMutability": "nonpayable",
      "type": "function"
    },
    {
      "inputs": [
        {
          "internalType": "address",
          "name": "compromisedAddress",
          "type": "address"
        }
      ],
      "name": "revokePoolManager",
      "outputs": [],
      "stateMutability": "nonpayable",
      "type": "function"
    },
    {
      "inputs": [
        {
          "internalType": "bytes32",
          "name": "role",
          "type": "bytes32"
        },
        {
          "internalType": "address",
          "name": "account",
          "type": "address"
        }
      ],
      "name": "revokeRole",
      "outputs": [],
      "stateMutability": "nonpayable",
      "type": "function"
    },
    {
      "inputs": [
        {
          "internalType": "address",
          "name": "to",
          "type": "address"
        },
        {
          "internalType": "uint256",
          "name": "tokenIdNew",
          "type": "uint256"
        },
        {
          "internalType": "string",
          "name": "uri",
          "type": "string"
        }
      ],
      "name": "safeMint",
      "outputs": [],
      "stateMutability": "nonpayable",
      "type": "function"
    },
    {
      "inputs": [
        {
          "internalType": "address",
          "name": "from",
          "type": "address"
        },
        {
          "internalType": "address",
          "name": "to",
          "type": "address"
        },
        {
          "internalType": "uint256",
          "name": "tokenId",
          "type": "uint256"
        }
      ],
      "name": "safeTransferFrom",
      "outputs": [],
      "stateMutability": "nonpayable",
      "type": "function"
    },
    {
      "inputs": [
        {
          "internalType": "address",
          "name": "from",
          "type": "address"
        },
        {
          "internalType": "address",
          "name": "to",
          "type": "address"
        },
        {
          "internalType": "uint256",
          "name": "tokenId",
          "type": "uint256"
        },
        {
          "internalType": "bytes",
          "name": "data",
          "type": "bytes"
        }
      ],
      "name": "safeTransferFrom",
      "outputs": [],
      "stateMutability": "nonpayable",
      "type": "function"
    },
    {
      "inputs": [
        {
          "internalType": "address",
          "name": "operator",
          "type": "address"
        },
        {
          "internalType": "bool",
          "name": "approved",
          "type": "bool"
        }
      ],
      "name": "setApprovalForAll",
      "outputs": [],
      "stateMutability": "nonpayable",
      "type": "function"
    },
    {
      "inputs": [
        {
          "internalType": "bytes4",
          "name": "interfaceId",
          "type": "bytes4"
        }
      ],
      "name": "supportsInterface",
      "outputs": [
        {
          "internalType": "bool",
          "name": "",
          "type": "bool"
        }
      ],
      "stateMutability": "view",
      "type": "function"
    },
    {
      "inputs": [],
      "name": "symbol",
      "outputs": [
        {
          "internalType": "string",
          "name": "",
          "type": "string"
        }
      ],
      "stateMutability": "view",
      "type": "function"
    },
    {
      "inputs": [
        {
          "internalType": "uint256",
          "name": "tokenIdNew",
          "type": "uint256"
        }
      ],
      "name": "tokenURI",
      "outputs": [
        {
          "internalType": "string",
          "name": "",
          "type": "string"
        }
      ],
      "stateMutability": "view",
      "type": "function"
    },
    {
      "inputs": [
        {
          "internalType": "address",
          "name": "from",
          "type": "address"
        },
        {
          "internalType": "address",
          "name": "to",
          "type": "address"
        },
        {
          "internalType": "uint256",
          "name": "tokenId",
          "type": "uint256"
        }
      ],
      "name": "transferFrom",
      "outputs": [],
      "stateMutability": "nonpayable",
      "type": "function"
    },
    {
      "inputs": [],
      "name": "unpause",
      "outputs": [],
      "stateMutability": "nonpayable",
      "type": "function"
    },
    {
      "inputs": [
        {
          "internalType": "uint256",
          "name": "newValue",
          "type": "uint256"
        }
      ],
      "name": "updateMinValue",
      "outputs": [],
      "stateMutability": "nonpayable",
      "type": "function"
    }
  ],
  "bytecode": "0x608060405260006009553480156200001657600080fd5b5060405162003c4d38038062003c4d83398181016040528101906200003c9190620004a8565b6040518060400160405280600481526020017f50797365000000000000000000000000000000000000000000000000000000008152506040518060400160405280600381526020017f50534500000000000000000000000000000000000000000000000000000000008152508160009081620000b99190620007b4565b508060019081620000cb9190620007b4565b5050506000600760006101000a81548160ff021916908315150217905550620000fe6000801b33620001b660201b60201c565b620001307fa49807205ce4d355092ef5a8a18f56e8913cf4a201fbe287825b095693c2177533620001b660201b60201c565b6200014186620002a860201b60201c565b33600a60006101000a81548173ffffffffffffffffffffffffffffffffffffffff021916908373ffffffffffffffffffffffffffffffffffffffff160217905550600e54935084600d8190555084600c8190555082600f819055508160108190555080601181905550505050505050620008f4565b620001c882826200031060201b60201c565b620002a45760016008600084815260200190815260200160002060000160008373ffffffffffffffffffffffffffffffffffffffff1673ffffffffffffffffffffffffffffffffffffffff16815260200190815260200160002060006101000a81548160ff021916908315150217905550620002496200037b60201b60201c565b73ffffffffffffffffffffffffffffffffffffffff168173ffffffffffffffffffffffffffffffffffffffff16837f2f8788117e7eff1d82e926ec794901d17c78024a50270940304540a733656f0d60405160405180910390a45b5050565b7fa49807205ce4d355092ef5a8a18f56e8913cf4a201fbe287825b095693c21775620002da816200038360201b60201c565b6200030c7f41a01ec0a13b563fa452569e3fbb116366d217c2769aa1561822e65a617e384283620001b660201b60201c565b5050565b60006008600084815260200190815260200160002060000160008373ffffffffffffffffffffffffffffffffffffffff1673ffffffffffffffffffffffffffffffffffffffff16815260200190815260200160002060009054906101000a900460ff16905092915050565b600033905090565b620003a481620003986200037b60201b60201c565b620003a760201b60201c565b50565b620003b982826200031060201b60201c565b620003ff5780826040517fe2517d3f000000000000000000000000000000000000000000000000000000008152600401620003f6929190620008c7565b60405180910390fd5b5050565b600080fd5b600073ffffffffffffffffffffffffffffffffffffffff82169050919050565b6000620004358262000408565b9050919050565b620004478162000428565b81146200045357600080fd5b50565b60008151905062000467816200043c565b92915050565b6000819050919050565b62000482816200046d565b81146200048e57600080fd5b50565b600081519050620004a28162000477565b92915050565b60008060008060008060c08789031215620004c857620004c762000403565b5b6000620004d889828a0162000456565b9650506020620004eb89828a0162000491565b9550506040620004fe89828a0162000491565b94505060606200051189828a0162000491565b93505060806200052489828a0162000491565b92505060a06200053789828a0162000491565b9150509295509295509295565b600081519050919050565b7f4e487b7100000000000000000000000000000000000000000000000000000000600052604160045260246000fd5b7f4e487b7100000000000000000000000000000000000000000000000000000000600052602260045260246000fd5b60006002820490506001821680620005c657607f821691505b602082108103620005dc57620005db6200057e565b5b50919050565b60008190508160005260206000209050919050565b60006020601f8301049050919050565b600082821b905092915050565b600060088302620006467fffffffffffffffffffffffffffffffffffffffffffffffffffffffffffffffff8262000607565b62000652868362000607565b95508019841693508086168417925050509392505050565b6000819050919050565b6000620006956200068f62000689846200046d565b6200066a565b6200046d565b9050919050565b6000819050919050565b620006b18362000674565b620006c9620006c0826200069c565b84845462000614565b825550505050565b600090565b620006e0620006d1565b620006ed818484620006a6565b505050565b5b81811015620007155762000709600082620006d6565b600181019050620006f3565b5050565b601f82111562000764576200072e81620005e2565b6200073984620005f7565b8101602085101562000749578190505b620007616200075885620005f7565b830182620006f2565b50505b505050565b600082821c905092915050565b6000620007896000198460080262000769565b1980831691505092915050565b6000620007a4838362000776565b9150826002028217905092915050565b620007bf8262000544565b67ffffffffffffffff811115620007db57620007da6200054f565b5b620007e78254620005ad565b620007f482828562000719565b600060209050601f8311600181146200082c576000841562000817578287015190505b62000823858262000796565b86555062000893565b601f1984166200083c86620005e2565b60005b8281101562000866578489015182556001820191506020850194506020810190506200083f565b8683101562000886578489015162000882601f89168262000776565b8355505b6001600288020188555050505b505050505050565b620008a68162000428565b82525050565b6000819050919050565b620008c181620008ac565b82525050565b6000604082019050620008de60008301856200089b565b620008ed6020830184620008b6565b9392505050565b61334980620009046000396000f3fe608060405234801561001057600080fd5b50600436106101cf5760003560e01c806362308e8511610104578063a217fddf116100a2578063c87b56dd11610071578063c87b56dd146104f0578063cd279c7c14610520578063d547741f1461053c578063e985e9c514610558576101cf565b8063a217fddf1461047e578063a22cb4651461049c578063b88d4fde146104b8578063c1732c96146104d4576101cf565b806375b238fc116100de57806375b238fc146104085780638456cb591461042657806391d148541461043057806395d89b4114610460576101cf565b806362308e851461038a5780636352211e146103a857806370a08231146103d8576101cf565b806336568abe1161017157806342966c681161014b57806342966c6814610318578063542569231461033457806358f6c231146103505780635c975abb1461036c576101cf565b806336568abe146102d65780633f4ba83a146102f257806342842e0e146102fc576101cf565b8063095ea7b3116101ad578063095ea7b31461025257806323b872dd1461026e578063248a9ca31461028a5780632f2ff15d146102ba576101cf565b806301ffc9a7146101d457806306fdde0314610204578063081812fc14610222575b600080fd5b6101ee60048036038101906101e991906126ac565b610588565b6040516101fb91906126f4565b60405180910390f35b61020c61059a565b604051610219919061279f565b60405180910390f35b61023c600480360381019061023791906127f7565b61062c565b6040516102499190612865565b60405180910390f35b61026c600480360381019061026791906128ac565b610672565b005b610288600480360381019061028391906128ec565b610798565b005b6102a4600480360381019061029f9190612975565b610803565b6040516102b191906129b1565b60405180910390f35b6102d460048036038101906102cf91906129cc565b610823565b005b6102f060048036038101906102eb91906129cc565b610844565b005b6102fa6108be565b005b610316600480360381019061031191906128ec565b6108f3565b005b610332600480360381019061032d91906127f7565b610913565b005b61034e60048036038101906103499190612a0c565b61097a565b005b61036a600480360381019061036591906127f7565b6109d2565b005b610374610a07565b60405161038191906126f4565b60405180910390f35b610392610a1e565b60405161039f91906129b1565b60405180910390f35b6103c260048036038101906103bd91906127f7565b610a42565b6040516103cf9190612865565b60405180910390f35b6103f260048036038101906103ed9190612a0c565b610aca565b6040516103ff9190612a48565b60405180910390f35b610410610b84565b60405161041d91906129b1565b60405180910390f35b61042e610ba8565b005b61044a600480360381019061044591906129cc565b610bdd565b60405161045791906126f4565b60405180910390f35b610468610c48565b604051610475919061279f565b60405180910390f35b610486610cda565b60405161049391906129b1565b60405180910390f35b6104b660048036038101906104b19190612a8f565b610ce1565b005b6104d260048036038101906104cd9190612c04565b610cf7565b005b6104ee60048036038101906104e99190612a0c565b610d64565b005b61050a600480360381019061050591906127f7565b610dbc565b604051610517919061279f565b60405180910390f35b61053a60048036038101906105359190612d28565b610dce565b005b610556600480360381019061055191906129cc565b610e12565b005b610572600480360381019061056d9190612d97565b610e33565b60405161057f91906126f4565b60405180910390f35b600061059382610ec7565b9050919050565b6060600080546105a990612e06565b80601f01602080910402602001604051908101604052809291908181526020018280546105d590612e06565b80156106225780601f106105f757610100808354040283529160200191610622565b820191906000526020600020905b81548152906001019060200180831161060557829003601f168201915b5050505050905090565b600061063782610f41565b6004600083815260200190815260200160002060009054906101000a900473ffffffffffffffffffffffffffffffffffffffff169050919050565b600061067d82610a42565b90508073ffffffffffffffffffffffffffffffffffffffff168373ffffffffffffffffffffffffffffffffffffffff16036106ef57806040517f5b08ba180000000000000000000000000000000000000000000000000000000081526004016106e69190612865565b60405180910390fd5b8073ffffffffffffffffffffffffffffffffffffffff1661070e610f8e565b73ffffffffffffffffffffffffffffffffffffffff1614158015610740575061073e81610739610f8e565b610e33565b155b156107895761074d610f8e565b6040517fa9fbf51f0000000000000000000000000000000000000000000000000000000081526004016107809190612865565b60405180910390fd5b6107938383610f96565b505050565b6107a96107a3610f8e565b8261104f565b6107f3576107b5610f8e565b816040517f177e802f0000000000000000000000000000000000000000000000000000000081526004016107ea929190612e37565b60405180910390fd5b6107fe8383836110e4565b505050565b600060086000838152602001908152602001600020600101549050919050565b61082c82610803565b610835816113fe565b61083f8383611412565b505050565b61084c610f8e565b73ffffffffffffffffffffffffffffffffffffffff168173ffffffffffffffffffffffffffffffffffffffff16146108b0576040517f6697b23200000000000000000000000000000000000000000000000000000000815260040160405180910390fd5b6108ba82826114f3565b5050565b7f41a01ec0a13b563fa452569e3fbb116366d217c2769aa1561822e65a617e38426108e8816113fe565b6108f06115d5565b50565b61090e83838360405180602001604052806000815250610cf7565b505050565b61092461091e610f8e565b8261104f565b61096e57610930610f8e565b816040517f177e802f000000000000000000000000000000000000000000000000000000008152600401610965929190612e37565b60405180910390fd5b61097781611638565b50565b7fa49807205ce4d355092ef5a8a18f56e8913cf4a201fbe287825b095693c217756109a4816113fe565b6109ce7f41a01ec0a13b563fa452569e3fbb116366d217c2769aa1561822e65a617e3842836114f3565b5050565b7f41a01ec0a13b563fa452569e3fbb116366d217c2769aa1561822e65a617e38426109fc816113fe565b816011819055505050565b6000600760009054906101000a900460ff16905090565b7f41a01ec0a13b563fa452569e3fbb116366d217c2769aa1561822e65a617e384281565b600080610a4e83611644565b9050600073ffffffffffffffffffffffffffffffffffffffff168173ffffffffffffffffffffffffffffffffffffffff1603610ac157826040517f7e273289000000000000000000000000000000000000000000000000000000008152600401610ab89190612a48565b60405180910390fd5b80915050919050565b60008073ffffffffffffffffffffffffffffffffffffffff168273ffffffffffffffffffffffffffffffffffffffff1603610b3d5760006040517f89c62b64000000000000000000000000000000000000000000000000000000008152600401610b349190612865565b60405180910390fd5b600360008373ffffffffffffffffffffffffffffffffffffffff1673ffffffffffffffffffffffffffffffffffffffff168152602001908152602001600020549050919050565b7fa49807205ce4d355092ef5a8a18f56e8913cf4a201fbe287825b095693c2177581565b7f41a01ec0a13b563fa452569e3fbb116366d217c2769aa1561822e65a617e3842610bd2816113fe565b610bda611681565b50565b60006008600084815260200190815260200160002060000160008373ffffffffffffffffffffffffffffffffffffffff1673ffffffffffffffffffffffffffffffffffffffff16815260200190815260200160002060009054906101000a900460ff16905092915050565b606060018054610c5790612e06565b80601f0160208091040260200160405190810160405280929190818152602001828054610c8390612e06565b8015610cd05780601f10610ca557610100808354040283529160200191610cd0565b820191906000526020600020905b815481529060010190602001808311610cb357829003601f168201915b5050505050905090565b6000801b81565b610cf3610cec610f8e565b83836116e4565b5050565b610d08610d02610f8e565b8361104f565b610d5257610d14610f8e565b826040517f177e802f000000000000000000000000000000000000000000000000000000008152600401610d49929190612e37565b60405180910390fd5b610d5e84848484611852565b50505050565b7fa49807205ce4d355092ef5a8a18f56e8913cf4a201fbe287825b095693c21775610d8e816113fe565b610db87f41a01ec0a13b563fa452569e3fbb116366d217c2769aa1561822e65a617e384283611412565b5050565b6060610dc7826118b0565b9050919050565b7f41a01ec0a13b563fa452569e3fbb116366d217c2769aa1561822e65a617e3842610df8816113fe565b610e0284846119c2565b610e0c83836119e0565b50505050565b610e1b82610803565b610e24816113fe565b610e2e83836114f3565b505050565b6000600560008473ffffffffffffffffffffffffffffffffffffffff1673ffffffffffffffffffffffffffffffffffffffff16815260200190815260200160002060008373ffffffffffffffffffffffffffffffffffffffff1673ffffffffffffffffffffffffffffffffffffffff16815260200190815260200160002060009054906101000a900460ff16905092915050565b60007f7965db0b000000000000000000000000000000000000000000000000000000007bffffffffffffffffffffffffffffffffffffffffffffffffffffffff1916827bffffffffffffffffffffffffffffffffffffffffffffffffffffffff19161480610f3a5750610f3982611a86565b5b9050919050565b610f4a81611ae7565b610f8b57806040517f7e273289000000000000000000000000000000000000000000000000000000008152600401610f829190612a48565b60405180910390fd5b50565b600033905090565b816004600083815260200190815260200160002060006101000a81548173ffffffffffffffffffffffffffffffffffffffff021916908373ffffffffffffffffffffffffffffffffffffffff160217905550808273ffffffffffffffffffffffffffffffffffffffff1661100983610a42565b73ffffffffffffffffffffffffffffffffffffffff167f8c5be1e5ebec7d5bd14f71427d1e84f3dd0314c0f7b2291e5b200ac8c7c3b92560405160405180910390a45050565b60008061105b83610a42565b90508073ffffffffffffffffffffffffffffffffffffffff168473ffffffffffffffffffffffffffffffffffffffff16148061109d575061109c8185610e33565b5b806110db57508373ffffffffffffffffffffffffffffffffffffffff166110c38461062c565b73ffffffffffffffffffffffffffffffffffffffff16145b91505092915050565b60006110ef82610a42565b90508373ffffffffffffffffffffffffffffffffffffffff168173ffffffffffffffffffffffffffffffffffffffff1614611165578382826040517f64283d7b00000000000000000000000000000000000000000000000000000000815260040161115c93929190612e60565b60405180910390fd5b600073ffffffffffffffffffffffffffffffffffffffff168373ffffffffffffffffffffffffffffffffffffffff16036111d75760006040517f64a0ae920000000000000000000000000000000000000000000000000000000081526004016111ce9190612865565b60405180910390fd5b6111e48484846001611b28565b6111ed82610a42565b90508373ffffffffffffffffffffffffffffffffffffffff168173ffffffffffffffffffffffffffffffffffffffff1614611263578382826040517f64283d7b00000000000000000000000000000000000000000000000000000000815260040161125a93929190612e60565b60405180910390fd5b6004600083815260200190815260200160002060006101000a81549073ffffffffffffffffffffffffffffffffffffffff02191690556001600360008673ffffffffffffffffffffffffffffffffffffffff1673ffffffffffffffffffffffffffffffffffffffff16815260200190815260200160002060008282546112e99190612ec6565b925050819055506001600360008573ffffffffffffffffffffffffffffffffffffffff1673ffffffffffffffffffffffffffffffffffffffff16815260200190815260200160002060008282540192505081905550826002600084815260200190815260200160002060006101000a81548173ffffffffffffffffffffffffffffffffffffffff021916908373ffffffffffffffffffffffffffffffffffffffff160217905550818373ffffffffffffffffffffffffffffffffffffffff168573ffffffffffffffffffffffffffffffffffffffff167fddf252ad1be2c89b69c2b068fc378daa952ba7f163c4a11628f55a4df523b3ef60405160405180910390a46113f88484846001611b42565b50505050565b61140f8161140a610f8e565b611b48565b50565b61141c8282610bdd565b6114ef5760016008600084815260200190815260200160002060000160008373ffffffffffffffffffffffffffffffffffffffff1673ffffffffffffffffffffffffffffffffffffffff16815260200190815260200160002060006101000a81548160ff021916908315150217905550611494610f8e565b73ffffffffffffffffffffffffffffffffffffffff168173ffffffffffffffffffffffffffffffffffffffff16837f2f8788117e7eff1d82e926ec794901d17c78024a50270940304540a733656f0d60405160405180910390a45b5050565b6114fd8282610bdd565b156115d15760006008600084815260200190815260200160002060000160008373ffffffffffffffffffffffffffffffffffffffff1673ffffffffffffffffffffffffffffffffffffffff16815260200190815260200160002060006101000a81548160ff021916908315150217905550611576610f8e565b73ffffffffffffffffffffffffffffffffffffffff168173ffffffffffffffffffffffffffffffffffffffff16837ff6391f5c32d9c69d2a47ea670b442974b53935d1edc7fd64eb21e047a839171b60405160405180910390a45b5050565b6115dd611b99565b6000600760006101000a81548160ff0219169083151502179055507f5db9ee0a495bf2e6ff9c91a7834c1ba4fdd244a5e8aa4e537bd38aeae4b073aa611621610f8e565b60405161162e9190612865565b60405180910390a1565b61164181611bd9565b50565b60006002600083815260200190815260200160002060009054906101000a900473ffffffffffffffffffffffffffffffffffffffff169050919050565b611689611c2c565b6001600760006101000a81548160ff0219169083151502179055507f62e78cea01bee320cd4e420270b5ea74000d11b0c9f74754ebdbfc544b05a2586116cd610f8e565b6040516116da9190612865565b60405180910390a1565b8173ffffffffffffffffffffffffffffffffffffffff168373ffffffffffffffffffffffffffffffffffffffff160361175457826040517f5b08ba1800000000000000000000000000000000000000000000000000000000815260040161174b9190612865565b60405180910390fd5b80600560008573ffffffffffffffffffffffffffffffffffffffff1673ffffffffffffffffffffffffffffffffffffffff16815260200190815260200160002060008473ffffffffffffffffffffffffffffffffffffffff1673ffffffffffffffffffffffffffffffffffffffff16815260200190815260200160002060006101000a81548160ff0219169083151502179055508173ffffffffffffffffffffffffffffffffffffffff168373ffffffffffffffffffffffffffffffffffffffff167f17307eab39ab6107e8899845ad3d59bd9653f200f220920489ca2b5937696c318360405161184591906126f4565b60405180910390a3505050565b61185d8484846110e4565b61186984848484611c6d565b6118aa57826040517f64a0ae920000000000000000000000000000000000000000000000000000000081526004016118a19190612865565b60405180910390fd5b50505050565b60606118bb82610f41565b60006006600084815260200190815260200160002080546118db90612e06565b80601f016020809104026020016040519081016040528092919081815260200182805461190790612e06565b80156119545780601f1061192957610100808354040283529160200191611954565b820191906000526020600020905b81548152906001019060200180831161193757829003601f168201915b505050505090506000611965611df1565b9050600081510361197a5781925050506119bd565b6000825111156119af578082604051602001611997929190612f36565b604051602081830303815290604052925050506119bd565b6119b884611e2e565b925050505b919050565b6119dc828260405180602001604052806000815250611e96565b5050565b6119e982611ae7565b611a2a57816040517f7e273289000000000000000000000000000000000000000000000000000000008152600401611a219190612a48565b60405180910390fd5b80600660008481526020019081526020016000209081611a4a9190613106565b507ff8e1a15aba9398e019f0b49df1a4fde98ee17ae345cb5f6b5e2c27f5033e8ce782604051611a7a9190612a48565b60405180910390a15050565b6000634906490660e01b7bffffffffffffffffffffffffffffffffffffffffffffffffffffffff1916827bffffffffffffffffffffffffffffffffffffffffffffffffffffffff19161480611ae05750611adf82611ef3565b5b9050919050565b60008073ffffffffffffffffffffffffffffffffffffffff16611b0983611644565b73ffffffffffffffffffffffffffffffffffffffff1614159050919050565b611b30611c2c565b611b3c84848484611fd5565b50505050565b50505050565b611b528282610bdd565b611b955780826040517fe2517d3f000000000000000000000000000000000000000000000000000000008152600401611b8c9291906131d8565b60405180910390fd5b5050565b611ba1610a07565b611bd7576040517f8dfc202b00000000000000000000000000000000000000000000000000000000815260040160405180910390fd5b565b611be281611fdb565b6000600660008381526020019081526020016000208054611c0290612e06565b905014611c2957600660008281526020019081526020016000206000611c2891906125e3565b5b50565b611c34610a07565b15611c6b576040517fd93c066500000000000000000000000000000000000000000000000000000000815260040160405180910390fd5b565b6000808473ffffffffffffffffffffffffffffffffffffffff163b1115611de4578373ffffffffffffffffffffffffffffffffffffffff1663150b7a02611cb2610f8e565b8786866040518563ffffffff1660e01b8152600401611cd49493929190613256565b6020604051808303816000875af1925050508015611d1057506040513d601f19601f82011682018060405250810190611d0d91906132b7565b60015b611d94573d8060008114611d40576040519150601f19603f3d011682016040523d82523d6000602084013e611d45565b606091505b506000815103611d8c57846040517f64a0ae92000000000000000000000000000000000000000000000000000000008152600401611d839190612865565b60405180910390fd5b805181602001fd5b63150b7a0260e01b7bffffffffffffffffffffffffffffffffffffffffffffffffffffffff1916817bffffffffffffffffffffffffffffffffffffffffffffffffffffffff191614915050611de9565b600190505b949350505050565b60606040518060400160405280601e81526020017f68747470733a2f2f697066732e66696c65626173652e696f2f697066732f0000815250905090565b6060611e3982610f41565b6000611e43611df1565b90506000815111611e635760405180602001604052806000815250611e8e565b80611e6d84612132565b604051602001611e7e929190612f36565b6040516020818303038152906040525b915050919050565b611ea08383612200565b611ead6000848484611c6d565b611eee57826040517f64a0ae92000000000000000000000000000000000000000000000000000000008152600401611ee59190612865565b60405180910390fd5b505050565b60007f80ac58cd000000000000000000000000000000000000000000000000000000007bffffffffffffffffffffffffffffffffffffffffffffffffffffffff1916827bffffffffffffffffffffffffffffffffffffffffffffffffffffffff19161480611fbe57507f5b5e139f000000000000000000000000000000000000000000000000000000007bffffffffffffffffffffffffffffffffffffffffffffffffffffffff1916827bffffffffffffffffffffffffffffffffffffffffffffffffffffffff1916145b80611fce5750611fcd82612426565b5b9050919050565b50505050565b6000611fe682610a42565b9050611ff6816000846001611b28565b611fff82610a42565b90506004600083815260200190815260200160002060006101000a81549073ffffffffffffffffffffffffffffffffffffffff02191690556001600360008373ffffffffffffffffffffffffffffffffffffffff1673ffffffffffffffffffffffffffffffffffffffff16815260200190815260200160002060008282546120879190612ec6565b925050819055506002600083815260200190815260200160002060006101000a81549073ffffffffffffffffffffffffffffffffffffffff021916905581600073ffffffffffffffffffffffffffffffffffffffff168273ffffffffffffffffffffffffffffffffffffffff167fddf252ad1be2c89b69c2b068fc378daa952ba7f163c4a11628f55a4df523b3ef60405160405180910390a461212e816000846001611b42565b5050565b60606000600161214184612490565b01905060008167ffffffffffffffff8111156121605761215f612ad9565b5b6040519080825280601f01601f1916602001820160405280156121925781602001600182028036833780820191505090505b509050600082602001820190505b6001156121f5578080600190039150507f3031323334353637383961626364656600000000000000000000000000000000600a86061a8153600a85816121e9576121e86132e4565b5b049450600085036121a0575b819350505050919050565b600073ffffffffffffffffffffffffffffffffffffffff168273ffffffffffffffffffffffffffffffffffffffff16036122725760006040517f64a0ae920000000000000000000000000000000000000000000000000000000081526004016122699190612865565b60405180910390fd5b61227b81611ae7565b156122be5760006040517f73c6ac6e0000000000000000000000000000000000000000000000000000000081526004016122b59190612865565b60405180910390fd5b6122cc600083836001611b28565b6122d581611ae7565b156123185760006040517f73c6ac6e00000000000000000000000000000000000000000000000000000000815260040161230f9190612865565b60405180910390fd5b6001600360008473ffffffffffffffffffffffffffffffffffffffff1673ffffffffffffffffffffffffffffffffffffffff16815260200190815260200160002060008282540192505081905550816002600083815260200190815260200160002060006101000a81548173ffffffffffffffffffffffffffffffffffffffff021916908373ffffffffffffffffffffffffffffffffffffffff160217905550808273ffffffffffffffffffffffffffffffffffffffff16600073ffffffffffffffffffffffffffffffffffffffff167fddf252ad1be2c89b69c2b068fc378daa952ba7f163c4a11628f55a4df523b3ef60405160405180910390a4612422600083836001611b42565b5050565b60007f01ffc9a7000000000000000000000000000000000000000000000000000000007bffffffffffffffffffffffffffffffffffffffffffffffffffffffff1916827bffffffffffffffffffffffffffffffffffffffffffffffffffffffff1916149050919050565b600080600090507a184f03e93ff9f4daa797ed6e38ed64bf6a1f01000000000000000083106124ee577a184f03e93ff9f4daa797ed6e38ed64bf6a1f01000000000000000083816124e4576124e36132e4565b5b0492506040810190505b6d04ee2d6d415b85acef8100000000831061252b576d04ee2d6d415b85acef81000000008381612521576125206132e4565b5b0492506020810190505b662386f26fc10000831061255a57662386f26fc1000083816125505761254f6132e4565b5b0492506010810190505b6305f5e1008310612583576305f5e1008381612579576125786132e4565b5b0492506008810190505b61271083106125a857612710838161259e5761259d6132e4565b5b0492506004810190505b606483106125cb57606483816125c1576125c06132e4565b5b0492506002810190505b600a83106125da576001810190505b80915050919050565b5080546125ef90612e06565b6000825580601f106126015750612620565b601f01602090049060005260206000209081019061261f9190612623565b5b50565b5b8082111561263c576000816000905550600101612624565b5090565b6000604051905090565b600080fd5b600080fd5b60007fffffffff0000000000000000000000000000000000000000000000000000000082169050919050565b61268981612654565b811461269457600080fd5b50565b6000813590506126a681612680565b92915050565b6000602082840312156126c2576126c161264a565b5b60006126d084828501612697565b91505092915050565b60008115159050919050565b6126ee816126d9565b82525050565b600060208201905061270960008301846126e5565b92915050565b600081519050919050565b600082825260208201905092915050565b60005b8381101561274957808201518184015260208101905061272e565b60008484015250505050565b6000601f19601f8301169050919050565b60006127718261270f565b61277b818561271a565b935061278b81856020860161272b565b61279481612755565b840191505092915050565b600060208201905081810360008301526127b98184612766565b905092915050565b6000819050919050565b6127d4816127c1565b81146127df57600080fd5b50565b6000813590506127f1816127cb565b92915050565b60006020828403121561280d5761280c61264a565b5b600061281b848285016127e2565b91505092915050565b600073ffffffffffffffffffffffffffffffffffffffff82169050919050565b600061284f82612824565b9050919050565b61285f81612844565b82525050565b600060208201905061287a6000830184612856565b92915050565b61288981612844565b811461289457600080fd5b50565b6000813590506128a681612880565b92915050565b600080604083850312156128c3576128c261264a565b5b60006128d185828601612897565b92505060206128e2858286016127e2565b9150509250929050565b6000806000606084860312156129055761290461264a565b5b600061291386828701612897565b935050602061292486828701612897565b9250506040612935868287016127e2565b9150509250925092565b6000819050919050565b6129528161293f565b811461295d57600080fd5b50565b60008135905061296f81612949565b92915050565b60006020828403121561298b5761298a61264a565b5b600061299984828501612960565b91505092915050565b6129ab8161293f565b82525050565b60006020820190506129c660008301846129a2565b92915050565b600080604083850312156129e3576129e261264a565b5b60006129f185828601612960565b9250506020612a0285828601612897565b9150509250929050565b600060208284031215612a2257612a2161264a565b5b6000612a3084828501612897565b91505092915050565b612a42816127c1565b82525050565b6000602082019050612a5d6000830184612a39565b92915050565b612a6c816126d9565b8114612a7757600080fd5b50565b600081359050612a8981612a63565b92915050565b60008060408385031215612aa657612aa561264a565b5b6000612ab485828601612897565b9250506020612ac585828601612a7a565b9150509250929050565b600080fd5b600080fd5b7f4e487b7100000000000000000000000000000000000000000000000000000000600052604160045260246000fd5b612b1182612755565b810181811067ffffffffffffffff82111715612b3057612b2f612ad9565b5b80604052505050565b6000612b43612640565b9050612b4f8282612b08565b919050565b600067ffffffffffffffff821115612b6f57612b6e612ad9565b5b612b7882612755565b9050602081019050919050565b82818337600083830152505050565b6000612ba7612ba284612b54565b612b39565b905082815260208101848484011115612bc357612bc2612ad4565b5b612bce848285612b85565b509392505050565b600082601f830112612beb57612bea612acf565b5b8135612bfb848260208601612b94565b91505092915050565b60008060008060808587031215612c1e57612c1d61264a565b5b6000612c2c87828801612897565b9450506020612c3d87828801612897565b9350506040612c4e878288016127e2565b925050606085013567ffffffffffffffff811115612c6f57612c6e61264f565b5b612c7b87828801612bd6565b91505092959194509250565b600067ffffffffffffffff821115612ca257612ca1612ad9565b5b612cab82612755565b9050602081019050919050565b6000612ccb612cc684612c87565b612b39565b905082815260208101848484011115612ce757612ce6612ad4565b5b612cf2848285612b85565b509392505050565b600082601f830112612d0f57612d0e612acf565b5b8135612d1f848260208601612cb8565b91505092915050565b600080600060608486031215612d4157612d4061264a565b5b6000612d4f86828701612897565b9350506020612d60868287016127e2565b925050604084013567ffffffffffffffff811115612d8157612d8061264f565b5b612d8d86828701612cfa565b9150509250925092565b60008060408385031215612dae57612dad61264a565b5b6000612dbc85828601612897565b9250506020612dcd85828601612897565b9150509250929050565b7f4e487b7100000000000000000000000000000000000000000000000000000000600052602260045260246000fd5b60006002820490506001821680612e1e57607f821691505b602082108103612e3157612e30612dd7565b5b50919050565b6000604082019050612e4c6000830185612856565b612e596020830184612a39565b9392505050565b6000606082019050612e756000830186612856565b612e826020830185612a39565b612e8f6040830184612856565b949350505050565b7f4e487b7100000000000000000000000000000000000000000000000000000000600052601160045260246000fd5b6000612ed1826127c1565b9150612edc836127c1565b9250828203905081811115612ef457612ef3612e97565b5b92915050565b600081905092915050565b6000612f108261270f565b612f1a8185612efa565b9350612f2a81856020860161272b565b80840191505092915050565b6000612f428285612f05565b9150612f4e8284612f05565b91508190509392505050565b60008190508160005260206000209050919050565b60006020601f8301049050919050565b600082821b905092915050565b600060088302612fbc7fffffffffffffffffffffffffffffffffffffffffffffffffffffffffffffffff82612f7f565b612fc68683612f7f565b95508019841693508086168417925050509392505050565b6000819050919050565b6000613003612ffe612ff9846127c1565b612fde565b6127c1565b9050919050565b6000819050919050565b61301d83612fe8565b6130316130298261300a565b848454612f8c565b825550505050565b600090565b613046613039565b613051818484613014565b505050565b5b818110156130755761306a60008261303e565b600181019050613057565b5050565b601f8211156130ba5761308b81612f5a565b61309484612f6f565b810160208510156130a3578190505b6130b76130af85612f6f565b830182613056565b50505b505050565b600082821c905092915050565b60006130dd600019846008026130bf565b1980831691505092915050565b60006130f683836130cc565b9150826002028217905092915050565b61310f8261270f565b67ffffffffffffffff81111561312857613127612ad9565b5b6131328254612e06565b61313d828285613079565b600060209050601f831160018114613170576000841561315e578287015190505b61316885826130ea565b8655506131d0565b601f19841661317e86612f5a565b60005b828110156131a657848901518255600182019150602085019450602081019050613181565b868310156131c357848901516131bf601f8916826130cc565b8355505b6001600288020188555050505b505050505050565b60006040820190506131ed6000830185612856565b6131fa60208301846129a2565b9392505050565b600081519050919050565b600082825260208201905092915050565b600061322882613201565b613232818561320c565b935061324281856020860161272b565b61324b81612755565b840191505092915050565b600060808201905061326b6000830187612856565b6132786020830186612856565b6132856040830185612a39565b8181036060830152613297818461321d565b905095945050505050565b6000815190506132b181612680565b92915050565b6000602082840312156132cd576132cc61264a565b5b60006132db848285016132a2565b91505092915050565b7f4e487b7100000000000000000000000000000000000000000000000000000000600052601260045260246000fdfea26469706673582212206f72d378384cd059fa8e834c922f4248b073e452c86f2d35f3a99f0069387fc164736f6c63430008140033",
  "linkReferences": {},
  "deployedLinkReferences": {}
}