{
  "_format": "hh-sol-artifact-1",
  "contractName": "Pyse",
  "sourceName": "contracts/Pyse.sol",
  "abi": [
    {
      "inputs": [
        {
          "internalType": "uint256",
          "name": "poolSize",
          "type": "uint256"
        },
        {
          "internalType": "uint256",
          "name": "rate",
          "type": "uint256"
        },
        {
          "internalType": "address",
          "name": "poolManagerAddress",
          "type": "address"
        },
        {
          "internalType": "uint256",
          "name": "startDate",
          "type": "uint256"
        },
        {
          "internalType": "uint256",
          "name": "endDate",
          "type": "uint256"
        },
        {
          "internalType": "uint256",
          "name": "minimum",
          "type": "uint256"
        },
        {
          "internalType": "address",
          "name": "_rewardTokenAddress",
          "type": "address"
        }
      ],
      "stateMutability": "nonpayable",
      "type": "constructor"
    },
    {
      "anonymous": false,
      "inputs": [
        {
          "indexed": true,
          "internalType": "address",
          "name": "owner",
          "type": "address"
        },
        {
          "indexed": true,
          "internalType": "address",
          "name": "approved",
          "type": "address"
        },
        {
          "indexed": true,
          "internalType": "uint256",
          "name": "tokenId",
          "type": "uint256"
        }
      ],
      "name": "Approval",
      "type": "event"
    },
    {
      "anonymous": false,
      "inputs": [
        {
          "indexed": true,
          "internalType": "address",
          "name": "owner",
          "type": "address"
        },
        {
          "indexed": true,
          "internalType": "address",
          "name": "operator",
          "type": "address"
        },
        {
          "indexed": false,
          "internalType": "bool",
          "name": "approved",
          "type": "bool"
        }
      ],
      "name": "ApprovalForAll",
      "type": "event"
    },
    {
      "anonymous": false,
      "inputs": [
        {
          "indexed": false,
          "internalType": "uint256",
          "name": "_fromTokenId",
          "type": "uint256"
        },
        {
          "indexed": false,
          "internalType": "uint256",
          "name": "_toTokenId",
          "type": "uint256"
        }
      ],
      "name": "BatchMetadataUpdate",
      "type": "event"
    },
    {
      "anonymous": false,
      "inputs": [
        {
          "indexed": false,
          "internalType": "string",
          "name": "orderId",
          "type": "string"
        },
        {
          "indexed": true,
          "internalType": "address",
          "name": "walletAddress",
          "type": "address"
        },
        {
          "indexed": true,
          "internalType": "uint256",
          "name": "tokenId",
          "type": "uint256"
        },
        {
          "indexed": false,
          "internalType": "string",
          "name": "cid",
          "type": "string"
        },
        {
          "indexed": false,
          "internalType": "uint256",
          "name": "finalTokenId",
          "type": "uint256"
        }
      ],
      "name": "FinalWithdrawalEvent",
      "type": "event"
    },
    {
      "anonymous": false,
      "inputs": [
        {
          "indexed": false,
          "internalType": "string",
          "name": "orderId",
          "type": "string"
        },
        {
          "indexed": true,
          "internalType": "address",
          "name": "sender",
          "type": "address"
        },
        {
          "indexed": false,
          "internalType": "uint256",
          "name": "value",
          "type": "uint256"
        },
        {
          "indexed": true,
          "internalType": "uint256",
          "name": "tokenId",
          "type": "uint256"
        },
        {
          "indexed": false,
          "internalType": "string",
          "name": "cid",
          "type": "string"
        },
        {
          "indexed": false,
          "internalType": "uint256",
          "name": "poolAvailability",
          "type": "uint256"
        }
      ],
      "name": "InvestedEvent",
      "type": "event"
    },
    {
      "anonymous": false,
      "inputs": [
        {
          "indexed": false,
          "internalType": "uint256",
          "name": "_tokenId",
          "type": "uint256"
        }
      ],
      "name": "MetadataUpdate",
      "type": "event"
    },
    {
      "anonymous": false,
      "inputs": [
        {
          "indexed": false,
          "internalType": "address",
          "name": "account",
          "type": "address"
        }
      ],
      "name": "Paused",
      "type": "event"
    },
    {
      "anonymous": false,
      "inputs": [
        {
          "indexed": true,
          "internalType": "bytes32",
          "name": "role",
          "type": "bytes32"
        },
        {
          "indexed": true,
          "internalType": "bytes32",
          "name": "previousAdminRole",
          "type": "bytes32"
        },
        {
          "indexed": true,
          "internalType": "bytes32",
          "name": "newAdminRole",
          "type": "bytes32"
        }
      ],
      "name": "RoleAdminChanged",
      "type": "event"
    },
    {
      "anonymous": false,
      "inputs": [
        {
          "indexed": true,
          "internalType": "bytes32",
          "name": "role",
          "type": "bytes32"
        },
        {
          "indexed": true,
          "internalType": "address",
          "name": "account",
          "type": "address"
        },
        {
          "indexed": true,
          "internalType": "address",
          "name": "sender",
          "type": "address"
        }
      ],
      "name": "RoleGranted",
      "type": "event"
    },
    {
      "anonymous": false,
      "inputs": [
        {
          "indexed": true,
          "internalType": "bytes32",
          "name": "role",
          "type": "bytes32"
        },
        {
          "indexed": true,
          "internalType": "address",
          "name": "account",
          "type": "address"
        },
        {
          "indexed": true,
          "internalType": "address",
          "name": "sender",
          "type": "address"
        }
      ],
      "name": "RoleRevoked",
      "type": "event"
    },
    {
      "anonymous": false,
      "inputs": [
        {
          "indexed": false,
          "internalType": "string",
          "name": "orderId",
          "type": "string"
        },
        {
          "indexed": true,
          "internalType": "address",
          "name": "sender",
          "type": "address"
        },
        {
          "indexed": true,
          "internalType": "uint256",
          "name": "tokenId",
          "type": "uint256"
        },
        {
          "indexed": false,
          "internalType": "uint256[]",
          "name": "newTokenIds",
          "type": "uint256[]"
        },
        {
          "indexed": false,
          "internalType": "uint256",
          "name": "numberOfSplits",
          "type": "uint256"
        }
      ],
      "name": "SplitEvent",
      "type": "event"
    },
    {
      "anonymous": false,
      "inputs": [
        {
          "indexed": true,
          "internalType": "address",
          "name": "from",
          "type": "address"
        },
        {
          "indexed": true,
          "internalType": "address",
          "name": "to",
          "type": "address"
        },
        {
          "indexed": true,
          "internalType": "uint256",
          "name": "tokenId",
          "type": "uint256"
        }
      ],
      "name": "Transfer",
      "type": "event"
    },
    {
      "anonymous": false,
      "inputs": [
        {
          "indexed": true,
          "internalType": "address",
          "name": "from",
          "type": "address"
        },
        {
          "indexed": true,
          "internalType": "address",
          "name": "to",
          "type": "address"
        },
        {
          "indexed": true,
          "internalType": "uint256",
          "name": "id",
          "type": "uint256"
        }
      ],
      "name": "TransferEvent",
      "type": "event"
    },
    {
      "anonymous": false,
      "inputs": [
        {
          "indexed": false,
          "internalType": "address",
          "name": "account",
          "type": "address"
        }
      ],
      "name": "Unpaused",
      "type": "event"
    },
    {
      "anonymous": false,
      "inputs": [
        {
          "indexed": false,
          "internalType": "string",
          "name": "orderId",
          "type": "string"
        },
        {
          "indexed": true,
          "internalType": "address",
          "name": "sender",
          "type": "address"
        },
        {
          "indexed": false,
          "internalType": "uint256",
          "name": "value",
          "type": "uint256"
        },
        {
          "indexed": true,
          "internalType": "uint256",
          "name": "tokenId",
          "type": "uint256"
        },
        {
          "indexed": false,
          "internalType": "uint256",
          "name": "contractBalance",
          "type": "uint256"
        }
      ],
      "name": "WithdrawEvent",
      "type": "event"
    },
    {
      "inputs": [],
      "name": "ADMIN_ROLE",
      "outputs": [
        {
          "internalType": "bytes32",
          "name": "",
          "type": "bytes32"
        }
      ],
      "stateMutability": "view",
      "type": "function"
    },
    {
      "inputs": [],
      "name": "DEFAULT_ADMIN_ROLE",
      "outputs": [
        {
          "internalType": "bytes32",
          "name": "",
          "type": "bytes32"
        }
      ],
      "stateMutability": "view",
      "type": "function"
    },
    {
      "inputs": [],
      "name": "POOL_MANAGER",
      "outputs": [
        {
          "internalType": "bytes32",
          "name": "",
          "type": "bytes32"
        }
      ],
      "stateMutability": "view",
      "type": "function"
    },
    {
      "inputs": [
        {
          "internalType": "address",
          "name": "to",
          "type": "address"
        },
        {
          "internalType": "uint256",
          "name": "tokenId",
          "type": "uint256"
        }
      ],
      "name": "approve",
      "outputs": [],
      "stateMutability": "nonpayable",
      "type": "function"
    },
    {
      "inputs": [
        {
          "internalType": "address",
          "name": "owner",
          "type": "address"
        }
      ],
      "name": "balanceOf",
      "outputs": [
        {
          "internalType": "uint256",
          "name": "",
          "type": "uint256"
        }
      ],
      "stateMutability": "view",
      "type": "function"
    },
    {
      "inputs": [
        {
          "internalType": "uint256",
          "name": "tokenIdNew",
          "type": "uint256"
        }
      ],
      "name": "burn",
      "outputs": [],
      "stateMutability": "nonpayable",
      "type": "function"
    },
    {
      "inputs": [],
      "name": "checkPoolDetails",
      "outputs": [
        {
          "internalType": "uint256",
          "name": "",
          "type": "uint256"
        },
        {
          "internalType": "uint256",
          "name": "",
          "type": "uint256"
        },
        {
          "internalType": "uint256",
          "name": "",
          "type": "uint256"
        },
        {
          "internalType": "uint256",
          "name": "",
          "type": "uint256"
        },
        {
          "internalType": "uint256",
          "name": "",
          "type": "uint256"
        },
        {
          "internalType": "uint256",
          "name": "",
          "type": "uint256"
        }
      ],
      "stateMutability": "view",
      "type": "function"
    },
    {
      "inputs": [
        {
          "internalType": "address",
          "name": "newOwner",
          "type": "address"
        }
      ],
      "name": "claimPoolManager",
      "outputs": [],
      "stateMutability": "nonpayable",
      "type": "function"
    },
    {
      "inputs": [
        {
          "internalType": "string",
          "name": "orderId",
          "type": "string"
        },
        {
          "internalType": "address",
          "name": "walletAddress",
          "type": "address"
        },
        {
          "internalType": "uint256",
          "name": "initialTokenId",
          "type": "uint256"
        },
        {
          "internalType": "string",
          "name": "cid",
          "type": "string"
        }
      ],
      "name": "finalWithdrawal",
      "outputs": [],
      "stateMutability": "nonpayable",
      "type": "function"
    },
    {
      "inputs": [
        {
          "internalType": "uint256",
          "name": "tokenId",
          "type": "uint256"
        }
      ],
      "name": "getApproved",
      "outputs": [
        {
          "internalType": "address",
          "name": "",
          "type": "address"
        }
      ],
      "stateMutability": "view",
      "type": "function"
    },
    {
      "inputs": [
        {
          "internalType": "bytes32",
          "name": "role",
          "type": "bytes32"
        }
      ],
      "name": "getRoleAdmin",
      "outputs": [
        {
          "internalType": "bytes32",
          "name": "",
          "type": "bytes32"
        }
      ],
      "stateMutability": "view",
      "type": "function"
    },
    {
      "inputs": [
        {
          "internalType": "bytes32",
          "name": "role",
          "type": "bytes32"
        },
        {
          "internalType": "address",
          "name": "account",
          "type": "address"
        }
      ],
      "name": "grantRole",
      "outputs": [],
      "stateMutability": "nonpayable",
      "type": "function"
    },
    {
      "inputs": [
        {
          "internalType": "bytes32",
          "name": "role",
          "type": "bytes32"
        },
        {
          "internalType": "address",
          "name": "account",
          "type": "address"
        }
      ],
      "name": "hasRole",
      "outputs": [
        {
          "internalType": "bool",
          "name": "",
          "type": "bool"
        }
      ],
      "stateMutability": "view",
      "type": "function"
    },
    {
      "inputs": [
        {
          "internalType": "string",
          "name": "orderId",
          "type": "string"
        },
        {
          "internalType": "uint256",
          "name": "usdcAmount",
          "type": "uint256"
        },
        {
          "internalType": "address",
          "name": "investor",
          "type": "address"
        },
        {
          "internalType": "string",
          "name": "cid",
          "type": "string"
        }
      ],
      "name": "invest",
      "outputs": [],
      "stateMutability": "nonpayable",
      "type": "function"
    },
    {
      "inputs": [
        {
          "internalType": "address",
          "name": "owner",
          "type": "address"
        },
        {
          "internalType": "address",
          "name": "operator",
          "type": "address"
        }
      ],
      "name": "isApprovedForAll",
      "outputs": [
        {
          "internalType": "bool",
          "name": "",
          "type": "bool"
        }
      ],
      "stateMutability": "view",
      "type": "function"
    },
    {
      "inputs": [],
      "name": "name",
      "outputs": [
        {
          "internalType": "string",
          "name": "",
          "type": "string"
        }
      ],
      "stateMutability": "view",
      "type": "function"
    },
    {
      "inputs": [
        {
          "internalType": "uint256",
          "name": "tokenId",
          "type": "uint256"
        }
      ],
      "name": "ownerOf",
      "outputs": [
        {
          "internalType": "address",
          "name": "",
          "type": "address"
        }
      ],
      "stateMutability": "view",
      "type": "function"
    },
    {
      "inputs": [],
      "name": "pause",
      "outputs": [],
      "stateMutability": "nonpayable",
      "type": "function"
    },
    {
      "inputs": [],
      "name": "paused",
      "outputs": [
        {
          "internalType": "bool",
          "name": "",
          "type": "bool"
        }
      ],
      "stateMutability": "view",
      "type": "function"
    },
    {
      "inputs": [
        {
          "internalType": "bytes32",
          "name": "role",
          "type": "bytes32"
        },
        {
          "internalType": "address",
          "name": "account",
          "type": "address"
        }
      ],
      "name": "renounceRole",
      "outputs": [],
      "stateMutability": "nonpayable",
      "type": "function"
    },
    {
      "inputs": [
        {
          "internalType": "address",
          "name": "compromisedAddress",
          "type": "address"
        }
      ],
      "name": "revokePoolManager",
      "outputs": [],
      "stateMutability": "nonpayable",
      "type": "function"
    },
    {
      "inputs": [
        {
          "internalType": "bytes32",
          "name": "role",
          "type": "bytes32"
        },
        {
          "internalType": "address",
          "name": "account",
          "type": "address"
        }
      ],
      "name": "revokeRole",
      "outputs": [],
      "stateMutability": "nonpayable",
      "type": "function"
    },
    {
      "inputs": [
        {
          "internalType": "address",
          "name": "to",
          "type": "address"
        },
        {
          "internalType": "uint256",
          "name": "tokenIdNew",
          "type": "uint256"
        },
        {
          "internalType": "string",
          "name": "uri",
          "type": "string"
        }
      ],
      "name": "safeMint",
      "outputs": [],
      "stateMutability": "nonpayable",
      "type": "function"
    },
    {
      "inputs": [
        {
          "internalType": "address",
          "name": "from",
          "type": "address"
        },
        {
          "internalType": "address",
          "name": "to",
          "type": "address"
        },
        {
          "internalType": "uint256",
          "name": "tokenId",
          "type": "uint256"
        }
      ],
      "name": "safeTransferFrom",
      "outputs": [],
      "stateMutability": "nonpayable",
      "type": "function"
    },
    {
      "inputs": [
        {
          "internalType": "address",
          "name": "from",
          "type": "address"
        },
        {
          "internalType": "address",
          "name": "to",
          "type": "address"
        },
        {
          "internalType": "uint256",
          "name": "tokenId",
          "type": "uint256"
        },
        {
          "internalType": "bytes",
          "name": "data",
          "type": "bytes"
        }
      ],
      "name": "safeTransferFrom",
      "outputs": [],
      "stateMutability": "nonpayable",
      "type": "function"
    },
    {
      "inputs": [
        {
          "internalType": "address",
          "name": "operator",
          "type": "address"
        },
        {
          "internalType": "bool",
          "name": "approved",
          "type": "bool"
        }
      ],
      "name": "setApprovalForAll",
      "outputs": [],
      "stateMutability": "nonpayable",
      "type": "function"
    },
    {
      "inputs": [
        {
          "internalType": "string",
          "name": "orderId",
          "type": "string"
        },
        {
          "internalType": "uint256",
          "name": "initialTokenId",
          "type": "uint256"
        },
        {
          "internalType": "uint256",
          "name": "initialAmount",
          "type": "uint256"
        },
        {
          "internalType": "uint256[]",
          "name": "amounts",
          "type": "uint256[]"
        },
        {
          "internalType": "string[]",
          "name": "cid",
          "type": "string[]"
        },
        {
          "internalType": "address",
          "name": "nftOwner",
          "type": "address"
        }
      ],
      "name": "split",
      "outputs": [],
      "stateMutability": "nonpayable",
      "type": "function"
    },
    {
      "inputs": [
        {
          "internalType": "bytes4",
          "name": "interfaceId",
          "type": "bytes4"
        }
      ],
      "name": "supportsInterface",
      "outputs": [
        {
          "internalType": "bool",
          "name": "",
          "type": "bool"
        }
      ],
      "stateMutability": "view",
      "type": "function"
    },
    {
      "inputs": [],
      "name": "symbol",
      "outputs": [
        {
          "internalType": "string",
          "name": "",
          "type": "string"
        }
      ],
      "stateMutability": "view",
      "type": "function"
    },
    {
      "inputs": [],
      "name": "tokenId",
      "outputs": [
        {
          "internalType": "uint256",
          "name": "",
          "type": "uint256"
        }
      ],
      "stateMutability": "view",
      "type": "function"
    },
    {
      "inputs": [
        {
          "internalType": "uint256",
          "name": "tokenIdNew",
          "type": "uint256"
        }
      ],
      "name": "tokenURI",
      "outputs": [
        {
          "internalType": "string",
          "name": "",
          "type": "string"
        }
      ],
      "stateMutability": "view",
      "type": "function"
    },
    {
      "inputs": [
        {
          "internalType": "address",
          "name": "from",
          "type": "address"
        },
        {
          "internalType": "address",
          "name": "to",
          "type": "address"
        },
        {
          "internalType": "uint256",
          "name": "id",
          "type": "uint256"
        }
      ],
      "name": "transfer",
      "outputs": [],
      "stateMutability": "nonpayable",
      "type": "function"
    },
    {
      "inputs": [
        {
          "internalType": "address",
          "name": "from",
          "type": "address"
        },
        {
          "internalType": "address",
          "name": "to",
          "type": "address"
        },
        {
          "internalType": "uint256",
          "name": "tokenId",
          "type": "uint256"
        }
      ],
      "name": "transferFrom",
      "outputs": [],
      "stateMutability": "nonpayable",
      "type": "function"
    },
    {
      "inputs": [],
      "name": "unpause",
      "outputs": [],
      "stateMutability": "nonpayable",
      "type": "function"
    },
    {
      "inputs": [
        {
          "internalType": "uint256",
          "name": "newValue",
          "type": "uint256"
        }
      ],
      "name": "updateMinValue",
      "outputs": [],
      "stateMutability": "nonpayable",
      "type": "function"
    },
    {
      "inputs": [
        {
          "internalType": "uint256",
          "name": "nftId",
          "type": "uint256"
        },
        {
          "internalType": "string",
          "name": "cid",
          "type": "string"
        }
      ],
      "name": "updateUri",
      "outputs": [],
      "stateMutability": "nonpayable",
      "type": "function"
    },
    {
      "inputs": [
        {
          "internalType": "string",
          "name": "orderId",
          "type": "string"
        },
        {
          "internalType": "uint256",
          "name": "rewardAmount",
          "type": "uint256"
        },
        {
          "internalType": "address",
          "name": "walletAddress",
          "type": "address"
        },
        {
          "internalType": "uint256",
          "name": "ownerTokenId",
          "type": "uint256"
        }
      ],
      "name": "withdraw",
      "outputs": [],
      "stateMutability": "nonpayable",
      "type": "function"
    }
  ],
  "bytecode": "0x6101406040526000600a553480156200001757600080fd5b506040516200671f3803806200671f83398181016040528101906200003d919062000862565b6040518060400160405280600481526020017f50797365000000000000000000000000000000000000000000000000000000008152506040518060400160405280600381526020017f50534500000000000000000000000000000000000000000000000000000000008152508160009081620000ba919062000b85565b508060019081620000cc919062000b85565b5050506000600760006101000a81548160ff021916908315150217905550620000ff6000801b33620001e760201b60201c565b620001317fa49807205ce4d355092ef5a8a18f56e8913cf4a201fbe287825b095693c2177533620001e760201b60201c565b6200014285620002d960201b60201c565b3373ffffffffffffffffffffffffffffffffffffffff1660e08173ffffffffffffffffffffffffffffffffffffffff16815250508560a08181525050866009819055508660c0818152505083610100818152505082610120818152505081600d819055508073ffffffffffffffffffffffffffffffffffffffff1660808173ffffffffffffffffffffffffffffffffffffffff16815250505050505050505062001039565b620001f98282620003f460201b60201c565b620002d55760016008600084815260200190815260200160002060000160008373ffffffffffffffffffffffffffffffffffffffff1673ffffffffffffffffffffffffffffffffffffffff16815260200190815260200160002060006101000a81548160ff0219169083151502179055506200027a6200045f60201b60201c565b73ffffffffffffffffffffffffffffffffffffffff168173ffffffffffffffffffffffffffffffffffffffff16837f2f8788117e7eff1d82e926ec794901d17c78024a50270940304540a733656f0d60405160405180910390a45b5050565b7fa49807205ce4d355092ef5a8a18f56e8913cf4a201fbe287825b095693c217756200030b816200046760201b60201c565b600073ffffffffffffffffffffffffffffffffffffffff168273ffffffffffffffffffffffffffffffffffffffff16036200037d576040517f08c379a0000000000000000000000000000000000000000000000000000000008152600401620003749062000ccd565b60405180910390fd5b620003af7f41a01ec0a13b563fa452569e3fbb116366d217c2769aa1561822e65a617e384283620001e760201b60201c565b81600c60006101000a81548173ffffffffffffffffffffffffffffffffffffffff021916908373ffffffffffffffffffffffffffffffffffffffff1602179055505050565b60006008600084815260200190815260200160002060000160008373ffffffffffffffffffffffffffffffffffffffff1673ffffffffffffffffffffffffffffffffffffffff16815260200190815260200160002060009054906101000a900460ff16905092915050565b600033905090565b62000488816200047c6200045f60201b60201c565b6200048b60201b60201c565b50565b6200049d8282620003f460201b60201c565b6200052957620004b3816200052d60201b60201c565b620004c98360001c60206200056260201b60201c565b604051602001620004dc92919062000dfd565b6040516020818303038152906040526040517f08c379a000000000000000000000000000000000000000000000000000000000815260040162000520919062000e91565b60405180910390fd5b5050565b60606200055b8273ffffffffffffffffffffffffffffffffffffffff16601460ff166200056260201b60201c565b9050919050565b60606000600283600262000577919062000ee4565b62000583919062000f2f565b67ffffffffffffffff8111156200059f576200059e62000920565b5b6040519080825280601f01601f191660200182016040528015620005d25781602001600182028036833780820191505090505b5090507f3000000000000000000000000000000000000000000000000000000000000000816000815181106200060d576200060c62000f6a565b5b60200101907effffffffffffffffffffffffffffffffffffffffffffffffffffffffffffff1916908160001a9053507f78000000000000000000000000000000000000000000000000000000000000008160018151811062000674576200067362000f6a565b5b60200101907effffffffffffffffffffffffffffffffffffffffffffffffffffffffffffff1916908160001a90535060006001846002620006b6919062000ee4565b620006c2919062000f2f565b90505b60018111156200076c577f3031323334353637383961626364656600000000000000000000000000000000600f86166010811062000708576200070762000f6a565b5b1a60f81b82828151811062000722576200072162000f6a565b5b60200101907effffffffffffffffffffffffffffffffffffffffffffffffffffffffffffff1916908160001a905350600485901c945080620007649062000f99565b9050620006c5565b5060008414620007b3576040517f08c379a0000000000000000000000000000000000000000000000000000000008152600401620007aa9062001017565b60405180910390fd5b8091505092915050565b600080fd5b6000819050919050565b620007d781620007c2565b8114620007e357600080fd5b50565b600081519050620007f781620007cc565b92915050565b600073ffffffffffffffffffffffffffffffffffffffff82169050919050565b60006200082a82620007fd565b9050919050565b6200083c816200081d565b81146200084857600080fd5b50565b6000815190506200085c8162000831565b92915050565b600080600080600080600060e0888a031215620008845762000883620007bd565b5b6000620008948a828b01620007e6565b9750506020620008a78a828b01620007e6565b9650506040620008ba8a828b016200084b565b9550506060620008cd8a828b01620007e6565b9450506080620008e08a828b01620007e6565b93505060a0620008f38a828b01620007e6565b92505060c0620009068a828b016200084b565b91505092959891949750929550565b600081519050919050565b7f4e487b7100000000000000000000000000000000000000000000000000000000600052604160045260246000fd5b7f4e487b7100000000000000000000000000000000000000000000000000000000600052602260045260246000fd5b600060028204905060018216806200099757607f821691505b602082108103620009ad57620009ac6200094f565b5b50919050565b60008190508160005260206000209050919050565b60006020601f8301049050919050565b600082821b905092915050565b60006008830262000a177fffffffffffffffffffffffffffffffffffffffffffffffffffffffffffffffff82620009d8565b62000a238683620009d8565b95508019841693508086168417925050509392505050565b6000819050919050565b600062000a6662000a6062000a5a84620007c2565b62000a3b565b620007c2565b9050919050565b6000819050919050565b62000a828362000a45565b62000a9a62000a918262000a6d565b848454620009e5565b825550505050565b600090565b62000ab162000aa2565b62000abe81848462000a77565b505050565b5b8181101562000ae65762000ada60008262000aa7565b60018101905062000ac4565b5050565b601f82111562000b355762000aff81620009b3565b62000b0a84620009c8565b8101602085101562000b1a578190505b62000b3262000b2985620009c8565b83018262000ac3565b50505b505050565b600082821c905092915050565b600062000b5a6000198460080262000b3a565b1980831691505092915050565b600062000b75838362000b47565b9150826002028217905092915050565b62000b908262000915565b67ffffffffffffffff81111562000bac5762000bab62000920565b5b62000bb882546200097e565b62000bc582828562000aea565b600060209050601f83116001811462000bfd576000841562000be8578287015190505b62000bf4858262000b67565b86555062000c64565b601f19841662000c0d86620009b3565b60005b8281101562000c375784890151825560018201915060208501945060208101905062000c10565b8683101562000c57578489015162000c53601f89168262000b47565b8355505b6001600288020188555050505b505050505050565b600082825260208201905092915050565b7f4e6577206f776e65722069732061207a65726f20616464726573730000000000600082015250565b600062000cb5601b8362000c6c565b915062000cc28262000c7d565b602082019050919050565b6000602082019050818103600083015262000ce88162000ca6565b9050919050565b600081905092915050565b7f416363657373436f6e74726f6c3a206163636f756e7420000000000000000000600082015250565b600062000d3260178362000cef565b915062000d3f8262000cfa565b601782019050919050565b60005b8381101562000d6a57808201518184015260208101905062000d4d565b60008484015250505050565b600062000d838262000915565b62000d8f818562000cef565b935062000da181856020860162000d4a565b80840191505092915050565b7f206973206d697373696e6720726f6c6520000000000000000000000000000000600082015250565b600062000de560118362000cef565b915062000df28262000dad565b601182019050919050565b600062000e0a8262000d23565b915062000e18828562000d76565b915062000e258262000dd6565b915062000e33828462000d76565b91508190509392505050565b6000601f19601f8301169050919050565b600062000e5d8262000915565b62000e69818562000c6c565b935062000e7b81856020860162000d4a565b62000e868162000e3f565b840191505092915050565b6000602082019050818103600083015262000ead818462000e50565b905092915050565b7f4e487b7100000000000000000000000000000000000000000000000000000000600052601160045260246000fd5b600062000ef182620007c2565b915062000efe83620007c2565b925082820262000f0e81620007c2565b9150828204841483151762000f285762000f2762000eb5565b5b5092915050565b600062000f3c82620007c2565b915062000f4983620007c2565b925082820190508082111562000f645762000f6362000eb5565b5b92915050565b7f4e487b7100000000000000000000000000000000000000000000000000000000600052603260045260246000fd5b600062000fa682620007c2565b91506000820362000fbc5762000fbb62000eb5565b5b600182039050919050565b7f537472696e67733a20686578206c656e67746820696e73756666696369656e74600082015250565b600062000fff60208362000c6c565b91506200100c8262000fc7565b602082019050919050565b60006020820190508181036000830152620010328162000ff0565b9050919050565b60805160a05160c05160e051610100516101205161568b620010946000396000610d0301526000610ce20152600050506000610c9d01526000610cc101526000818161093b01528181610a180152610afa015261568b6000f3fe608060405234801561001057600080fd5b50600436106102275760003560e01c806362308e8511610130578063a217fddf116100b8578063c353b6c31161007c578063c353b6c314610615578063c87b56dd14610631578063cd279c7c14610661578063d547741f1461067d578063e985e9c51461069957610227565b8063a217fddf14610587578063a22cb465146105a5578063b88d4fde146105c1578063beabacc8146105dd578063c1732c96146105f957610227565b806375b238fc116100ff57806375b238fc146104f55780637a1b821b146105135780638456cb591461052f57806391d148541461053957806395d89b411461056957610227565b806362308e851461045b5780636352211e146104795780636bfbfdd6146104a957806370a08231146104c557610227565b80632f2ff15d116101b357806342842e0e1161018257806342842e0e146103cd57806342966c68146103e9578063542569231461040557806358f6c231146104215780635c975abb1461043d57610227565b80632f2ff15d1461036857806334920d601461038457806336568abe146103a75780633f4ba83a146103c357610227565b8063095ea7b3116101fa578063095ea7b3146102c657806317d70f7c146102e2578063236a55b31461030057806323b872dd1461031c578063248a9ca31461033857610227565b806301ffc9a71461022c578063057512041461025c57806306fdde0314610278578063081812fc14610296575b600080fd5b61024660048036038101906102419190613452565b6106c9565b604051610253919061349a565b60405180910390f35b61027660048036038101906102719190613631565b6106db565b005b610280610714565b60405161028d919061370c565b60405180910390f35b6102b060048036038101906102ab919061372e565b6107a6565b6040516102bd919061379c565b60405180910390f35b6102e060048036038101906102db91906137e3565b6107ec565b005b6102ea610903565b6040516102f79190613832565b60405180910390f35b61031a6004803603810190610315919061384d565b610909565b005b610336600480360381019061033191906138d0565b610bf1565b005b610352600480360381019061034d9190613959565b610c51565b60405161035f9190613995565b60405180910390f35b610382600480360381019061037d91906139b0565b610c71565b005b61038c610c92565b60405161039e969594939291906139f0565b60405180910390f35b6103c160048036038101906103bc91906139b0565b610d39565b005b6103cb610dbc565b005b6103e760048036038101906103e291906138d0565b610df1565b005b61040360048036038101906103fe919061372e565b610e11565b005b61041f600480360381019061041a9190613a51565b610e48565b005b61043b6004803603810190610436919061372e565b610ea0565b005b610445610ed5565b604051610452919061349a565b60405180910390f35b610463610eec565b6040516104709190613995565b60405180910390f35b610493600480360381019061048e919061372e565b610f10565b6040516104a0919061379c565b60405180910390f35b6104c360048036038101906104be9190613c27565b610f96565b005b6104df60048036038101906104da9190613a51565b61124b565b6040516104ec9190613832565b60405180910390f35b6104fd611302565b60405161050a9190613995565b60405180910390f35b61052d60048036038101906105289190613d08565b611326565b005b61053761143e565b005b610553600480360381019061054e91906139b0565b611473565b604051610560919061349a565b60405180910390f35b6105716114de565b60405161057e919061370c565b60405180910390f35b61058f611570565b60405161059c9190613995565b60405180910390f35b6105bf60048036038101906105ba9190613dd3565b611577565b005b6105db60048036038101906105d69190613eb4565b61158d565b005b6105f760048036038101906105f291906138d0565b6115ef565b005b610613600480360381019061060e9190613a51565b6116d8565b005b61062f600480360381019061062a9190613f37565b6117e0565b005b61064b6004803603810190610646919061372e565b61189f565b604051610658919061370c565b60405180910390f35b61067b60048036038101906106769190613fd6565b6118b1565b005b610697600480360381019061069291906139b0565b6118f5565b005b6106b360048036038101906106ae9190614045565b611916565b6040516106c0919061349a565b60405180910390f35b60006106d4826119aa565b9050919050565b7f41a01ec0a13b563fa452569e3fbb116366d217c2769aa1561822e65a617e384261070581611a24565b61070f8383611a38565b505050565b606060008054610723906140b4565b80601f016020809104026020016040519081016040528092919081815260200182805461074f906140b4565b801561079c5780601f106107715761010080835404028352916020019161079c565b820191906000526020600020905b81548152906001019060200180831161077f57829003601f168201915b5050505050905090565b60006107b182611adc565b6004600083815260200190815260200160002060009054906101000a900473ffffffffffffffffffffffffffffffffffffffff169050919050565b60006107f782610f10565b90508073ffffffffffffffffffffffffffffffffffffffff168373ffffffffffffffffffffffffffffffffffffffff1603610867576040517f08c379a000000000000000000000000000000000000000000000000000000000815260040161085e90614157565b60405180910390fd5b8073ffffffffffffffffffffffffffffffffffffffff16610886611b27565b73ffffffffffffffffffffffffffffffffffffffff1614806108b557506108b4816108af611b27565b611916565b5b6108f4576040517f08c379a00000000000000000000000000000000000000000000000000000000081526004016108eb906141e9565b60405180910390fd5b6108fe8383611b2f565b505050565b600b5481565b7f41a01ec0a13b563fa452569e3fbb116366d217c2769aa1561822e65a617e384261093381611a24565b6000839050847f000000000000000000000000000000000000000000000000000000000000000073ffffffffffffffffffffffffffffffffffffffff166370a08231306040518263ffffffff1660e01b8152600401610992919061379c565b602060405180830381865afa1580156109af573d6000803e3d6000fd5b505050506040513d601f19601f820116820180604052508101906109d3919061421e565b1015610a14576040517f08c379a0000000000000000000000000000000000000000000000000000000008152600401610a0b906142bd565b60405180910390fd5b60007f000000000000000000000000000000000000000000000000000000000000000073ffffffffffffffffffffffffffffffffffffffff1663a9059cbb83886040518363ffffffff1660e01b8152600401610a7192919061433c565b6020604051808303816000875af1158015610a90573d6000803e3d6000fd5b505050506040513d601f19601f82011682018060405250810190610ab4919061437a565b905080610af6576040517f08c379a0000000000000000000000000000000000000000000000000000000008152600401610aed906143f3565b60405180910390fd5b60007f000000000000000000000000000000000000000000000000000000000000000073ffffffffffffffffffffffffffffffffffffffff166370a08231306040518263ffffffff1660e01b8152600401610b51919061379c565b602060405180830381865afa158015610b6e573d6000803e3d6000fd5b505050506040513d601f19601f82011682018060405250810190610b92919061421e565b9050848673ffffffffffffffffffffffffffffffffffffffff167f600e6eff42a8d74e556d0bab2d6b46f85e28dfb543ee84e7e6ba340ad89a23fa8a8a85604051610bdf93929190614413565b60405180910390a35050505050505050565b610c02610bfc611b27565b82611be8565b610c41576040517f08c379a0000000000000000000000000000000000000000000000000000000008152600401610c38906144c3565b60405180910390fd5b610c4c838383611c7d565b505050565b600060086000838152602001908152602001600020600101549050919050565b610c7a82610c51565b610c8381611a24565b610c8d8383611f76565b505050565b6000806000806000807f00000000000000000000000000000000000000000000000000000000000000006009547f00000000000000000000000000000000000000000000000000000000000000007f00000000000000000000000000000000000000000000000000000000000000007f0000000000000000000000000000000000000000000000000000000000000000600d54955095509550955095509550909192939495565b610d41611b27565b73ffffffffffffffffffffffffffffffffffffffff168173ffffffffffffffffffffffffffffffffffffffff1614610dae576040517f08c379a0000000000000000000000000000000000000000000000000000000008152600401610da590614555565b60405180910390fd5b610db88282612057565b5050565b7f41a01ec0a13b563fa452569e3fbb116366d217c2769aa1561822e65a617e3842610de681611a24565b610dee612139565b50565b610e0c8383836040518060200160405280600081525061158d565b505050565b7f41a01ec0a13b563fa452569e3fbb116366d217c2769aa1561822e65a617e3842610e3b81611a24565b610e448261219c565b5050565b7fa49807205ce4d355092ef5a8a18f56e8913cf4a201fbe287825b095693c21775610e7281611a24565b610e9c7f41a01ec0a13b563fa452569e3fbb116366d217c2769aa1561822e65a617e384283612057565b5050565b7f41a01ec0a13b563fa452569e3fbb116366d217c2769aa1561822e65a617e3842610eca81611a24565b81600d819055505050565b6000600760009054906101000a900460ff16905090565b7f41a01ec0a13b563fa452569e3fbb116366d217c2769aa1561822e65a617e384281565b600080610f1c836121d3565b9050600073ffffffffffffffffffffffffffffffffffffffff168173ffffffffffffffffffffffffffffffffffffffff1603610f8d576040517f08c379a0000000000000000000000000000000000000000000000000000000008152600401610f84906145c1565b60405180910390fd5b80915050919050565b7f41a01ec0a13b563fa452569e3fbb116366d217c2769aa1561822e65a617e3842610fc081611a24565b8251845114611004576040517f08c379a0000000000000000000000000000000000000000000000000000000008152600401610ffb9061462d565b60405180910390fd5b60008451905060008167ffffffffffffffff81111561102657611025613506565b5b6040519080825280602002602001820160405280156110545781602001602082028036833780820191505090505b50905060006040518060200160405280600081525090506000805b8481101561111157600d5489828151811061108d5761108c61464d565b5b602002602001015110156110d6576040517f08c379a00000000000000000000000000000000000000000000000000000000081526004016110cd90614714565b60405180910390fd5b8881815181106110e9576110e861464d565b5b6020026020010151826110fc9190614763565b9150808061110990614797565b91505061106f565b50808914611154576040517f08c379a000000000000000000000000000000000000000000000000000000000815260040161114b90614851565b60405180910390fd5b61115d8a61219c565b60005b848110156111ea5787818151811061117b5761117a61464d565b5b60200260200101519250600a54600b81905550600b548482815181106111a4576111a361464d565b5b6020026020010181815250506001600a60008282546111c39190614763565b925050819055506111d787600b54856118b1565b80806111e290614797565b915050611160565b50898673ffffffffffffffffffffffffffffffffffffffff167fd72ea637b6d3409cfaf01dc63bb44033772b78282b8bdd4834623eb20797b4e48d86886040516112369392919061492f565b60405180910390a35050505050505050505050565b60008073ffffffffffffffffffffffffffffffffffffffff168273ffffffffffffffffffffffffffffffffffffffff16036112bb576040517f08c379a00000000000000000000000000000000000000000000000000000000081526004016112b2906149e6565b60405180910390fd5b600360008373ffffffffffffffffffffffffffffffffffffffff1673ffffffffffffffffffffffffffffffffffffffff168152602001908152602001600020549050919050565b7fa49807205ce4d355092ef5a8a18f56e8913cf4a201fbe287825b095693c2177581565b7f41a01ec0a13b563fa452569e3fbb116366d217c2769aa1561822e65a617e384261135081611a24565b600954841115611395576040517f08c379a000000000000000000000000000000000000000000000000000000000815260040161138c90614a78565b60405180910390fd5b600a54600b819055506001600a60008282546113b19190614763565b925050819055506113c583600b54846118b1565b83600960008282546113d79190614a98565b92505081905550600b548373ffffffffffffffffffffffffffffffffffffffff167fcdf53388222d1c2e72a6336d9f392a1a99c7d38e513132d40fe6fe18135d1df187878660095460405161142f9493929190614acc565b60405180910390a35050505050565b7f41a01ec0a13b563fa452569e3fbb116366d217c2769aa1561822e65a617e384261146881611a24565b611470612210565b50565b60006008600084815260200190815260200160002060000160008373ffffffffffffffffffffffffffffffffffffffff1673ffffffffffffffffffffffffffffffffffffffff16815260200190815260200160002060009054906101000a900460ff16905092915050565b6060600180546114ed906140b4565b80601f0160208091040260200160405190810160405280929190818152602001828054611519906140b4565b80156115665780601f1061153b57610100808354040283529160200191611566565b820191906000526020600020905b81548152906001019060200180831161154957829003601f168201915b5050505050905090565b6000801b81565b611589611582611b27565b8383612273565b5050565b61159e611598611b27565b83611be8565b6115dd576040517f08c379a00000000000000000000000000000000000000000000000000000000081526004016115d4906144c3565b60405180910390fd5b6115e9848484846123df565b50505050565b8273ffffffffffffffffffffffffffffffffffffffff163373ffffffffffffffffffffffffffffffffffffffff161461165d576040517f08c379a000000000000000000000000000000000000000000000000000000000815260040161165490614b91565b60405180910390fd5b611678838383604051806020016040528060008152506123df565b808273ffffffffffffffffffffffffffffffffffffffff168473ffffffffffffffffffffffffffffffffffffffff167feaf1c4b3ce0f4f62a2bae7eb3e68225c75f7e6ff4422073b7437b9a78d25f17060405160405180910390a4505050565b7fa49807205ce4d355092ef5a8a18f56e8913cf4a201fbe287825b095693c2177561170281611a24565b600073ffffffffffffffffffffffffffffffffffffffff168273ffffffffffffffffffffffffffffffffffffffff1603611771576040517f08c379a000000000000000000000000000000000000000000000000000000000815260040161176890614bfd565b60405180910390fd5b61179b7f41a01ec0a13b563fa452569e3fbb116366d217c2769aa1561822e65a617e384283611f76565b81600c60006101000a81548173ffffffffffffffffffffffffffffffffffffffff021916908373ffffffffffffffffffffffffffffffffffffffff1602179055505050565b7f41a01ec0a13b563fa452569e3fbb116366d217c2769aa1561822e65a617e384261180a81611a24565b6118138361219c565b600a54600b819055506001600a600082825461182f9190614763565b9250508190555061184384600b54846118b1565b828473ffffffffffffffffffffffffffffffffffffffff167f0b6802a3b9d500dd82b6dcea3ae92bb3c828873ccb8b4383f2bbd049919b465a8785600b5460405161189093929190614c1d565b60405180910390a35050505050565b60606118aa8261243b565b9050919050565b7f41a01ec0a13b563fa452569e3fbb116366d217c2769aa1561822e65a617e38426118db81611a24565b6118e5848461254d565b6118ef8383611a38565b50505050565b6118fe82610c51565b61190781611a24565b6119118383612057565b505050565b6000600560008473ffffffffffffffffffffffffffffffffffffffff1673ffffffffffffffffffffffffffffffffffffffff16815260200190815260200160002060008373ffffffffffffffffffffffffffffffffffffffff1673ffffffffffffffffffffffffffffffffffffffff16815260200190815260200160002060009054906101000a900460ff16905092915050565b60007f7965db0b000000000000000000000000000000000000000000000000000000007bffffffffffffffffffffffffffffffffffffffffffffffffffffffff1916827bffffffffffffffffffffffffffffffffffffffffffffffffffffffff19161480611a1d5750611a1c8261256b565b5b9050919050565b611a3581611a30611b27565b6125cc565b50565b611a4182612651565b611a80576040517f08c379a0000000000000000000000000000000000000000000000000000000008152600401611a7790614cd4565b60405180910390fd5b80600660008481526020019081526020016000209081611aa09190614e96565b507ff8e1a15aba9398e019f0b49df1a4fde98ee17ae345cb5f6b5e2c27f5033e8ce782604051611ad09190613832565b60405180910390a15050565b611ae581612651565b611b24576040517f08c379a0000000000000000000000000000000000000000000000000000000008152600401611b1b906145c1565b60405180910390fd5b50565b600033905090565b816004600083815260200190815260200160002060006101000a81548173ffffffffffffffffffffffffffffffffffffffff021916908373ffffffffffffffffffffffffffffffffffffffff160217905550808273ffffffffffffffffffffffffffffffffffffffff16611ba283610f10565b73ffffffffffffffffffffffffffffffffffffffff167f8c5be1e5ebec7d5bd14f71427d1e84f3dd0314c0f7b2291e5b200ac8c7c3b92560405160405180910390a45050565b600080611bf483610f10565b90508073ffffffffffffffffffffffffffffffffffffffff168473ffffffffffffffffffffffffffffffffffffffff161480611c365750611c358185611916565b5b80611c7457508373ffffffffffffffffffffffffffffffffffffffff16611c5c846107a6565b73ffffffffffffffffffffffffffffffffffffffff16145b91505092915050565b8273ffffffffffffffffffffffffffffffffffffffff16611c9d82610f10565b73ffffffffffffffffffffffffffffffffffffffff1614611cf3576040517f08c379a0000000000000000000000000000000000000000000000000000000008152600401611cea90614fda565b60405180910390fd5b600073ffffffffffffffffffffffffffffffffffffffff168273ffffffffffffffffffffffffffffffffffffffff1603611d62576040517f08c379a0000000000000000000000000000000000000000000000000000000008152600401611d599061506c565b60405180910390fd5b611d6f8383836001612692565b8273ffffffffffffffffffffffffffffffffffffffff16611d8f82610f10565b73ffffffffffffffffffffffffffffffffffffffff1614611de5576040517f08c379a0000000000000000000000000000000000000000000000000000000008152600401611ddc90614fda565b60405180910390fd5b6004600082815260200190815260200160002060006101000a81549073ffffffffffffffffffffffffffffffffffffffff02191690556001600360008573ffffffffffffffffffffffffffffffffffffffff1673ffffffffffffffffffffffffffffffffffffffff168152602001908152602001600020600082825403925050819055506001600360008473ffffffffffffffffffffffffffffffffffffffff1673ffffffffffffffffffffffffffffffffffffffff16815260200190815260200160002060008282540192505081905550816002600083815260200190815260200160002060006101000a81548173ffffffffffffffffffffffffffffffffffffffff021916908373ffffffffffffffffffffffffffffffffffffffff160217905550808273ffffffffffffffffffffffffffffffffffffffff168473ffffffffffffffffffffffffffffffffffffffff167fddf252ad1be2c89b69c2b068fc378daa952ba7f163c4a11628f55a4df523b3ef60405160405180910390a4611f7183838360016126ac565b505050565b611f808282611473565b6120535760016008600084815260200190815260200160002060000160008373ffffffffffffffffffffffffffffffffffffffff1673ffffffffffffffffffffffffffffffffffffffff16815260200190815260200160002060006101000a81548160ff021916908315150217905550611ff8611b27565b73ffffffffffffffffffffffffffffffffffffffff168173ffffffffffffffffffffffffffffffffffffffff16837f2f8788117e7eff1d82e926ec794901d17c78024a50270940304540a733656f0d60405160405180910390a45b5050565b6120618282611473565b156121355760006008600084815260200190815260200160002060000160008373ffffffffffffffffffffffffffffffffffffffff1673ffffffffffffffffffffffffffffffffffffffff16815260200190815260200160002060006101000a81548160ff0219169083151502179055506120da611b27565b73ffffffffffffffffffffffffffffffffffffffff168173ffffffffffffffffffffffffffffffffffffffff16837ff6391f5c32d9c69d2a47ea670b442974b53935d1edc7fd64eb21e047a839171b60405160405180910390a45b5050565b6121416126b2565b6000600760006101000a81548160ff0219169083151502179055507f5db9ee0a495bf2e6ff9c91a7834c1ba4fdd244a5e8aa4e537bd38aeae4b073aa612185611b27565b604051612192919061379c565b60405180910390a1565b7f41a01ec0a13b563fa452569e3fbb116366d217c2769aa1561822e65a617e38426121c681611a24565b6121cf826126fb565b5050565b60006002600083815260200190815260200160002060009054906101000a900473ffffffffffffffffffffffffffffffffffffffff169050919050565b61221861274e565b6001600760006101000a81548160ff0219169083151502179055507f62e78cea01bee320cd4e420270b5ea74000d11b0c9f74754ebdbfc544b05a25861225c611b27565b604051612269919061379c565b60405180910390a1565b8173ffffffffffffffffffffffffffffffffffffffff168373ffffffffffffffffffffffffffffffffffffffff16036122e1576040517f08c379a00000000000000000000000000000000000000000000000000000000081526004016122d8906150d8565b60405180910390fd5b80600560008573ffffffffffffffffffffffffffffffffffffffff1673ffffffffffffffffffffffffffffffffffffffff16815260200190815260200160002060008473ffffffffffffffffffffffffffffffffffffffff1673ffffffffffffffffffffffffffffffffffffffff16815260200190815260200160002060006101000a81548160ff0219169083151502179055508173ffffffffffffffffffffffffffffffffffffffff168373ffffffffffffffffffffffffffffffffffffffff167f17307eab39ab6107e8899845ad3d59bd9653f200f220920489ca2b5937696c31836040516123d2919061349a565b60405180910390a3505050565b6123ea848484611c7d565b6123f684848484612798565b612435576040517f08c379a000000000000000000000000000000000000000000000000000000000815260040161242c9061516a565b60405180910390fd5b50505050565b606061244682611adc565b6000600660008481526020019081526020016000208054612466906140b4565b80601f0160208091040260200160405190810160405280929190818152602001828054612492906140b4565b80156124df5780601f106124b4576101008083540402835291602001916124df565b820191906000526020600020905b8154815290600101906020018083116124c257829003601f168201915b5050505050905060006124f061291f565b90506000815103612505578192505050612548565b60008251111561253a5780826040516020016125229291906151c6565b60405160208183030381529060405292505050612548565b6125438461295c565b925050505b919050565b6125678282604051806020016040528060008152506129c4565b5050565b6000634906490660e01b7bffffffffffffffffffffffffffffffffffffffffffffffffffffffff1916827bffffffffffffffffffffffffffffffffffffffffffffffffffffffff191614806125c557506125c482612a1f565b5b9050919050565b6125d68282611473565b61264d576125e381612b01565b6125f18360001c6020612b2e565b604051602001612602929190615282565b6040516020818303038152906040526040517f08c379a0000000000000000000000000000000000000000000000000000000008152600401612644919061370c565b60405180910390fd5b5050565b60008073ffffffffffffffffffffffffffffffffffffffff16612673836121d3565b73ffffffffffffffffffffffffffffffffffffffff1614159050919050565b61269a61274e565b6126a684848484612d6a565b50505050565b50505050565b6126ba610ed5565b6126f9576040517f08c379a00000000000000000000000000000000000000000000000000000000081526004016126f090615308565b60405180910390fd5b565b61270481612d70565b6000600660008381526020019081526020016000208054612724906140b4565b90501461274b5760066000828152602001908152602001600020600061274a9190613389565b5b50565b612756610ed5565b15612796576040517f08c379a000000000000000000000000000000000000000000000000000000000815260040161278d90615374565b60405180910390fd5b565b60006127b98473ffffffffffffffffffffffffffffffffffffffff16612ebe565b15612912578373ffffffffffffffffffffffffffffffffffffffff1663150b7a026127e2611b27565b8786866040518563ffffffff1660e01b815260040161280494939291906153e9565b6020604051808303816000875af192505050801561284057506040513d601f19601f8201168201806040525081019061283d919061544a565b60015b6128c2573d8060008114612870576040519150601f19603f3d011682016040523d82523d6000602084013e612875565b606091505b5060008151036128ba576040517f08c379a00000000000000000000000000000000000000000000000000000000081526004016128b19061516a565b60405180910390fd5b805181602001fd5b63150b7a0260e01b7bffffffffffffffffffffffffffffffffffffffffffffffffffffffff1916817bffffffffffffffffffffffffffffffffffffffffffffffffffffffff191614915050612917565b600190505b949350505050565b60606040518060400160405280601e81526020017f68747470733a2f2f697066732e66696c65626173652e696f2f697066732f0000815250905090565b606061296782611adc565b600061297161291f565b9050600081511161299157604051806020016040528060008152506129bc565b8061299b84612ee1565b6040516020016129ac9291906151c6565b6040516020818303038152906040525b915050919050565b6129ce8383612faf565b6129db6000848484612798565b612a1a576040517f08c379a0000000000000000000000000000000000000000000000000000000008152600401612a119061516a565b60405180910390fd5b505050565b60007f80ac58cd000000000000000000000000000000000000000000000000000000007bffffffffffffffffffffffffffffffffffffffffffffffffffffffff1916827bffffffffffffffffffffffffffffffffffffffffffffffffffffffff19161480612aea57507f5b5e139f000000000000000000000000000000000000000000000000000000007bffffffffffffffffffffffffffffffffffffffffffffffffffffffff1916827bffffffffffffffffffffffffffffffffffffffffffffffffffffffff1916145b80612afa5750612af9826131cc565b5b9050919050565b6060612b278273ffffffffffffffffffffffffffffffffffffffff16601460ff16612b2e565b9050919050565b606060006002836002612b419190615477565b612b4b9190614763565b67ffffffffffffffff811115612b6457612b63613506565b5b6040519080825280601f01601f191660200182016040528015612b965781602001600182028036833780820191505090505b5090507f300000000000000000000000000000000000000000000000000000000000000081600081518110612bce57612bcd61464d565b5b60200101907effffffffffffffffffffffffffffffffffffffffffffffffffffffffffffff1916908160001a9053507f780000000000000000000000000000000000000000000000000000000000000081600181518110612c3257612c3161464d565b5b60200101907effffffffffffffffffffffffffffffffffffffffffffffffffffffffffffff1916908160001a90535060006001846002612c729190615477565b612c7c9190614763565b90505b6001811115612d1c577f3031323334353637383961626364656600000000000000000000000000000000600f861660108110612cbe57612cbd61464d565b5b1a60f81b828281518110612cd557612cd461464d565b5b60200101907effffffffffffffffffffffffffffffffffffffffffffffffffffffffffffff1916908160001a905350600485901c945080612d15906154b9565b9050612c7f565b5060008414612d60576040517f08c379a0000000000000000000000000000000000000000000000000000000008152600401612d579061552e565b60405180910390fd5b8091505092915050565b50505050565b6000612d7b82610f10565b9050612d8b816000846001612692565b612d9482610f10565b90506004600083815260200190815260200160002060006101000a81549073ffffffffffffffffffffffffffffffffffffffff02191690556001600360008373ffffffffffffffffffffffffffffffffffffffff1673ffffffffffffffffffffffffffffffffffffffff168152602001908152602001600020600082825403925050819055506002600083815260200190815260200160002060006101000a81549073ffffffffffffffffffffffffffffffffffffffff021916905581600073ffffffffffffffffffffffffffffffffffffffff168273ffffffffffffffffffffffffffffffffffffffff167fddf252ad1be2c89b69c2b068fc378daa952ba7f163c4a11628f55a4df523b3ef60405160405180910390a4612eba8160008460016126ac565b5050565b6000808273ffffffffffffffffffffffffffffffffffffffff163b119050919050565b606060006001612ef084613236565b01905060008167ffffffffffffffff811115612f0f57612f0e613506565b5b6040519080825280601f01601f191660200182016040528015612f415781602001600182028036833780820191505090505b509050600082602001820190505b600115612fa4578080600190039150507f3031323334353637383961626364656600000000000000000000000000000000600a86061a8153600a8581612f9857612f9761554e565b5b04945060008503612f4f575b819350505050919050565b600073ffffffffffffffffffffffffffffffffffffffff168273ffffffffffffffffffffffffffffffffffffffff160361301e576040517f08c379a0000000000000000000000000000000000000000000000000000000008152600401613015906155c9565b60405180910390fd5b61302781612651565b15613067576040517f08c379a000000000000000000000000000000000000000000000000000000000815260040161305e90615635565b60405180910390fd5b613075600083836001612692565b61307e81612651565b156130be576040517f08c379a00000000000000000000000000000000000000000000000000000000081526004016130b590615635565b60405180910390fd5b6001600360008473ffffffffffffffffffffffffffffffffffffffff1673ffffffffffffffffffffffffffffffffffffffff16815260200190815260200160002060008282540192505081905550816002600083815260200190815260200160002060006101000a81548173ffffffffffffffffffffffffffffffffffffffff021916908373ffffffffffffffffffffffffffffffffffffffff160217905550808273ffffffffffffffffffffffffffffffffffffffff16600073ffffffffffffffffffffffffffffffffffffffff167fddf252ad1be2c89b69c2b068fc378daa952ba7f163c4a11628f55a4df523b3ef60405160405180910390a46131c86000838360016126ac565b5050565b60007f01ffc9a7000000000000000000000000000000000000000000000000000000007bffffffffffffffffffffffffffffffffffffffffffffffffffffffff1916827bffffffffffffffffffffffffffffffffffffffffffffffffffffffff1916149050919050565b600080600090507a184f03e93ff9f4daa797ed6e38ed64bf6a1f0100000000000000008310613294577a184f03e93ff9f4daa797ed6e38ed64bf6a1f010000000000000000838161328a5761328961554e565b5b0492506040810190505b6d04ee2d6d415b85acef810000000083106132d1576d04ee2d6d415b85acef810000000083816132c7576132c661554e565b5b0492506020810190505b662386f26fc10000831061330057662386f26fc1000083816132f6576132f561554e565b5b0492506010810190505b6305f5e1008310613329576305f5e100838161331f5761331e61554e565b5b0492506008810190505b612710831061334e5761271083816133445761334361554e565b5b0492506004810190505b6064831061337157606483816133675761336661554e565b5b0492506002810190505b600a8310613380576001810190505b80915050919050565b508054613395906140b4565b6000825580601f106133a757506133c6565b601f0160209004906000526020600020908101906133c591906133c9565b5b50565b5b808211156133e25760008160009055506001016133ca565b5090565b6000604051905090565b600080fd5b600080fd5b60007fffffffff0000000000000000000000000000000000000000000000000000000082169050919050565b61342f816133fa565b811461343a57600080fd5b50565b60008135905061344c81613426565b92915050565b600060208284031215613468576134676133f0565b5b60006134768482850161343d565b91505092915050565b60008115159050919050565b6134948161347f565b82525050565b60006020820190506134af600083018461348b565b92915050565b6000819050919050565b6134c8816134b5565b81146134d357600080fd5b50565b6000813590506134e5816134bf565b92915050565b600080fd5b600080fd5b6000601f19601f8301169050919050565b7f4e487b7100000000000000000000000000000000000000000000000000000000600052604160045260246000fd5b61353e826134f5565b810181811067ffffffffffffffff8211171561355d5761355c613506565b5b80604052505050565b60006135706133e6565b905061357c8282613535565b919050565b600067ffffffffffffffff82111561359c5761359b613506565b5b6135a5826134f5565b9050602081019050919050565b82818337600083830152505050565b60006135d46135cf84613581565b613566565b9050828152602081018484840111156135f0576135ef6134f0565b5b6135fb8482856135b2565b509392505050565b600082601f830112613618576136176134eb565b5b81356136288482602086016135c1565b91505092915050565b60008060408385031215613648576136476133f0565b5b6000613656858286016134d6565b925050602083013567ffffffffffffffff811115613677576136766133f5565b5b61368385828601613603565b9150509250929050565b600081519050919050565b600082825260208201905092915050565b60005b838110156136c75780820151818401526020810190506136ac565b60008484015250505050565b60006136de8261368d565b6136e88185613698565b93506136f88185602086016136a9565b613701816134f5565b840191505092915050565b6000602082019050818103600083015261372681846136d3565b905092915050565b600060208284031215613744576137436133f0565b5b6000613752848285016134d6565b91505092915050565b600073ffffffffffffffffffffffffffffffffffffffff82169050919050565b60006137868261375b565b9050919050565b6137968161377b565b82525050565b60006020820190506137b1600083018461378d565b92915050565b6137c08161377b565b81146137cb57600080fd5b50565b6000813590506137dd816137b7565b92915050565b600080604083850312156137fa576137f96133f0565b5b6000613808858286016137ce565b9250506020613819858286016134d6565b9150509250929050565b61382c816134b5565b82525050565b60006020820190506138476000830184613823565b92915050565b60008060008060808587031215613867576138666133f0565b5b600085013567ffffffffffffffff811115613885576138846133f5565b5b61389187828801613603565b94505060206138a2878288016134d6565b93505060406138b3878288016137ce565b92505060606138c4878288016134d6565b91505092959194509250565b6000806000606084860312156138e9576138e86133f0565b5b60006138f7868287016137ce565b9350506020613908868287016137ce565b9250506040613919868287016134d6565b9150509250925092565b6000819050919050565b61393681613923565b811461394157600080fd5b50565b6000813590506139538161392d565b92915050565b60006020828403121561396f5761396e6133f0565b5b600061397d84828501613944565b91505092915050565b61398f81613923565b82525050565b60006020820190506139aa6000830184613986565b92915050565b600080604083850312156139c7576139c66133f0565b5b60006139d585828601613944565b92505060206139e6858286016137ce565b9150509250929050565b600060c082019050613a056000830189613823565b613a126020830188613823565b613a1f6040830187613823565b613a2c6060830186613823565b613a396080830185613823565b613a4660a0830184613823565b979650505050505050565b600060208284031215613a6757613a666133f0565b5b6000613a75848285016137ce565b91505092915050565b600067ffffffffffffffff821115613a9957613a98613506565b5b602082029050602081019050919050565b600080fd5b6000613ac2613abd84613a7e565b613566565b90508083825260208201905060208402830185811115613ae557613ae4613aaa565b5b835b81811015613b0e5780613afa88826134d6565b845260208401935050602081019050613ae7565b5050509392505050565b600082601f830112613b2d57613b2c6134eb565b5b8135613b3d848260208601613aaf565b91505092915050565b600067ffffffffffffffff821115613b6157613b60613506565b5b602082029050602081019050919050565b6000613b85613b8084613b46565b613566565b90508083825260208201905060208402830185811115613ba857613ba7613aaa565b5b835b81811015613bef57803567ffffffffffffffff811115613bcd57613bcc6134eb565b5b808601613bda8982613603565b85526020850194505050602081019050613baa565b5050509392505050565b600082601f830112613c0e57613c0d6134eb565b5b8135613c1e848260208601613b72565b91505092915050565b60008060008060008060c08789031215613c4457613c436133f0565b5b600087013567ffffffffffffffff811115613c6257613c616133f5565b5b613c6e89828a01613603565b9650506020613c7f89828a016134d6565b9550506040613c9089828a016134d6565b945050606087013567ffffffffffffffff811115613cb157613cb06133f5565b5b613cbd89828a01613b18565b935050608087013567ffffffffffffffff811115613cde57613cdd6133f5565b5b613cea89828a01613bf9565b92505060a0613cfb89828a016137ce565b9150509295509295509295565b60008060008060808587031215613d2257613d216133f0565b5b600085013567ffffffffffffffff811115613d4057613d3f6133f5565b5b613d4c87828801613603565b9450506020613d5d878288016134d6565b9350506040613d6e878288016137ce565b925050606085013567ffffffffffffffff811115613d8f57613d8e6133f5565b5b613d9b87828801613603565b91505092959194509250565b613db08161347f565b8114613dbb57600080fd5b50565b600081359050613dcd81613da7565b92915050565b60008060408385031215613dea57613de96133f0565b5b6000613df8858286016137ce565b9250506020613e0985828601613dbe565b9150509250929050565b600067ffffffffffffffff821115613e2e57613e2d613506565b5b613e37826134f5565b9050602081019050919050565b6000613e57613e5284613e13565b613566565b905082815260208101848484011115613e7357613e726134f0565b5b613e7e8482856135b2565b509392505050565b600082601f830112613e9b57613e9a6134eb565b5b8135613eab848260208601613e44565b91505092915050565b60008060008060808587031215613ece57613ecd6133f0565b5b6000613edc878288016137ce565b9450506020613eed878288016137ce565b9350506040613efe878288016134d6565b925050606085013567ffffffffffffffff811115613f1f57613f1e6133f5565b5b613f2b87828801613e86565b91505092959194509250565b60008060008060808587031215613f5157613f506133f0565b5b600085013567ffffffffffffffff811115613f6f57613f6e6133f5565b5b613f7b87828801613603565b9450506020613f8c878288016137ce565b9350506040613f9d878288016134d6565b925050606085013567ffffffffffffffff811115613fbe57613fbd6133f5565b5b613fca87828801613603565b91505092959194509250565b600080600060608486031215613fef57613fee6133f0565b5b6000613ffd868287016137ce565b935050602061400e868287016134d6565b925050604084013567ffffffffffffffff81111561402f5761402e6133f5565b5b61403b86828701613603565b9150509250925092565b6000806040838503121561405c5761405b6133f0565b5b600061406a858286016137ce565b925050602061407b858286016137ce565b9150509250929050565b7f4e487b7100000000000000000000000000000000000000000000000000000000600052602260045260246000fd5b600060028204905060018216806140cc57607f821691505b6020821081036140df576140de614085565b5b50919050565b7f4552433732313a20617070726f76616c20746f2063757272656e74206f776e6560008201527f7200000000000000000000000000000000000000000000000000000000000000602082015250565b6000614141602183613698565b915061414c826140e5565b604082019050919050565b6000602082019050818103600083015261417081614134565b9050919050565b7f4552433732313a20617070726f76652063616c6c6572206973206e6f7420746f60008201527f6b656e206f776e6572206f7220617070726f76656420666f7220616c6c000000602082015250565b60006141d3603d83613698565b91506141de82614177565b604082019050919050565b60006020820190508181036000830152614202816141c6565b9050919050565b600081519050614218816134bf565b92915050565b600060208284031215614234576142336133f0565b5b600061424284828501614209565b91505092915050565b7f496e73756666696369656e742062616c616e63652c2074727920616761696e2060008201527f6c617465722e0000000000000000000000000000000000000000000000000000602082015250565b60006142a7602683613698565b91506142b28261424b565b604082019050919050565b600060208201905081810360008301526142d68161429a565b9050919050565b6000819050919050565b60006143026142fd6142f88461375b565b6142dd565b61375b565b9050919050565b6000614314826142e7565b9050919050565b600061432682614309565b9050919050565b6143368161431b565b82525050565b6000604082019050614351600083018561432d565b61435e6020830184613823565b9392505050565b60008151905061437481613da7565b92915050565b6000602082840312156143905761438f6133f0565b5b600061439e84828501614365565b91505092915050565b7f5769746864726177616c206661696c6564000000000000000000000000000000600082015250565b60006143dd601183613698565b91506143e8826143a7565b602082019050919050565b6000602082019050818103600083015261440c816143d0565b9050919050565b6000606082019050818103600083015261442d81866136d3565b905061443c6020830185613823565b6144496040830184613823565b949350505050565b7f4552433732313a2063616c6c6572206973206e6f7420746f6b656e206f776e6560008201527f72206f7220617070726f76656400000000000000000000000000000000000000602082015250565b60006144ad602d83613698565b91506144b882614451565b604082019050919050565b600060208201905081810360008301526144dc816144a0565b9050919050565b7f416363657373436f6e74726f6c3a2063616e206f6e6c792072656e6f756e636560008201527f20726f6c657320666f722073656c660000000000000000000000000000000000602082015250565b600061453f602f83613698565b915061454a826144e3565b604082019050919050565b6000602082019050818103600083015261456e81614532565b9050919050565b7f4552433732313a20696e76616c696420746f6b656e2049440000000000000000600082015250565b60006145ab601883613698565b91506145b682614575565b602082019050919050565b600060208201905081810360008301526145da8161459e565b9050919050565b7f496e76616c69642073706c69742064657461696c732e00000000000000000000600082015250565b6000614617601683613698565b9150614622826145e1565b602082019050919050565b600060208201905081810360008301526146468161460a565b9050919050565b7f4e487b7100000000000000000000000000000000000000000000000000000000600052603260045260246000fd5b7f496e646976696475616c2073706c69742076616c75657320617265206e6f742060008201527f61626f766520746865206d696e696d756d20696e7665737461626c652076616c60208201527f75652e0000000000000000000000000000000000000000000000000000000000604082015250565b60006146fe604383613698565b91506147098261467c565b606082019050919050565b6000602082019050818103600083015261472d816146f1565b9050919050565b7f4e487b7100000000000000000000000000000000000000000000000000000000600052601160045260246000fd5b600061476e826134b5565b9150614779836134b5565b925082820190508082111561479157614790614734565b5b92915050565b60006147a2826134b5565b91507fffffffffffffffffffffffffffffffffffffffffffffffffffffffffffffffff82036147d4576147d3614734565b5b600182019050919050565b7f5468652073706c69742076616c75657320646f206e6f7420616464207570207460008201527f6f2074686520696e697469616c20746f6b656e2076616c75652e000000000000602082015250565b600061483b603a83613698565b9150614846826147df565b604082019050919050565b6000602082019050818103600083015261486a8161482e565b9050919050565b600081519050919050565b600082825260208201905092915050565b6000819050602082019050919050565b6148a6816134b5565b82525050565b60006148b8838361489d565b60208301905092915050565b6000602082019050919050565b60006148dc82614871565b6148e6818561487c565b93506148f18361488d565b8060005b8381101561492257815161490988826148ac565b9750614914836148c4565b9250506001810190506148f5565b5085935050505092915050565b6000606082019050818103600083015261494981866136d3565b9050818103602083015261495d81856148d1565b905061496c6040830184613823565b949350505050565b7f4552433732313a2061646472657373207a65726f206973206e6f74206120766160008201527f6c6964206f776e65720000000000000000000000000000000000000000000000602082015250565b60006149d0602983613698565b91506149db82614974565b604082019050919050565b600060208201905081810360008301526149ff816149c3565b9050919050565b7f496e766573746d656e7420616d6f756e74206c6172676572207468616e20706f60008201527f6f6c20617661696c6162696c6974792e00000000000000000000000000000000602082015250565b6000614a62603083613698565b9150614a6d82614a06565b604082019050919050565b60006020820190508181036000830152614a9181614a55565b9050919050565b6000614aa3826134b5565b9150614aae836134b5565b9250828203905081811115614ac657614ac5614734565b5b92915050565b60006080820190508181036000830152614ae681876136d3565b9050614af56020830186613823565b8181036040830152614b0781856136d3565b9050614b166060830184613823565b95945050505050565b7f4f6e6c79207468652073656e6465722063616e20696e6974696174652074686560008201527f207472616e736665722e00000000000000000000000000000000000000000000602082015250565b6000614b7b602a83613698565b9150614b8682614b1f565b604082019050919050565b60006020820190508181036000830152614baa81614b6e565b9050919050565b7f4e6577206f776e65722069732061207a65726f20616464726573730000000000600082015250565b6000614be7601b83613698565b9150614bf282614bb1565b602082019050919050565b60006020820190508181036000830152614c1681614bda565b9050919050565b60006060820190508181036000830152614c3781866136d3565b90508181036020830152614c4b81856136d3565b9050614c5a6040830184613823565b949350505050565b7f45524337323155524953746f726167653a2055524920736574206f66206e6f6e60008201527f6578697374656e7420746f6b656e000000000000000000000000000000000000602082015250565b6000614cbe602e83613698565b9150614cc982614c62565b604082019050919050565b60006020820190508181036000830152614ced81614cb1565b9050919050565b60008190508160005260206000209050919050565b60006020601f8301049050919050565b600082821b905092915050565b600060088302614d567fffffffffffffffffffffffffffffffffffffffffffffffffffffffffffffffff82614d19565b614d608683614d19565b95508019841693508086168417925050509392505050565b6000614d93614d8e614d89846134b5565b6142dd565b6134b5565b9050919050565b6000819050919050565b614dad83614d78565b614dc1614db982614d9a565b848454614d26565b825550505050565b600090565b614dd6614dc9565b614de1818484614da4565b505050565b5b81811015614e0557614dfa600082614dce565b600181019050614de7565b5050565b601f821115614e4a57614e1b81614cf4565b614e2484614d09565b81016020851015614e33578190505b614e47614e3f85614d09565b830182614de6565b50505b505050565b600082821c905092915050565b6000614e6d60001984600802614e4f565b1980831691505092915050565b6000614e868383614e5c565b9150826002028217905092915050565b614e9f8261368d565b67ffffffffffffffff811115614eb857614eb7613506565b5b614ec282546140b4565b614ecd828285614e09565b600060209050601f831160018114614f005760008415614eee578287015190505b614ef88582614e7a565b865550614f60565b601f198416614f0e86614cf4565b60005b82811015614f3657848901518255600182019150602085019450602081019050614f11565b86831015614f535784890151614f4f601f891682614e5c565b8355505b6001600288020188555050505b505050505050565b7f4552433732313a207472616e736665722066726f6d20696e636f72726563742060008201527f6f776e6572000000000000000000000000000000000000000000000000000000602082015250565b6000614fc4602583613698565b9150614fcf82614f68565b604082019050919050565b60006020820190508181036000830152614ff381614fb7565b9050919050565b7f4552433732313a207472616e7366657220746f20746865207a65726f2061646460008201527f7265737300000000000000000000000000000000000000000000000000000000602082015250565b6000615056602483613698565b915061506182614ffa565b604082019050919050565b6000602082019050818103600083015261508581615049565b9050919050565b7f4552433732313a20617070726f766520746f2063616c6c657200000000000000600082015250565b60006150c2601983613698565b91506150cd8261508c565b602082019050919050565b600060208201905081810360008301526150f1816150b5565b9050919050565b7f4552433732313a207472616e7366657220746f206e6f6e20455243373231526560008201527f63656976657220696d706c656d656e7465720000000000000000000000000000602082015250565b6000615154603283613698565b915061515f826150f8565b604082019050919050565b6000602082019050818103600083015261518381615147565b9050919050565b600081905092915050565b60006151a08261368d565b6151aa818561518a565b93506151ba8185602086016136a9565b80840191505092915050565b60006151d28285615195565b91506151de8284615195565b91508190509392505050565b7f416363657373436f6e74726f6c3a206163636f756e7420000000000000000000600082015250565b600061522060178361518a565b915061522b826151ea565b601782019050919050565b7f206973206d697373696e6720726f6c6520000000000000000000000000000000600082015250565b600061526c60118361518a565b915061527782615236565b601182019050919050565b600061528d82615213565b91506152998285615195565b91506152a48261525f565b91506152b08284615195565b91508190509392505050565b7f5061757361626c653a206e6f7420706175736564000000000000000000000000600082015250565b60006152f2601483613698565b91506152fd826152bc565b602082019050919050565b60006020820190508181036000830152615321816152e5565b9050919050565b7f5061757361626c653a2070617573656400000000000000000000000000000000600082015250565b600061535e601083613698565b915061536982615328565b602082019050919050565b6000602082019050818103600083015261538d81615351565b9050919050565b600081519050919050565b600082825260208201905092915050565b60006153bb82615394565b6153c5818561539f565b93506153d58185602086016136a9565b6153de816134f5565b840191505092915050565b60006080820190506153fe600083018761378d565b61540b602083018661378d565b6154186040830185613823565b818103606083015261542a81846153b0565b905095945050505050565b60008151905061544481613426565b92915050565b6000602082840312156154605761545f6133f0565b5b600061546e84828501615435565b91505092915050565b6000615482826134b5565b915061548d836134b5565b925082820261549b816134b5565b915082820484148315176154b2576154b1614734565b5b5092915050565b60006154c4826134b5565b9150600082036154d7576154d6614734565b5b600182039050919050565b7f537472696e67733a20686578206c656e67746820696e73756666696369656e74600082015250565b6000615518602083613698565b9150615523826154e2565b602082019050919050565b600060208201905081810360008301526155478161550b565b9050919050565b7f4e487b7100000000000000000000000000000000000000000000000000000000600052601260045260246000fd5b7f4552433732313a206d696e7420746f20746865207a65726f2061646472657373600082015250565b60006155b3602083613698565b91506155be8261557d565b602082019050919050565b600060208201905081810360008301526155e2816155a6565b9050919050565b7f4552433732313a20746f6b656e20616c7265616479206d696e74656400000000600082015250565b600061561f601c83613698565b915061562a826155e9565b602082019050919050565b6000602082019050818103600083015261564e81615612565b905091905056fea2646970667358221220429b07c77c34f88023fc623625b5089b6a52a764001ffec6f6015cc57860c57664736f6c63430008140033",
  "linkReferences": {},
  "deployedLinkReferences": {}
}